{
  "_format": "hh-sol-artifact-1",
  "contractName": "BeeswapRouter",
  "sourceName": "contracts/BeeswapRouter.sol",
  "abi": [
    {
      "anonymous": false,
      "inputs": [
        {
          "indexed": false,
          "internalType": "uint8",
          "name": "version",
          "type": "uint8"
        }
      ],
      "name": "Initialized",
      "type": "event"
    },
    {
      "anonymous": false,
      "inputs": [
        {
          "indexed": true,
          "internalType": "address",
          "name": "previousOwner",
          "type": "address"
        },
        {
          "indexed": true,
          "internalType": "address",
          "name": "newOwner",
          "type": "address"
        }
      ],
      "name": "OwnershipTransferred",
      "type": "event"
    },
    {
      "anonymous": false,
      "inputs": [
        {
          "indexed": true,
          "internalType": "address",
          "name": "from",
          "type": "address"
        },
        {
          "indexed": false,
          "internalType": "address",
          "name": "to",
          "type": "address"
        },
        {
          "indexed": false,
          "internalType": "uint256",
          "name": "fromChain",
          "type": "uint256"
        },
        {
          "indexed": false,
          "internalType": "uint256",
          "name": "toChain",
          "type": "uint256"
        },
        {
          "indexed": true,
          "internalType": "address",
          "name": "fromToken",
          "type": "address"
        },
        {
          "indexed": true,
          "internalType": "address",
          "name": "toToken",
          "type": "address"
        },
        {
          "indexed": false,
          "internalType": "uint256",
          "name": "amount",
          "type": "uint256"
        }
      ],
      "name": "SwapIn",
      "type": "event"
    },
    {
      "anonymous": false,
      "inputs": [
        {
          "indexed": false,
          "internalType": "uint256",
          "name": "txId",
          "type": "uint256"
        },
        {
          "indexed": true,
          "internalType": "address",
          "name": "to",
          "type": "address"
        },
        {
          "indexed": true,
          "internalType": "address",
          "name": "toToken",
          "type": "address"
        },
        {
          "indexed": false,
          "internalType": "uint256",
          "name": "amount",
          "type": "uint256"
        }
      ],
      "name": "SwapOut",
      "type": "event"
    },
    {
      "inputs": [],
      "name": "chainID",
      "outputs": [
        {
          "internalType": "uint256",
          "name": "",
          "type": "uint256"
        }
      ],
      "stateMutability": "view",
      "type": "function"
    },
    {
      "inputs": [
        {
          "internalType": "address",
          "name": "_weth",
          "type": "address"
        },
        {
          "internalType": "address",
          "name": "_usdt",
          "type": "address"
        },
        {
          "internalType": "address",
          "name": "_router",
          "type": "address"
        },
        {
          "internalType": "address",
          "name": "_treasury",
          "type": "address"
        }
      ],
      "name": "initialize",
      "outputs": [],
      "stateMutability": "nonpayable",
      "type": "function"
    },
    {
      "inputs": [],
      "name": "owner",
      "outputs": [
        {
          "internalType": "address",
          "name": "",
          "type": "address"
        }
      ],
      "stateMutability": "view",
      "type": "function"
    },
    {
      "inputs": [],
      "name": "renounceOwnership",
      "outputs": [],
      "stateMutability": "nonpayable",
      "type": "function"
    },
    {
      "inputs": [],
      "name": "router",
      "outputs": [
        {
          "internalType": "address",
          "name": "",
          "type": "address"
        }
      ],
      "stateMutability": "view",
      "type": "function"
    },
    {
      "inputs": [
        {
          "internalType": "uint256",
          "name": "cID",
          "type": "uint256"
        },
        {
          "internalType": "bool",
          "name": "status",
          "type": "bool"
        }
      ],
      "name": "setChainStatus",
      "outputs": [],
      "stateMutability": "nonpayable",
      "type": "function"
    },
    {
      "inputs": [
        {
          "internalType": "address",
          "name": "_router",
          "type": "address"
        }
      ],
      "name": "setRouterAddress",
      "outputs": [],
      "stateMutability": "nonpayable",
      "type": "function"
    },
    {
      "inputs": [
        {
          "internalType": "address",
          "name": "token",
          "type": "address"
        },
        {
          "internalType": "bool",
          "name": "status",
          "type": "bool"
        }
      ],
      "name": "setTokenStatus",
      "outputs": [],
      "stateMutability": "nonpayable",
      "type": "function"
    },
    {
      "inputs": [
        {
          "internalType": "address",
          "name": "_treasury",
          "type": "address"
        }
      ],
      "name": "setTreasuryAddress",
      "outputs": [],
      "stateMutability": "nonpayable",
      "type": "function"
    },
    {
      "inputs": [
        {
          "internalType": "address",
          "name": "_usdt",
          "type": "address"
        }
      ],
      "name": "setUsdtAddress",
      "outputs": [],
      "stateMutability": "nonpayable",
      "type": "function"
    },
    {
      "inputs": [
        {
          "internalType": "address",
          "name": "_weth",
          "type": "address"
        }
      ],
      "name": "setWethAddress",
      "outputs": [],
      "stateMutability": "nonpayable",
      "type": "function"
    },
    {
      "inputs": [
        {
          "internalType": "uint256",
          "name": "toCID",
          "type": "uint256"
        },
        {
          "internalType": "address",
          "name": "toToken",
          "type": "address"
        },
        {
          "internalType": "address",
          "name": "toAddress",
          "type": "address"
        },
        {
          "internalType": "uint256",
          "name": "deadline",
          "type": "uint256"
        }
      ],
      "name": "swapInNative",
      "outputs": [],
      "stateMutability": "payable",
      "type": "function"
    },
    {
      "inputs": [
        {
          "internalType": "address",
          "name": "fromToken",
          "type": "address"
        },
        {
          "internalType": "uint256",
          "name": "amount",
          "type": "uint256"
        },
        {
          "internalType": "uint256",
          "name": "toCID",
          "type": "uint256"
        },
        {
          "internalType": "address",
          "name": "toToken",
          "type": "address"
        },
        {
          "internalType": "address",
          "name": "toAddress",
          "type": "address"
        },
        {
          "internalType": "uint256",
          "name": "deadline",
          "type": "uint256"
        }
      ],
      "name": "swapInToken",
      "outputs": [],
      "stateMutability": "nonpayable",
      "type": "function"
    },
    {
      "inputs": [
        {
          "internalType": "uint256",
          "name": "tID",
          "type": "uint256"
        },
        {
          "internalType": "address",
          "name": "toAddress",
          "type": "address"
        },
        {
          "internalType": "uint256",
          "name": "amount",
          "type": "uint256"
        },
        {
          "internalType": "uint256",
          "name": "deadline",
          "type": "uint256"
        }
      ],
      "name": "swapOutNative",
      "outputs": [],
      "stateMutability": "nonpayable",
      "type": "function"
    },
    {
      "inputs": [
        {
          "internalType": "uint256",
          "name": "tID",
          "type": "uint256"
        },
        {
          "internalType": "address",
          "name": "toToken",
          "type": "address"
        },
        {
          "internalType": "address",
          "name": "toAddress",
          "type": "address"
        },
        {
          "internalType": "uint256",
          "name": "amount",
          "type": "uint256"
        },
        {
          "internalType": "uint256",
          "name": "deadline",
          "type": "uint256"
        }
      ],
      "name": "swapOutToken",
      "outputs": [],
      "stateMutability": "nonpayable",
      "type": "function"
    },
    {
      "inputs": [
        {
          "internalType": "address",
          "name": "newOwner",
          "type": "address"
        }
      ],
      "name": "transferOwnership",
      "outputs": [],
      "stateMutability": "nonpayable",
      "type": "function"
    },
    {
      "inputs": [],
      "name": "treasury",
      "outputs": [
        {
          "internalType": "address",
          "name": "",
          "type": "address"
        }
      ],
      "stateMutability": "view",
      "type": "function"
    },
    {
      "inputs": [],
      "name": "usdt",
      "outputs": [
        {
          "internalType": "address",
          "name": "",
          "type": "address"
        }
      ],
      "stateMutability": "view",
      "type": "function"
    },
    {
      "inputs": [],
      "name": "weth",
      "outputs": [
        {
          "internalType": "address",
          "name": "",
          "type": "address"
        }
      ],
      "stateMutability": "view",
      "type": "function"
    },
    {
      "stateMutability": "payable",
      "type": "receive"
    }
  ],
  "bytecode": "0x608060405234801561001057600080fd5b506120d0806100206000396000f3fe6080604052600436106101185760003560e01c80636605bfda116100a0578063bc5f0baa11610064578063bc5f0baa146102e4578063f2fde38b14610304578063f887ea4014610324578063f8c8765e14610344578063fc46b8b0146103645761011f565b80636605bfda14610256578063715018a6146102765780638da5cb5b1461028b578063a96e2423146102a9578063adc879e9146102c95761011f565b80633fc8cef3116100e75780633fc8cef3146101b657806341cb87fc146101d657806349e41efe146101f65780634cd735481461021657806361d027b3146102365761011f565b80630cb46b751461012457806326218b01146101465780632c5c169a146101665780632f48ab7d146101795761011f565b3661011f57005b600080fd5b34801561013057600080fd5b5061014461013f366004611acf565b610384565b005b34801561015257600080fd5b50610144610161366004611d06565b6103dd565b610144610174366004611cc3565b61094b565b34801561018557600080fd5b50606654610199906001600160a01b031681565b6040516001600160a01b0390911681526020015b60405180910390f35b3480156101c257600080fd5b50606554610199906001600160a01b031681565b3480156101e257600080fd5b506101446101f1366004611acf565b610cc3565b34801561020257600080fd5b50610144610211366004611b72565b610d13565b34801561022257600080fd5b50610144610231366004611b3c565b61124a565b34801561024257600080fd5b50606854610199906001600160a01b031681565b34801561026257600080fd5b50610144610271366004611acf565b6112e8565b34801561028257600080fd5b50610144611338565b34801561029757600080fd5b506033546001600160a01b0316610199565b3480156102b557600080fd5b506101446102c4366004611acf565b61134c565b3480156102d557600080fd5b506040514681526020016101ad565b3480156102f057600080fd5b506101446102ff366004611d53565b61139c565b34801561031057600080fd5b5061014461031f366004611acf565b61167e565b34801561033057600080fd5b50606754610199906001600160a01b031681565b34801561035057600080fd5b5061014461035f366004611ae9565b6116f7565b34801561037057600080fd5b5061014461037f366004611d8d565b611905565b61038c61198c565b6001600160a01b0381166103bb5760405162461bcd60e51b81526004016103b290611f8e565b60405180910390fd5b606680546001600160a01b0319166001600160a01b0392909216919091179055565b6103e561198c565b6001600160a01b0384166000908152606a602052604090205460ff1615156001146104225760405162461bcd60e51b81526004016103b290611e73565b6001600160a01b0383166104485760405162461bcd60e51b81526004016103b290611efa565b600082116104685760405162461bcd60e51b81526004016103b290611eb6565b606754604051630e27b14f60e31b8152600481018490526001600160a01b039091169063713d8a7890602401600060405180830381600087803b1580156104ae57600080fd5b505af11580156104c2573d6000803e3d6000fd5b50506066546001600160a01b038781169116141591506105c49050576066546068546040516323b872dd60e01b81526001600160a01b03928316926323b872dd926105169291169087908790600401611df4565b602060405180830381600087803b15801561053057600080fd5b505af1158015610544573d6000803e3d6000fd5b505050506040513d601f19601f820116820180604052508101906105689190611c8f565b50836001600160a01b0316836001600160a01b03167f791a9c7365da700dd25d72c19bf2a1bbaf80fd3b787b772e4117181c9dae85d787856040516105b7929190918252602082015260400190565b60405180910390a3610944565b6066546060805190916001600160a01b03169082906000906105f657634e487b7160e01b600052603260045260246000fd5b60200260200101906001600160a01b031690816001600160a01b031681525050848160018151811061063857634e487b7160e01b600052603260045260246000fd5b6001600160a01b0392831660209182029290920101526066546068546040516323b872dd60e01b8152918316926323b872dd9261067f929091169030908890600401611df4565b602060405180830381600087803b15801561069957600080fd5b505af11580156106ad573d6000803e3d6000fd5b505050506040513d601f19601f820116820180604052508101906106d19190611c8f565b506040516370a0823160e01b81523060048201526000906001600160a01b038716906370a082319060240160206040518083038186803b15801561071457600080fd5b505afa158015610728573d6000803e3d6000fd5b505050506040513d601f19601f8201168201806040525081019061074c9190611cab565b6067546040516338ed173960e01b81529192506001600160a01b0316906338ed173990610786908790600090879030908a90600401612017565b600060405180830381600087803b1580156107a057600080fd5b505af11580156107b4573d6000803e3d6000fd5b505050506040513d6000823e601f3d908101601f191682016040526107dc9190810190611bd0565b506040516370a0823160e01b81523060048201526000906001600160a01b038816906370a082319060240160206040518083038186803b15801561081f57600080fd5b505afa158015610833573d6000803e3d6000fd5b505050506040513d601f19601f820116820180604052508101906108579190611cab565b9050600061086582846119e6565b60405163a9059cbb60e01b8152336004820152602481018290529091506001600160a01b0389169063a9059cbb90604401602060405180830381600087803b1580156108b057600080fd5b505af11580156108c4573d6000803e3d6000fd5b505050506040513d601f19601f820116820180604052508101906108e89190611c8f565b50876001600160a01b0316876001600160a01b03167f791a9c7365da700dd25d72c19bf2a1bbaf80fd3b787b772e4117181c9dae85d78b84604051610937929190918252602082015260400190565b60405180910390a3505050505b5050505050565b60008481526069602052604090205460ff16151560011461097e5760405162461bcd60e51b81526004016103b290611fd4565b6001600160a01b0382166109a45760405162461bcd60e51b81526004016103b290611efa565b600034116109c45760405162461bcd60e51b81526004016103b290611eb6565b6065546060805190916001600160a01b03169082906000906109f657634e487b7160e01b600052603260045260246000fd5b6001600160a01b039283166020918202929092010152606654825191169082906001908110610a3557634e487b7160e01b600052603260045260246000fd5b6001600160a01b0392831660209182029290920101526066546040516370a0823160e01b815230600482015260009291909116906370a082319060240160206040518083038186803b158015610a8a57600080fd5b505afa158015610a9e573d6000803e3d6000fd5b505050506040513d601f19601f82011682018060405250810190610ac29190611cab565b606754604051637ff36ab560e01b81529192506001600160a01b031690637ff36ab5903490610afc90600090879030908a90600401611e3e565b6000604051808303818588803b158015610b1557600080fd5b505af1158015610b29573d6000803e3d6000fd5b50505050506040513d6000823e601f3d908101601f19168201604052610b529190810190611bd0565b506066546040516370a0823160e01b81523060048201526000916001600160a01b0316906370a082319060240160206040518083038186803b158015610b9757600080fd5b505afa158015610bab573d6000803e3d6000fd5b505050506040513d601f19601f82011682018060405250810190610bcf9190611cab565b90506000610bdd82846119e6565b60665460685460405163a9059cbb60e01b81526001600160a01b03918216600482015260248101849052929350169063a9059cbb90604401602060405180830381600087803b158015610c2f57600080fd5b505af1158015610c43573d6000803e3d6000fd5b505050506040513d601f19601f82011682018060405250810190610c679190611c8f565b506065546040516001600160a01b03808a1692169033907f248184627dcdde41ea6c6391785404b9b8fad00076baccab9c0fce7fb5056a6390610cb1908b9046908f908990611e18565b60405180910390a45050505050505050565b610ccb61198c565b6001600160a01b038116610cf15760405162461bcd60e51b81526004016103b290611f8e565b606780546001600160a01b0319166001600160a01b0392909216919091179055565b60008481526069602052604090205460ff161515600114610d465760405162461bcd60e51b81526004016103b290611fd4565b6001600160a01b0386166000908152606a602052604090205460ff161515600114610d835760405162461bcd60e51b81526004016103b290611e73565b6001600160a01b038216610da95760405162461bcd60e51b81526004016103b290611efa565b60008511610dc95760405162461bcd60e51b81526004016103b290611eb6565b6066546001600160a01b0387811691161415610ecb576066546068546040516323b872dd60e01b81526001600160a01b03928316926323b872dd92610e18923392909116908a90600401611df4565b602060405180830381600087803b158015610e3257600080fd5b505af1158015610e46573d6000803e3d6000fd5b505050506040513d601f19601f82011682018060405250810190610e6a9190611c8f565b50826001600160a01b0316866001600160a01b0316336001600160a01b03167f248184627dcdde41ea6c6391785404b9b8fad00076baccab9c0fce7fb5056a638546898b604051610ebe9493929190611e18565b60405180910390a4611242565b60608681600081518110610eef57634e487b7160e01b600052603260045260246000fd5b6001600160a01b039283166020918202929092010152606654825191169082906001908110610f2e57634e487b7160e01b600052603260045260246000fd5b6001600160a01b0392831660209182029290920101526040516323b872dd60e01b8152908816906323b872dd90610f6d90339030908b90600401611df4565b602060405180830381600087803b158015610f8757600080fd5b505af1158015610f9b573d6000803e3d6000fd5b505050506040513d601f19601f82011682018060405250810190610fbf9190611c8f565b506066546040516370a0823160e01b81523060048201526000916001600160a01b0316906370a082319060240160206040518083038186803b15801561100457600080fd5b505afa158015611018573d6000803e3d6000fd5b505050506040513d601f19601f8201168201806040525081019061103c9190611cab565b6067546040516338ed173960e01b81529192506001600160a01b0316906338ed173990611076908a90600090879030908a90600401612017565b600060405180830381600087803b15801561109057600080fd5b505af11580156110a4573d6000803e3d6000fd5b505050506040513d6000823e601f3d908101601f191682016040526110cc9190810190611bd0565b506066546040516370a0823160e01b81523060048201526000916001600160a01b0316906370a082319060240160206040518083038186803b15801561111157600080fd5b505afa158015611125573d6000803e3d6000fd5b505050506040513d601f19601f820116820180604052508101906111499190611cab565b9050600061115782846119e6565b60665460685460405163a9059cbb60e01b81526001600160a01b03918216600482015260248101849052929350169063a9059cbb90604401602060405180830381600087803b1580156111a957600080fd5b505af11580156111bd573d6000803e3d6000fd5b505050506040513d601f19601f820116820180604052508101906111e19190611c8f565b50866001600160a01b03168a6001600160a01b0316336001600160a01b03167f248184627dcdde41ea6c6391785404b9b8fad00076baccab9c0fce7fb5056a6389468d876040516112359493929190611e18565b60405180910390a4505050505b505050505050565b61125261198c565b6001600160a01b0382166112bd5760405162461bcd60e51b815260206004820152602c60248201527f4265657377617020526f757465723a20546f6b656e206164647265737320697360448201526b081b9bdd0818dbdc9c9958dd60a21b60648201526084016103b2565b6001600160a01b03919091166000908152606a60205260409020805460ff1916911515919091179055565b6112f061198c565b6001600160a01b0381166113165760405162461bcd60e51b81526004016103b290611f8e565b606880546001600160a01b0319166001600160a01b0392909216919091179055565b61134061198c565b61134a60006119f9565b565b61135461198c565b6001600160a01b03811661137a5760405162461bcd60e51b81526004016103b290611f8e565b606580546001600160a01b0319166001600160a01b0392909216919091179055565b6113a461198c565b6001600160a01b0383166113ca5760405162461bcd60e51b81526004016103b290611efa565b600082116113ea5760405162461bcd60e51b81526004016103b290611eb6565b6066546060805190916001600160a01b031690829060009061141c57634e487b7160e01b600052603260045260246000fd5b6001600160a01b03928316602091820292909201015260655482519116908290600190811061145b57634e487b7160e01b600052603260045260246000fd5b6001600160a01b039283166020918202929092010152606754604051630e27b14f60e31b81526004810186905291169063713d8a7890602401600060405180830381600087803b1580156114ae57600080fd5b505af11580156114c2573d6000803e3d6000fd5b50506066546068546040516323b872dd60e01b81526001600160a01b0392831694506323b872dd93506114ff929091169030908890600401611df4565b602060405180830381600087803b15801561151957600080fd5b505af115801561152d573d6000803e3d6000fd5b505050506040513d601f19601f820116820180604052508101906115519190611c8f565b506067546040516318cbafe560e01b815247916001600160a01b0316906318cbafe59061158b908790600090879030908a90600401612017565b600060405180830381600087803b1580156115a557600080fd5b505af11580156115b9573d6000803e3d6000fd5b505050506040513d6000823e601f3d908101601f191682016040526115e19190810190611bd0565b504760006115ef82846119e6565b6040519091506001600160a01b0388169082156108fc029083906000818181858888f19350505050158015611628573d6000803e3d6000fd5b50606554604080518a8152602081018490526001600160a01b03928316928a16917f791a9c7365da700dd25d72c19bf2a1bbaf80fd3b787b772e4117181c9dae85d7910160405180910390a35050505050505050565b61168661198c565b6001600160a01b0381166116eb5760405162461bcd60e51b815260206004820152602660248201527f4f776e61626c653a206e6577206f776e657220697320746865207a65726f206160448201526564647265737360d01b60648201526084016103b2565b6116f4816119f9565b50565b600054610100900460ff16158080156117175750600054600160ff909116105b80611738575061172630611a4b565b158015611738575060005460ff166001145b61179b5760405162461bcd60e51b815260206004820152602e60248201527f496e697469616c697a61626c653a20636f6e747261637420697320616c72656160448201526d191e481a5b9a5d1a585b1a5e995960921b60648201526084016103b2565b6000805460ff1916600117905580156117be576000805461ff0019166101001790555b6001600160a01b038516158015906117de57506001600160a01b03841615155b80156117f257506001600160a01b03831615155b801561180657506001600160a01b03821615155b6118675760405162461bcd60e51b815260206004820152602c60248201527f4265657377617020526f757465723a205072616d732063616e2774206265207a60448201526b32b9379030b2323932b9b99760a11b60648201526084016103b2565b61186f611a5e565b606580546001600160a01b038088166001600160a01b031992831617909255606680548784169083161790556067805486841690831617905560688054928516929091169190911790558015610944576000805461ff0019169055604051600181527f7f26b83ff96e1f2b6a682f133852f6798a09c465da95921460cefb38474024989060200160405180910390a15050505050565b61190d61198c565b6000821161196c5760405162461bcd60e51b815260206004820152602660248201527f4265657377617020526f757465723a20436861696e2049442063616e2774206260448201526565207a65726f60d01b60648201526084016103b2565b600091825260696020526040909120805460ff1916911515919091179055565b6033546001600160a01b0316331461134a5760405162461bcd60e51b815260206004820181905260248201527f4f776e61626c653a2063616c6c6572206973206e6f7420746865206f776e657260448201526064016103b2565b60006119f28284612053565b9392505050565b603380546001600160a01b038381166001600160a01b0319831681179093556040519116919082907f8be0079c531659141344cd1fd0a4f28419497f9722a3daafe3b4186f6b6457e090600090a35050565b6001600160a01b0381163b15155b919050565b600054610100900460ff16611a855760405162461bcd60e51b81526004016103b290611f43565b61134a600054610100900460ff16611aaf5760405162461bcd60e51b81526004016103b290611f43565b61134a336119f9565b80356001600160a01b0381168114611a5957600080fd5b600060208284031215611ae0578081fd5b6119f282611ab8565b60008060008060808587031215611afe578283fd5b611b0785611ab8565b9350611b1560208601611ab8565b9250611b2360408601611ab8565b9150611b3160608601611ab8565b905092959194509250565b60008060408385031215611b4e578182fd5b611b5783611ab8565b91506020830135611b678161208c565b809150509250929050565b60008060008060008060c08789031215611b8a578182fd5b611b9387611ab8565b95506020870135945060408701359350611baf60608801611ab8565b9250611bbd60808801611ab8565b915060a087013590509295509295509295565b60006020808385031215611be2578182fd5b825167ffffffffffffffff80821115611bf9578384fd5b818501915085601f830112611c0c578384fd5b815181811115611c1e57611c1e612076565b838102604051601f19603f83011681018181108582111715611c4257611c42612076565b604052828152858101935084860182860187018a1015611c60578788fd5b8795505b83861015611c82578051855260019590950194938601938601611c64565b5098975050505050505050565b600060208284031215611ca0578081fd5b81516119f28161208c565b600060208284031215611cbc578081fd5b5051919050565b60008060008060808587031215611cd8578384fd5b84359350611ce860208601611ab8565b9250611cf660408601611ab8565b9396929550929360600135925050565b600080600080600060a08688031215611d1d578081fd5b85359450611d2d60208701611ab8565b9350611d3b60408701611ab8565b94979396509394606081013594506080013592915050565b60008060008060808587031215611d68578384fd5b84359350611d7860208601611ab8565b93969395505050506040820135916060013590565b60008060408385031215611d9f578182fd5b823591506020830135611b678161208c565b6000815180845260208085019450808401835b83811015611de95781516001600160a01b031687529582019590820190600101611dc4565b509495945050505050565b6001600160a01b039384168152919092166020820152604081019190915260600190565b6001600160a01b0394909416845260208401929092526040830152606082015260800190565b600085825260806020830152611e576080830186611db1565b6001600160a01b03949094166040830152506060015292915050565b60208082526023908201527f4265657377617020526f757465723a204e6f7420737570706f7274656420746f60408201526235b2b760e91b606082015260800190565b60208082526024908201527f4265657377617020526f757465723a20416d6f756e742063616e2774206265206040820152637a65726f60e01b606082015260800190565b60208082526029908201527f4265657377617020526f757465723a20546f2061646472657373206973206e6f6040820152681d0818dbdc9c9958dd60ba1b606082015260800190565b6020808252602b908201527f496e697469616c697a61626c653a20636f6e7472616374206973206e6f74206960408201526a6e697469616c697a696e6760a81b606082015260800190565b60208082526026908201527f4265657377617020526f757465723a2041646472657373206973206e6f7420636040820152651bdc9c9958dd60d21b606082015260800190565b60208082526023908201527f4265657377617020526f757465723a204e6f7420737570706f7274656420636860408201526230b4b760e91b606082015260800190565b600086825285602083015260a0604083015261203660a0830186611db1565b6001600160a01b0394909416606083015250608001529392505050565b60008282101561207157634e487b7160e01b81526011600452602481fd5b500390565b634e487b7160e01b600052604160045260246000fd5b80151581146116f457600080fdfea2646970667358221220a29ada2378a31d477855a695bcdb6fd617e3749d8e2b20e1df2b8afb4dccd21b64736f6c63430008020033",
  "linkReferences": {},
  "deployedLinkReferences": {}
}