{
  "_format": "hh-sol-artifact-1",
  "contractName": "BeeswapTreasury",
  "sourceName": "contracts/BeeswapTreasury.sol",
  "abi": [
    {
      "anonymous": false,
      "inputs": [
        {
          "indexed": true,
          "internalType": "address",
          "name": "to",
          "type": "address"
        },
        {
          "indexed": false,
          "internalType": "uint256",
          "name": "amount",
          "type": "uint256"
        }
      ],
      "name": "Claim",
      "type": "event"
    },
    {
      "anonymous": false,
      "inputs": [
        {
          "indexed": true,
          "internalType": "address",
          "name": "from",
          "type": "address"
        },
        {
          "indexed": false,
          "internalType": "uint256",
          "name": "amount",
          "type": "uint256"
        }
      ],
      "name": "Deposit",
      "type": "event"
    },
    {
      "anonymous": false,
      "inputs": [
        {
          "indexed": false,
          "internalType": "uint8",
          "name": "version",
          "type": "uint8"
        }
      ],
      "name": "Initialized",
      "type": "event"
    },
    {
      "anonymous": false,
      "inputs": [
        {
          "indexed": true,
          "internalType": "address",
          "name": "previousOwner",
          "type": "address"
        },
        {
          "indexed": true,
          "internalType": "address",
          "name": "newOwner",
          "type": "address"
        }
      ],
      "name": "OwnershipTransferred",
      "type": "event"
    },
    {
      "anonymous": false,
      "inputs": [
        {
          "indexed": true,
          "internalType": "address",
          "name": "to",
          "type": "address"
        },
        {
          "indexed": false,
          "internalType": "uint256",
          "name": "amount",
          "type": "uint256"
        }
      ],
      "name": "Withdraw",
      "type": "event"
    },
    {
      "inputs": [
        {
          "internalType": "uint256",
          "name": "amount",
          "type": "uint256"
        }
      ],
      "name": "approveToRouter",
      "outputs": [],
      "stateMutability": "nonpayable",
      "type": "function"
    },
    {
      "inputs": [],
      "name": "claim",
      "outputs": [],
      "stateMutability": "nonpayable",
      "type": "function"
    },
    {
      "inputs": [
        {
          "internalType": "uint256",
          "name": "amount",
          "type": "uint256"
        }
      ],
      "name": "deposit",
      "outputs": [],
      "stateMutability": "nonpayable",
      "type": "function"
    },
    {
      "inputs": [
        {
          "internalType": "address",
          "name": "_usdt",
          "type": "address"
        }
      ],
      "name": "initialize",
      "outputs": [],
      "stateMutability": "nonpayable",
      "type": "function"
    },
    {
      "inputs": [],
      "name": "owner",
      "outputs": [
        {
          "internalType": "address",
          "name": "",
          "type": "address"
        }
      ],
      "stateMutability": "view",
      "type": "function"
    },
    {
      "inputs": [],
      "name": "renounceOwnership",
      "outputs": [],
      "stateMutability": "nonpayable",
      "type": "function"
    },
    {
      "inputs": [],
      "name": "router",
      "outputs": [
        {
          "internalType": "address",
          "name": "",
          "type": "address"
        }
      ],
      "stateMutability": "view",
      "type": "function"
    },
    {
      "inputs": [
        {
          "internalType": "address",
          "name": "_router",
          "type": "address"
        }
      ],
      "name": "setRouterAddress",
      "outputs": [],
      "stateMutability": "nonpayable",
      "type": "function"
    },
    {
      "inputs": [
        {
          "internalType": "address",
          "name": "_usdt",
          "type": "address"
        }
      ],
      "name": "setUsdtAddress",
      "outputs": [],
      "stateMutability": "nonpayable",
      "type": "function"
    },
    {
      "inputs": [
        {
          "internalType": "address",
          "name": "newOwner",
          "type": "address"
        }
      ],
      "name": "transferOwnership",
      "outputs": [],
      "stateMutability": "nonpayable",
      "type": "function"
    },
    {
      "inputs": [],
      "name": "usdt",
      "outputs": [
        {
          "internalType": "address",
          "name": "",
          "type": "address"
        }
      ],
      "stateMutability": "view",
      "type": "function"
    },
    {
      "inputs": [
        {
          "internalType": "address",
          "name": "",
          "type": "address"
        }
      ],
      "name": "userInfoList",
      "outputs": [
        {
          "internalType": "uint256",
          "name": "depositAmount",
          "type": "uint256"
        },
        {
          "internalType": "uint256",
          "name": "pendingReward",
          "type": "uint256"
        },
        {
          "internalType": "uint256",
          "name": "claimedReward",
          "type": "uint256"
        },
        {
          "internalType": "bool",
          "name": "status",
          "type": "bool"
        }
      ],
      "stateMutability": "view",
      "type": "function"
    },
    {
      "inputs": [
        {
          "internalType": "uint256",
          "name": "",
          "type": "uint256"
        }
      ],
      "name": "userList",
      "outputs": [
        {
          "internalType": "address",
          "name": "",
          "type": "address"
        }
      ],
      "stateMutability": "view",
      "type": "function"
    },
    {
      "inputs": [
        {
          "internalType": "uint256",
          "name": "amount",
          "type": "uint256"
        }
      ],
      "name": "withdraw",
      "outputs": [],
      "stateMutability": "nonpayable",
      "type": "function"
    },
    {
      "stateMutability": "payable",
      "type": "receive"
    }
  ],
  "bytecode": "0x608060405234801561001057600080fd5b50610e97806100206000396000f3fe6080604052600436106100e15760003560e01c8063715018a61161007f578063b6b55f2511610059578063b6b55f251461027b578063c4d66de81461029b578063f2fde38b146102bb578063f887ea40146102db576100e8565b8063715018a6146102285780638da5cb5b1461023d5780639f4216e81461025b576100e8565b80634081dd20116100bb5780634081dd201461016c57806341cb87fc146101d35780634e71d92d146101f3578063713d8a7814610208576100e8565b80630cb46b75146100ed5780632e1a7d4d1461010f5780632f48ab7d1461012f576100e8565b366100e857005b600080fd5b3480156100f957600080fd5b5061010d610108366004610ccf565b6102fb565b005b34801561011b57600080fd5b5061010d61012a366004610d16565b610354565b34801561013b57600080fd5b5060655461014f906001600160a01b031681565b6040516001600160a01b0390911681526020015b60405180910390f35b34801561017857600080fd5b506101b1610187366004610ccf565b60686020526000908152604090208054600182015460028301546003909301549192909160ff1684565b6040805194855260208501939093529183015215156060820152608001610163565b3480156101df57600080fd5b5061010d6101ee366004610ccf565b61051e565b3480156101ff57600080fd5b5061010d61056e565b34801561021457600080fd5b5061010d610223366004610d16565b6106db565b34801561023457600080fd5b5061010d6107f9565b34801561024957600080fd5b506033546001600160a01b031661014f565b34801561026757600080fd5b5061014f610276366004610d16565b61080d565b34801561028757600080fd5b5061010d610296366004610d16565b610837565b3480156102a757600080fd5b5061010d6102b6366004610ccf565b610998565b3480156102c757600080fd5b5061010d6102d6366004610ccf565b610b31565b3480156102e757600080fd5b5060665461014f906001600160a01b031681565b610303610baa565b6001600160a01b0381166103325760405162461bcd60e51b815260040161032990610dd6565b60405180910390fd5b606580546001600160a01b0319166001600160a01b0392909216919091179055565b600081116103ca5760405162461bcd60e51b815260206004820152603960248201527f4265657377617020526f757465723a20576974686472617720616d6f756e742060448201527f6d7573742062652067726561746572207468616e207a65726f000000000000006064820152608401610329565b336000908152606860205260409020600381015460ff16151560011480156103f3575080548211155b6104515760405162461bcd60e51b815260206004820152602960248201527f4265657377617020526f757465723a205769746864726177616c20616d6f756e60448201526874206973207a65726f60b81b6064820152608401610329565b805461045d9083610c04565b815560655460405163a9059cbb60e01b8152336004820152602481018490526001600160a01b039091169063a9059cbb90604401602060405180830381600087803b1580156104ab57600080fd5b505af11580156104bf573d6000803e3d6000fd5b505050506040513d601f19601f820116820180604052508101906104e39190610cf6565b5060405182815233907f884edad9ce6fa2440d8a54cc123490eb96d2768479d49ff9c7366125a9424364906020015b60405180910390a25050565b610526610baa565b6001600160a01b03811661054c5760405162461bcd60e51b815260040161032990610dd6565b606680546001600160a01b0319166001600160a01b0392909216919091179055565b336000908152606860205260409020600381015460ff161515600114801561059a575060008160010154115b6105f75760405162461bcd60e51b815260206004820152602860248201527f4265657377617020526f757465723a20436c61696d61626c6520616d6f756e74604482015267206973207a65726f60c01b6064820152608401610329565b606554600182015460405163a9059cbb60e01b815233600482015260248101919091526001600160a01b039091169063a9059cbb90604401602060405180830381600087803b15801561064957600080fd5b505af115801561065d573d6000803e3d6000fd5b505050506040513d601f19601f820116820180604052508101906106819190610cf6565b50600060018201819055600282015461069991610c17565b6002820155600181015460405190815233907f884edad9ce6fa2440d8a54cc123490eb96d2768479d49ff9c7366125a94243649060200160405180910390a250565b6066546001600160a01b0316331461074d5760405162461bcd60e51b815260206004820152602f60248201527f426565737761702054726561737572793a2063616c6c6572206973206e6f742060448201526e1c9bdd5d195c8818dbdb9d1c9858dd608a1b6064820152608401610329565b6000811161076d5760405162461bcd60e51b815260040161032990610d2e565b60655460665460405163095ea7b360e01b81526001600160a01b0391821660048201526024810184905291169063095ea7b390604401602060405180830381600087803b1580156107bd57600080fd5b505af11580156107d1573d6000803e3d6000fd5b505050506040513d601f19601f820116820180604052508101906107f59190610cf6565b5050565b610801610baa565b61080b6000610c23565b565b6067818154811061081d57600080fd5b6000918252602090912001546001600160a01b0316905081565b600081116108575760405162461bcd60e51b815260040161032990610d2e565b6065546040516323b872dd60e01b8152336004820152306024820152604481018390526001600160a01b03909116906323b872dd90606401602060405180830381600087803b1580156108a957600080fd5b505af11580156108bd573d6000803e3d6000fd5b505050506040513d601f19601f820116820180604052508101906108e19190610cf6565b50336000908152606860205260409020600381015460ff166109575760678054600181810183556000929092527f9787eeb91fe3101235e4a76063c7023ecb40f923f97916639c598592fa30d6ae0180546001600160a01b0319163317905582825560038201805460ff19169091179055610966565b80546109639083610c17565b81555b60405182815233907fe1fffcc4923d04b559f4d29a8bfc6cda04eb5b0d3c460751c2402c5c5cc9109c90602001610512565b600054610100900460ff16158080156109b85750600054600160ff909116105b806109d25750303b1580156109d2575060005460ff166001145b610a355760405162461bcd60e51b815260206004820152602e60248201527f496e697469616c697a61626c653a20636f6e747261637420697320616c72656160448201526d191e481a5b9a5d1a585b1a5e995960921b6064820152608401610329565b6000805460ff191660011790558015610a58576000805461ff0019166101001790555b6001600160a01b038216610ac55760405162461bcd60e51b815260206004820152602e60248201527f426565737761702054726561737572793a205072616d732063616e277420626560448201526d103d32b9379030b2323932b9b99760911b6064820152608401610329565b610acd610c75565b606580546001600160a01b0319166001600160a01b03841617905580156107f5576000805461ff0019169055604051600181527f7f26b83ff96e1f2b6a682f133852f6798a09c465da95921460cefb38474024989060200160405180910390a15050565b610b39610baa565b6001600160a01b038116610b9e5760405162461bcd60e51b815260206004820152602660248201527f4f776e61626c653a206e6577206f776e657220697320746865207a65726f206160448201526564647265737360d01b6064820152608401610329565b610ba781610c23565b50565b6033546001600160a01b0316331461080b5760405162461bcd60e51b815260206004820181905260248201527f4f776e61626c653a2063616c6c6572206973206e6f7420746865206f776e65726044820152606401610329565b6000610c108284610e34565b9392505050565b6000610c108284610e1c565b603380546001600160a01b038381166001600160a01b0319831681179093556040519116919082907f8be0079c531659141344cd1fd0a4f28419497f9722a3daafe3b4186f6b6457e090600090a35050565b600054610100900460ff16610c9c5760405162461bcd60e51b815260040161032990610d8b565b61080b600054610100900460ff16610cc65760405162461bcd60e51b815260040161032990610d8b565b61080b33610c23565b600060208284031215610ce0578081fd5b81356001600160a01b0381168114610c10578182fd5b600060208284031215610d07578081fd5b81518015158114610c10578182fd5b600060208284031215610d27578081fd5b5035919050565b60208082526038908201527f4265657377617020526f757465723a204465706f73697420616d6f756e74206d60408201527f7573742062652067726561746572207468616e207a65726f0000000000000000606082015260800190565b6020808252602b908201527f496e697469616c697a61626c653a20636f6e7472616374206973206e6f74206960408201526a6e697469616c697a696e6760a81b606082015260800190565b60208082526026908201527f4265657377617020526f757465723a2041646472657373206973206e6f7420636040820152651bdc9c9958dd60d21b606082015260800190565b60008219821115610e2f57610e2f610e4b565b500190565b600082821015610e4657610e46610e4b565b500390565b634e487b7160e01b600052601160045260246000fdfea2646970667358221220ce3f8fe77404a496d46459180e482228782b0cb2d96dc9a3f3fb6d644fba164164736f6c63430008020033",
  "linkReferences": {},
  "deployedLinkReferences": {}
}