{
  "_format": "hh-sol-artifact-1",
  "contractName": "Usdt",
  "sourceName": "contracts/Usdt.sol",
  "abi": [
    {
      "constant": true,
      "inputs": [],
      "name": "name",
      "outputs": [
        {
          "name": "",
          "type": "string"
        }
      ],
      "payable": false,
      "stateMutability": "view",
      "type": "function"
    },
    {
      "constant": false,
      "inputs": [
        {
          "name": "_upgradedAddress",
          "type": "address"
        }
      ],
      "name": "deprecate",
      "outputs": [],
      "payable": false,
      "stateMutability": "nonpayable",
      "type": "function"
    },
    {
      "constant": false,
      "inputs": [
        {
          "name": "_spender",
          "type": "address"
        },
        {
          "name": "_value",
          "type": "uint256"
        }
      ],
      "name": "approve",
      "outputs": [],
      "payable": false,
      "stateMutability": "nonpayable",
      "type": "function"
    },
    {
      "constant": true,
      "inputs": [],
      "name": "deprecated",
      "outputs": [
        {
          "name": "",
          "type": "bool"
        }
      ],
      "payable": false,
      "stateMutability": "view",
      "type": "function"
    },
    {
      "constant": false,
      "inputs": [
        {
          "name": "_evilUser",
          "type": "address"
        }
      ],
      "name": "addBlackList",
      "outputs": [],
      "payable": false,
      "stateMutability": "nonpayable",
      "type": "function"
    },
    {
      "constant": true,
      "inputs": [],
      "name": "totalSupply",
      "outputs": [
        {
          "name": "",
          "type": "uint256"
        }
      ],
      "payable": false,
      "stateMutability": "view",
      "type": "function"
    },
    {
      "constant": false,
      "inputs": [
        {
          "name": "_from",
          "type": "address"
        },
        {
          "name": "_to",
          "type": "address"
        },
        {
          "name": "_value",
          "type": "uint256"
        }
      ],
      "name": "transferFrom",
      "outputs": [],
      "payable": false,
      "stateMutability": "nonpayable",
      "type": "function"
    },
    {
      "constant": true,
      "inputs": [],
      "name": "upgradedAddress",
      "outputs": [
        {
          "name": "",
          "type": "address"
        }
      ],
      "payable": false,
      "stateMutability": "view",
      "type": "function"
    },
    {
      "constant": true,
      "inputs": [
        {
          "name": "",
          "type": "address"
        }
      ],
      "name": "balances",
      "outputs": [
        {
          "name": "",
          "type": "uint256"
        }
      ],
      "payable": false,
      "stateMutability": "view",
      "type": "function"
    },
    {
      "constant": true,
      "inputs": [],
      "name": "decimals",
      "outputs": [
        {
          "name": "",
          "type": "uint256"
        }
      ],
      "payable": false,
      "stateMutability": "view",
      "type": "function"
    },
    {
      "constant": true,
      "inputs": [],
      "name": "maximumFee",
      "outputs": [
        {
          "name": "",
          "type": "uint256"
        }
      ],
      "payable": false,
      "stateMutability": "view",
      "type": "function"
    },
    {
      "constant": true,
      "inputs": [],
      "name": "_totalSupply",
      "outputs": [
        {
          "name": "",
          "type": "uint256"
        }
      ],
      "payable": false,
      "stateMutability": "view",
      "type": "function"
    },
    {
      "constant": false,
      "inputs": [],
      "name": "unpause",
      "outputs": [],
      "payable": false,
      "stateMutability": "nonpayable",
      "type": "function"
    },
    {
      "constant": true,
      "inputs": [
        {
          "name": "_maker",
          "type": "address"
        }
      ],
      "name": "getBlackListStatus",
      "outputs": [
        {
          "name": "",
          "type": "bool"
        }
      ],
      "payable": false,
      "stateMutability": "view",
      "type": "function"
    },
    {
      "constant": false,
      "inputs": [],
      "name": "TetherToken",
      "outputs": [],
      "payable": false,
      "stateMutability": "nonpayable",
      "type": "function"
    },
    {
      "constant": true,
      "inputs": [
        {
          "name": "",
          "type": "address"
        },
        {
          "name": "",
          "type": "address"
        }
      ],
      "name": "allowed",
      "outputs": [
        {
          "name": "",
          "type": "uint256"
        }
      ],
      "payable": false,
      "stateMutability": "view",
      "type": "function"
    },
    {
      "constant": true,
      "inputs": [],
      "name": "paused",
      "outputs": [
        {
          "name": "",
          "type": "bool"
        }
      ],
      "payable": false,
      "stateMutability": "view",
      "type": "function"
    },
    {
      "constant": true,
      "inputs": [
        {
          "name": "who",
          "type": "address"
        }
      ],
      "name": "balanceOf",
      "outputs": [
        {
          "name": "",
          "type": "uint256"
        }
      ],
      "payable": false,
      "stateMutability": "view",
      "type": "function"
    },
    {
      "constant": false,
      "inputs": [],
      "name": "pause",
      "outputs": [],
      "payable": false,
      "stateMutability": "nonpayable",
      "type": "function"
    },
    {
      "constant": true,
      "inputs": [],
      "name": "getOwner",
      "outputs": [
        {
          "name": "",
          "type": "address"
        }
      ],
      "payable": false,
      "stateMutability": "view",
      "type": "function"
    },
    {
      "constant": true,
      "inputs": [],
      "name": "owner",
      "outputs": [
        {
          "name": "",
          "type": "address"
        }
      ],
      "payable": false,
      "stateMutability": "view",
      "type": "function"
    },
    {
      "constant": true,
      "inputs": [],
      "name": "symbol",
      "outputs": [
        {
          "name": "",
          "type": "string"
        }
      ],
      "payable": false,
      "stateMutability": "view",
      "type": "function"
    },
    {
      "constant": false,
      "inputs": [
        {
          "name": "_to",
          "type": "address"
        },
        {
          "name": "_value",
          "type": "uint256"
        }
      ],
      "name": "transfer",
      "outputs": [],
      "payable": false,
      "stateMutability": "nonpayable",
      "type": "function"
    },
    {
      "constant": false,
      "inputs": [
        {
          "name": "newBasisPoints",
          "type": "uint256"
        },
        {
          "name": "newMaxFee",
          "type": "uint256"
        }
      ],
      "name": "setParams",
      "outputs": [],
      "payable": false,
      "stateMutability": "nonpayable",
      "type": "function"
    },
    {
      "constant": false,
      "inputs": [
        {
          "name": "amount",
          "type": "uint256"
        }
      ],
      "name": "issue",
      "outputs": [],
      "payable": false,
      "stateMutability": "nonpayable",
      "type": "function"
    },
    {
      "constant": false,
      "inputs": [
        {
          "name": "amount",
          "type": "uint256"
        }
      ],
      "name": "redeem",
      "outputs": [],
      "payable": false,
      "stateMutability": "nonpayable",
      "type": "function"
    },
    {
      "constant": true,
      "inputs": [
        {
          "name": "_owner",
          "type": "address"
        },
        {
          "name": "_spender",
          "type": "address"
        }
      ],
      "name": "allowance",
      "outputs": [
        {
          "name": "remaining",
          "type": "uint256"
        }
      ],
      "payable": false,
      "stateMutability": "view",
      "type": "function"
    },
    {
      "constant": true,
      "inputs": [],
      "name": "basisPointsRate",
      "outputs": [
        {
          "name": "",
          "type": "uint256"
        }
      ],
      "payable": false,
      "stateMutability": "view",
      "type": "function"
    },
    {
      "constant": true,
      "inputs": [
        {
          "name": "",
          "type": "address"
        }
      ],
      "name": "isBlackListed",
      "outputs": [
        {
          "name": "",
          "type": "bool"
        }
      ],
      "payable": false,
      "stateMutability": "view",
      "type": "function"
    },
    {
      "constant": false,
      "inputs": [
        {
          "name": "_clearedUser",
          "type": "address"
        }
      ],
      "name": "removeBlackList",
      "outputs": [],
      "payable": false,
      "stateMutability": "nonpayable",
      "type": "function"
    },
    {
      "constant": true,
      "inputs": [],
      "name": "MAX_UINT",
      "outputs": [
        {
          "name": "",
          "type": "uint256"
        }
      ],
      "payable": false,
      "stateMutability": "view",
      "type": "function"
    },
    {
      "constant": false,
      "inputs": [
        {
          "name": "newOwner",
          "type": "address"
        }
      ],
      "name": "transferOwnership",
      "outputs": [],
      "payable": false,
      "stateMutability": "nonpayable",
      "type": "function"
    },
    {
      "constant": false,
      "inputs": [
        {
          "name": "_blackListedUser",
          "type": "address"
        }
      ],
      "name": "destroyBlackFunds",
      "outputs": [],
      "payable": false,
      "stateMutability": "nonpayable",
      "type": "function"
    },
    {
      "anonymous": false,
      "inputs": [
        {
          "indexed": false,
          "name": "amount",
          "type": "uint256"
        }
      ],
      "name": "Issue",
      "type": "event"
    },
    {
      "anonymous": false,
      "inputs": [
        {
          "indexed": false,
          "name": "amount",
          "type": "uint256"
        }
      ],
      "name": "Redeem",
      "type": "event"
    },
    {
      "anonymous": false,
      "inputs": [
        {
          "indexed": false,
          "name": "newAddress",
          "type": "address"
        }
      ],
      "name": "Deprecate",
      "type": "event"
    },
    {
      "anonymous": false,
      "inputs": [
        {
          "indexed": false,
          "name": "feeBasisPoints",
          "type": "uint256"
        },
        {
          "indexed": false,
          "name": "maxFee",
          "type": "uint256"
        }
      ],
      "name": "Params",
      "type": "event"
    },
    {
      "anonymous": false,
      "inputs": [
        {
          "indexed": false,
          "name": "_blackListedUser",
          "type": "address"
        },
        {
          "indexed": false,
          "name": "_balance",
          "type": "uint256"
        }
      ],
      "name": "DestroyedBlackFunds",
      "type": "event"
    },
    {
      "anonymous": false,
      "inputs": [
        {
          "indexed": false,
          "name": "_user",
          "type": "address"
        }
      ],
      "name": "AddedBlackList",
      "type": "event"
    },
    {
      "anonymous": false,
      "inputs": [
        {
          "indexed": false,
          "name": "_user",
          "type": "address"
        }
      ],
      "name": "RemovedBlackList",
      "type": "event"
    },
    {
      "anonymous": false,
      "inputs": [
        {
          "indexed": true,
          "name": "owner",
          "type": "address"
        },
        {
          "indexed": true,
          "name": "spender",
          "type": "address"
        },
        {
          "indexed": false,
          "name": "value",
          "type": "uint256"
        }
      ],
      "name": "Approval",
      "type": "event"
    },
    {
      "anonymous": false,
      "inputs": [
        {
          "indexed": true,
          "name": "from",
          "type": "address"
        },
        {
          "indexed": true,
          "name": "to",
          "type": "address"
        },
        {
          "indexed": false,
          "name": "value",
          "type": "uint256"
        }
      ],
      "name": "Transfer",
      "type": "event"
    },
    {
      "anonymous": false,
      "inputs": [],
      "name": "Pause",
      "type": "event"
    },
    {
      "anonymous": false,
      "inputs": [],
      "name": "Unpause",
      "type": "event"
    }
  ],
  "bytecode": "0x60606040526000805460038290556004829055600160a060020a033316600160a860020a03199091161790556117eb8061003a6000396000f300606060405236156101855763ffffffff60e060020a60003504166306fdde03811461018a5780630753c30c14610214578063095ea7b3146102355780630e136b19146102575780630ecb93c01461027e57806318160ddd1461029d57806323b872dd146102c257806326976e3f146102ea57806327e235e314610319578063313ce56714610338578063353907141461034b5780633eaaf86b1461035e5780633f4ba83a1461037157806359bf1abe146103845780635aeb45dc146103a35780635c658165146103b65780635c975abb146103db57806370a08231146103ee5780638456cb591461040d578063893d20e8146104205780638da5cb5b1461043357806395d89b4114610446578063a9059cbb14610459578063c0324c771461047b578063cc872b6614610494578063db006a75146104aa578063dd62ed3e146104c0578063dd644f72146104e5578063e47d6060146104f8578063e4997dc514610517578063e5b5019a14610536578063f2fde38b14610549578063f3bdc22814610568575b600080fd5b341561019557600080fd5b61019d610587565b60405160208082528190810183818151815260200191508051906020019080838360005b838110156101d95780820151838201526020016101c1565b50505050905090810190601f1680156102065780820380516001836020036101000a031916815260200191505b509250505060405180910390f35b341561021f57600080fd5b610233600160a060020a0360043516610625565b005b341561024057600080fd5b610233600160a060020a03600435166024356106c8565b341561026257600080fd5b61026a610775565b604051901515815260200160405180910390f35b341561028957600080fd5b610233600160a060020a0360043516610785565b34156102a857600080fd5b6102b0610805565b60405190815260200160405180910390f35b34156102cd57600080fd5b610233600160a060020a036004358116906024351660443561088c565b34156102f557600080fd5b6102fd610950565b604051600160a060020a03909116815260200160405180910390f35b341561032457600080fd5b6102b0600160a060020a036004351661095f565b341561034357600080fd5b6102b0610971565b341561035657600080fd5b6102b0610977565b341561036957600080fd5b6102b061097d565b341561037c57600080fd5b610233610983565b341561038f57600080fd5b61026a600160a060020a0360043516610a02565b34156103ae57600080fd5b610233610a24565b34156103c157600080fd5b6102b0600160a060020a0360043581169060243516610b18565b34156103e657600080fd5b61026a610b35565b34156103f957600080fd5b6102b0600160a060020a0360043516610b45565b341561041857600080fd5b610233610be5565b341561042b57600080fd5b6102fd610c69565b341561043e57600080fd5b6102fd610c78565b341561045157600080fd5b61019d610c87565b341561046457600080fd5b610233600160a060020a0360043516602435610cf2565b341561048657600080fd5b610233600435602435610dcb565b341561049f57600080fd5b610233600435610e61565b34156104b557600080fd5b610233600435610f10565b34156104cb57600080fd5b6102b0600160a060020a0360043581169060243516610fc1565b34156104f057600080fd5b6102b061106c565b341561050357600080fd5b61026a600160a060020a0360043516611072565b341561052257600080fd5b610233600160a060020a0360043516611087565b341561054157600080fd5b6102b0611104565b341561055457600080fd5b610233600160a060020a036004351661110a565b341561057357600080fd5b610233600160a060020a0360043516611160565b60078054600181600116156101000203166002900480601f01602080910402602001604051908101604052809291908181526020018280546001816001161561010002031660029004801561061d5780601f106105f25761010080835404028352916020019161061d565b820191906000526020600020905b81548152906001019060200180831161060057829003601f168201915b505050505081565b60005433600160a060020a0390811691161461064057600080fd5b600a805460a060020a74ff0000000000000000000000000000000000000000199091161773ffffffffffffffffffffffffffffffffffffffff1916600160a060020a0383161790557fcc358699805e9a8b7f77b522628c7cb9abd07d9efb86b6fb616af1609036a99e81604051600160a060020a03909116815260200160405180910390a150565b604060443610156106d857600080fd5b600a5460a060020a900460ff161561076657600a54600160a060020a031663aee92d3333858560405160e060020a63ffffffff8616028152600160a060020a0393841660048201529190921660248201526044810191909152606401600060405180830381600087803b151561074d57600080fd5b6102c65a03f1151561075e57600080fd5b505050610770565b610770838361121e565b505050565b600a5460a060020a900460ff1681565b60005433600160a060020a039081169116146107a057600080fd5b600160a060020a03811660009081526006602052604090819020805460ff191660011790557f42e160154868087d6bfdc0ca23d96a1c1cfa32f1b72ba9ba27b69b98a0d819dc90829051600160a060020a03909116815260200160405180910390a150565b600a5460009060a060020a900460ff161561088457600a54600160a060020a03166318160ddd6000604051602001526040518163ffffffff1660e060020a028152600401602060405180830381600087803b151561086257600080fd5b6102c65a03f1151561087357600080fd5b505050604051805190509050610889565b506001545b90565b60005460a060020a900460ff16156108a357600080fd5b600160a060020a03831660009081526006602052604090205460ff16156108c957600080fd5b600a5460a060020a900460ff161561094557600a54600160a060020a0316638b477adb3385858560405160e060020a63ffffffff8716028152600160a060020a0394851660048201529284166024840152921660448201526064810191909152608401600060405180830381600087803b151561074d57600080fd5b6107708383836112d0565b600a54600160a060020a031681565b60026020526000908152604090205481565b60095481565b60045481565b60015481565b60005433600160a060020a0390811691161461099e57600080fd5b60005460a060020a900460ff1615156109b657600080fd5b6000805474ff0000000000000000000000000000000000000000191690557f7805862f689e2f13df9f062ff482ad3ad112aca9e0847911ed832e158c525b3360405160405180910390a1565b600160a060020a03811660009081526006602052604090205460ff165b919050565b6f4b3b4ca85a86c47a098a22400000000060015560408051908101604052600481527f555344540000000000000000000000000000000000000000000000000000000060208201526007908051610a7f929160200190611707565b5060408051908101604052600481527f555344540000000000000000000000000000000000000000000000000000000060208201526008908051610ac7929160200190611707565b50600660095560008054600160a060020a031681526002602052604090206f4b3b4ca85a86c47a098a2240000000009055600a805474ff000000000000000000000000000000000000000019169055565b600560209081526000928352604080842090915290825290205481565b60005460a060020a900460ff1681565b600a5460009060a060020a900460ff1615610bd557600a54600160a060020a03166370a082318360006040516020015260405160e060020a63ffffffff8416028152600160a060020a039091166004820152602401602060405180830381600087803b1515610bb357600080fd5b6102c65a03f11515610bc457600080fd5b505050604051805190509050610a1f565b610bde826114cf565b9050610a1f565b60005433600160a060020a03908116911614610c0057600080fd5b60005460a060020a900460ff1615610c1757600080fd5b6000805474ff0000000000000000000000000000000000000000191660a060020a1790557f6985a02210a168e66602d3235cb6db0e70f92b3ba4d376a33c0f3d9434bff62560405160405180910390a1565b600054600160a060020a031690565b600054600160a060020a031681565b60088054600181600116156101000203166002900480601f01602080910402602001604051908101604052809291908181526020018280546001816001161561010002031660029004801561061d5780601f106105f25761010080835404028352916020019161061d565b60005460a060020a900460ff1615610d0957600080fd5b600160a060020a03331660009081526006602052604090205460ff1615610d2f57600080fd5b600a5460a060020a900460ff1615610dbd57600a54600160a060020a0316636e18980a33848460405160e060020a63ffffffff8616028152600160a060020a0393841660048201529190921660248201526044810191909152606401600060405180830381600087803b1515610da457600080fd5b6102c65a03f11515610db557600080fd5b505050610dc7565b610dc782826114ea565b5050565b60005433600160a060020a03908116911614610de657600080fd5b60148210610df357600080fd5b60328110610e0057600080fd5b6003829055600954610e1c908290600a0a63ffffffff61166e16565b60048190556003547fb044a1e409eac5c48e5af22d4af52670dd1a99059537a78b31b48c6500a6354e9160405191825260208201526040908101905180910390a15050565b60005433600160a060020a03908116911614610e7c57600080fd5b60015481810111610e8c57600080fd5b60008054600160a060020a031681526002602052604090205481810111610eb257600080fd5b60008054600160a060020a03168152600260205260409081902080548301905560018054830190557fcb8241adb0c3fdb35b70c24ce35c5eb0c17af7431c99f827d44a445ca624176a9082905190815260200160405180910390a150565b60005433600160a060020a03908116911614610f2b57600080fd5b60015481901015610f3b57600080fd5b60008054600160a060020a031681526002602052604090205481901015610f6157600080fd5b60018054829003905560008054600160a060020a031681526002602052604090819020805483900390557f702d5967f45f6513a38ffc42d6ba9bf230bd40e8f53b16363c7eb4fd2deb9a449082905190815260200160405180910390a150565b600a5460009060a060020a900460ff161561105957600a54600160a060020a031663dd62ed3e848460006040516020015260405160e060020a63ffffffff8516028152600160a060020a03928316600482015291166024820152604401602060405180830381600087803b151561103757600080fd5b6102c65a03f1151561104857600080fd5b505050604051805190509050611066565b61106383836116a4565b90505b92915050565b60035481565b60066020526000908152604090205460ff1681565b60005433600160a060020a039081169116146110a257600080fd5b600160a060020a03811660009081526006602052604090819020805460ff191690557fd7e9ec6e6ecd65492dce6bf513cd6867560d49544421d0783ddf06e76c24470c90829051600160a060020a03909116815260200160405180910390a150565b60001981565b60005433600160a060020a0390811691161461112557600080fd5b600160a060020a0381161561115d576000805473ffffffffffffffffffffffffffffffffffffffff1916600160a060020a0383161790555b50565b6000805433600160a060020a0390811691161461117c57600080fd5b600160a060020a03821660009081526006602052604090205460ff1615156111a357600080fd5b6111ac82610b45565b600160a060020a038316600090815260026020526040808220919091556001805483900390559091507f61e6e66b0d6339b2980aecc6ccc0039736791f0ccde9ed512e789a7fbdd698c6908390839051600160a060020a03909216825260208201526040908101905180910390a15050565b6040604436101561122e57600080fd5b81158015906112615750600160a060020a0333811660009081526005602090815260408083209387168352929052205415155b1561126b57600080fd5b600160a060020a03338116600081815260056020908152604080832094881680845294909152908190208590557f8c5be1e5ebec7d5bd14f71427d1e84f3dd0314c0f7b2291e5b200ac8c7c3b9259085905190815260200160405180910390a3505050565b60008080606060643610156112e457600080fd5b600160a060020a0380881660009081526005602090815260408083203390941683529290522054600354909450611336906127109061132a90889063ffffffff61166e16565b9063ffffffff6116cf16565b92506004548311156113485760045492505b60001984101561138a57611362848663ffffffff6116e616565b600160a060020a03808916600090815260056020908152604080832033909416835292905220555b61139a858463ffffffff6116e616565b600160a060020a0388166000908152600260205260409020549092506113c6908663ffffffff6116e616565b600160a060020a0380891660009081526002602052604080822093909355908816815220546113fb908363ffffffff6116f816565b600160a060020a0387166000908152600260205260408120919091558311156114915760008054600160a060020a0316815260026020526040902054611447908463ffffffff6116f816565b60008054600160a060020a03908116825260026020526040808320939093559054811691908916906000805160206117a08339815191529086905190815260200160405180910390a35b85600160a060020a031687600160a060020a03166000805160206117a08339815191528460405190815260200160405180910390a350505050505050565b600160a060020a031660009081526002602052604090205490565b600080604060443610156114fd57600080fd5b61151861271061132a6003548761166e90919063ffffffff16565b925060045483111561152a5760045492505b61153a848463ffffffff6116e616565b600160a060020a033316600090815260026020526040902054909250611566908563ffffffff6116e616565b600160a060020a03338116600090815260026020526040808220939093559087168152205461159b908363ffffffff6116f816565b600160a060020a0386166000908152600260205260408120919091558311156116325760008054600160a060020a03168152600260205260409020546115e7908463ffffffff6116f816565b60008054600160a060020a0390811682526002602052604080832093909355905481169133909116906000805160206117a08339815191529086905190815260200160405180910390a35b84600160a060020a031633600160a060020a03166000805160206117a08339815191528460405190815260200160405180910390a35050505050565b600080831515611681576000915061169d565b5082820282848281151561169157fe5b041461169957fe5b8091505b5092915050565b600160a060020a03918216600090815260056020908152604080832093909416825291909152205490565b60008082848115156116dd57fe5b04949350505050565b6000828211156116f257fe5b50900390565b60008282018381101561169957fe5b828054600181600116156101000203166002900490600052602060002090601f016020900481019282601f1061174857805160ff1916838001178555611775565b82800160010185558215611775579182015b8281111561177557825182559160200191906001019061175a565b50611781929150611785565b5090565b61088991905b80821115611781576000815560010161178b5600ddf252ad1be2c89b69c2b068fc378daa952ba7f163c4a11628f55a4df523b3efa165627a7a7230582037176345e03f3451892ce8cc89e0822219a0c3364ba1e7dc7e748532aa04c8b20029",
  "linkReferences": {},
  "deployedLinkReferences": {}
}