{"contracts/Usdt.sol":{"Usdt":{"abi":[{"constant":true,"inputs":[],"name":"name","outputs":[{"name":"","type":"string"}],"payable":false,"stateMutability":"view","type":"function"},{"constant":false,"inputs":[{"name":"_upgradedAddress","type":"address"}],"name":"deprecate","outputs":[],"payable":false,"stateMutability":"nonpayable","type":"function"},{"constant":false,"inputs":[{"name":"_spender","type":"address"},{"name":"_value","type":"uint256"}],"name":"approve","outputs":[],"payable":false,"stateMutability":"nonpayable","type":"function"},{"constant":true,"inputs":[],"name":"deprecated","outputs":[{"name":"","type":"bool"}],"payable":false,"stateMutability":"view","type":"function"},{"constant":false,"inputs":[{"name":"_evilUser","type":"address"}],"name":"addBlackList","outputs":[],"payable":false,"stateMutability":"nonpayable","type":"function"},{"constant":true,"inputs":[],"name":"totalSupply","outputs":[{"name":"","type":"uint256"}],"payable":false,"stateMutability":"view","type":"function"},{"constant":false,"inputs":[{"name":"_from","type":"address"},{"name":"_to","type":"address"},{"name":"_value","type":"uint256"}],"name":"transferFrom","outputs":[],"payable":false,"stateMutability":"nonpayable","type":"function"},{"constant":true,"inputs":[],"name":"upgradedAddress","outputs":[{"name":"","type":"address"}],"payable":false,"stateMutability":"view","type":"function"},{"constant":true,"inputs":[{"name":"","type":"address"}],"name":"balances","outputs":[{"name":"","type":"uint256"}],"payable":false,"stateMutability":"view","type":"function"},{"constant":true,"inputs":[],"name":"decimals","outputs":[{"name":"","type":"uint256"}],"payable":false,"stateMutability":"view","type":"function"},{"constant":true,"inputs":[],"name":"maximumFee","outputs":[{"name":"","type":"uint256"}],"payable":false,"stateMutability":"view","type":"function"},{"constant":true,"inputs":[],"name":"_totalSupply","outputs":[{"name":"","type":"uint256"}],"payable":false,"stateMutability":"view","type":"function"},{"constant":false,"inputs":[],"name":"unpause","outputs":[],"payable":false,"stateMutability":"nonpayable","type":"function"},{"constant":true,"inputs":[{"name":"_maker","type":"address"}],"name":"getBlackListStatus","outputs":[{"name":"","type":"bool"}],"payable":false,"stateMutability":"view","type":"function"},{"constant":false,"inputs":[],"name":"TetherToken","outputs":[],"payable":false,"stateMutability":"nonpayable","type":"function"},{"constant":true,"inputs":[{"name":"","type":"address"},{"name":"","type":"address"}],"name":"allowed","outputs":[{"name":"","type":"uint256"}],"payable":false,"stateMutability":"view","type":"function"},{"constant":true,"inputs":[],"name":"paused","outputs":[{"name":"","type":"bool"}],"payable":false,"stateMutability":"view","type":"function"},{"constant":true,"inputs":[{"name":"who","type":"address"}],"name":"balanceOf","outputs":[{"name":"","type":"uint256"}],"payable":false,"stateMutability":"view","type":"function"},{"constant":false,"inputs":[],"name":"pause","outputs":[],"payable":false,"stateMutability":"nonpayable","type":"function"},{"constant":true,"inputs":[],"name":"getOwner","outputs":[{"name":"","type":"address"}],"payable":false,"stateMutability":"view","type":"function"},{"constant":true,"inputs":[],"name":"owner","outputs":[{"name":"","type":"address"}],"payable":false,"stateMutability":"view","type":"function"},{"constant":true,"inputs":[],"name":"symbol","outputs":[{"name":"","type":"string"}],"payable":false,"stateMutability":"view","type":"function"},{"constant":false,"inputs":[{"name":"_to","type":"address"},{"name":"_value","type":"uint256"}],"name":"transfer","outputs":[],"payable":false,"stateMutability":"nonpayable","type":"function"},{"constant":false,"inputs":[{"name":"newBasisPoints","type":"uint256"},{"name":"newMaxFee","type":"uint256"}],"name":"setParams","outputs":[],"payable":false,"stateMutability":"nonpayable","type":"function"},{"constant":false,"inputs":[{"name":"amount","type":"uint256"}],"name":"issue","outputs":[],"payable":false,"stateMutability":"nonpayable","type":"function"},{"constant":false,"inputs":[{"name":"amount","type":"uint256"}],"name":"redeem","outputs":[],"payable":false,"stateMutability":"nonpayable","type":"function"},{"constant":true,"inputs":[{"name":"_owner","type":"address"},{"name":"_spender","type":"address"}],"name":"allowance","outputs":[{"name":"remaining","type":"uint256"}],"payable":false,"stateMutability":"view","type":"function"},{"constant":true,"inputs":[],"name":"basisPointsRate","outputs":[{"name":"","type":"uint256"}],"payable":false,"stateMutability":"view","type":"function"},{"constant":true,"inputs":[{"name":"","type":"address"}],"name":"isBlackListed","outputs":[{"name":"","type":"bool"}],"payable":false,"stateMutability":"view","type":"function"},{"constant":false,"inputs":[{"name":"_clearedUser","type":"address"}],"name":"removeBlackList","outputs":[],"payable":false,"stateMutability":"nonpayable","type":"function"},{"constant":true,"inputs":[],"name":"MAX_UINT","outputs":[{"name":"","type":"uint256"}],"payable":false,"stateMutability":"view","type":"function"},{"constant":false,"inputs":[{"name":"newOwner","type":"address"}],"name":"transferOwnership","outputs":[],"payable":false,"stateMutability":"nonpayable","type":"function"},{"constant":false,"inputs":[{"name":"_blackListedUser","type":"address"}],"name":"destroyBlackFunds","outputs":[],"payable":false,"stateMutability":"nonpayable","type":"function"},{"anonymous":false,"inputs":[{"indexed":false,"name":"amount","type":"uint256"}],"name":"Issue","type":"event"},{"anonymous":false,"inputs":[{"indexed":false,"name":"amount","type":"uint256"}],"name":"Redeem","type":"event"},{"anonymous":false,"inputs":[{"indexed":false,"name":"newAddress","type":"address"}],"name":"Deprecate","type":"event"},{"anonymous":false,"inputs":[{"indexed":false,"name":"feeBasisPoints","type":"uint256"},{"indexed":false,"name":"maxFee","type":"uint256"}],"name":"Params","type":"event"},{"anonymous":false,"inputs":[{"indexed":false,"name":"_blackListedUser","type":"address"},{"indexed":false,"name":"_balance","type":"uint256"}],"name":"DestroyedBlackFunds","type":"event"},{"anonymous":false,"inputs":[{"indexed":false,"name":"_user","type":"address"}],"name":"AddedBlackList","type":"event"},{"anonymous":false,"inputs":[{"indexed":false,"name":"_user","type":"address"}],"name":"RemovedBlackList","type":"event"},{"anonymous":false,"inputs":[{"indexed":true,"name":"owner","type":"address"},{"indexed":true,"name":"spender","type":"address"},{"indexed":false,"name":"value","type":"uint256"}],"name":"Approval","type":"event"},{"anonymous":false,"inputs":[{"indexed":true,"name":"from","type":"address"},{"indexed":true,"name":"to","type":"address"},{"indexed":false,"name":"value","type":"uint256"}],"name":"Transfer","type":"event"},{"anonymous":false,"inputs":[],"name":"Pause","type":"event"},{"anonymous":false,"inputs":[],"name":"Unpause","type":"event"}],"devdoc":{"methods":{"pause()":{"details":"called by the owner to pause, triggers stopped state\r"},"transferOwnership(address)":{"details":"Allows the current owner to transfer control of the contract to a newOwner.\r","params":{"newOwner":"The address to transfer ownership to.\r"}},"unpause()":{"details":"called by the owner to unpause, returns to normal state\r"}}},"evm":{"assembly":"    /* \"contracts/Usdt.sol\":10004:14829  contract Usdt is Pausable, StandardToken, BlackList {\r... */\n  mstore(0x40, 0x60)\n    /* \"contracts/Usdt.sol\":7598:7603  false */\n  0x0\n    /* \"contracts/Usdt.sol\":7577:7603  bool public paused = false */\n  dup1\n  sload\n    /* \"contracts/Usdt.sol\":3112:3143  uint public basisPointsRate = 0 */\n  0x3\n  dup3\n  swap1\n  sstore\n    /* \"contracts/Usdt.sol\":3150:3176  uint public maximumFee = 0 */\n  0x4\n  dup3\n  swap1\n  sstore\n  sub(exp(0x2, 0xa0), 0x1)\n    /* \"contracts/Usdt.sol\":1400:1410  msg.sender */\n  caller\n    /* \"contracts/Usdt.sol\":1392:1410  owner = msg.sender */\n  and\n  not(sub(exp(0x2, 0xa8), 0x1))\n  swap1\n  swap2\n  and\n  or\n  swap1\n  sstore\n    /* \"contracts/Usdt.sol\":10004:14829  contract Usdt is Pausable, StandardToken, BlackList {\r... */\n  dataSize(sub_0)\n  dup1\n  dataOffset(sub_0)\n  0x0\n  codecopy\n  0x0\n  return\nstop\n\nsub_0: assembly {\n        /* \"contracts/Usdt.sol\":10004:14829  contract Usdt is Pausable, StandardToken, BlackList {\r... */\n      mstore(0x40, 0x60)\n      jumpi(tag_1, iszero(calldatasize))\n      and(div(calldataload(0x0), exp(0x2, 0xe0)), 0xffffffff)\n      0x6fdde03\n      dup2\n      eq\n      tag_2\n      jumpi\n      dup1\n      0x753c30c\n      eq\n      tag_3\n      jumpi\n      dup1\n      0x95ea7b3\n      eq\n      tag_4\n      jumpi\n      dup1\n      0xe136b19\n      eq\n      tag_5\n      jumpi\n      dup1\n      0xecb93c0\n      eq\n      tag_6\n      jumpi\n      dup1\n      0x18160ddd\n      eq\n      tag_7\n      jumpi\n      dup1\n      0x23b872dd\n      eq\n      tag_8\n      jumpi\n      dup1\n      0x26976e3f\n      eq\n      tag_9\n      jumpi\n      dup1\n      0x27e235e3\n      eq\n      tag_10\n      jumpi\n      dup1\n      0x313ce567\n      eq\n      tag_11\n      jumpi\n      dup1\n      0x35390714\n      eq\n      tag_12\n      jumpi\n      dup1\n      0x3eaaf86b\n      eq\n      tag_13\n      jumpi\n      dup1\n      0x3f4ba83a\n      eq\n      tag_14\n      jumpi\n      dup1\n      0x59bf1abe\n      eq\n      tag_15\n      jumpi\n      dup1\n      0x5aeb45dc\n      eq\n      tag_16\n      jumpi\n      dup1\n      0x5c658165\n      eq\n      tag_17\n      jumpi\n      dup1\n      0x5c975abb\n      eq\n      tag_18\n      jumpi\n      dup1\n      0x70a08231\n      eq\n      tag_19\n      jumpi\n      dup1\n      0x8456cb59\n      eq\n      tag_20\n      jumpi\n      dup1\n      0x893d20e8\n      eq\n      tag_21\n      jumpi\n      dup1\n      0x8da5cb5b\n      eq\n      tag_22\n      jumpi\n      dup1\n      0x95d89b41\n      eq\n      tag_23\n      jumpi\n      dup1\n      0xa9059cbb\n      eq\n      tag_24\n      jumpi\n      dup1\n      0xc0324c77\n      eq\n      tag_25\n      jumpi\n      dup1\n      0xcc872b66\n      eq\n      tag_26\n      jumpi\n      dup1\n      0xdb006a75\n      eq\n      tag_27\n      jumpi\n      dup1\n      0xdd62ed3e\n      eq\n      tag_28\n      jumpi\n      dup1\n      0xdd644f72\n      eq\n      tag_29\n      jumpi\n      dup1\n      0xe47d6060\n      eq\n      tag_30\n      jumpi\n      dup1\n      0xe4997dc5\n      eq\n      tag_31\n      jumpi\n      dup1\n      0xe5b5019a\n      eq\n      tag_32\n      jumpi\n      dup1\n      0xf2fde38b\n      eq\n      tag_33\n      jumpi\n      dup1\n      0xf3bdc228\n      eq\n      tag_34\n      jumpi\n    tag_1:\n      0x0\n      dup1\n      revert\n        /* \"contracts/Usdt.sol\":10065:10083  string public name */\n    tag_2:\n      jumpi(tag_35, iszero(callvalue))\n      0x0\n      dup1\n      revert\n    tag_35:\n      tag_36\n      jump(tag_37)\n    tag_36:\n      mload(0x40)\n      0x20\n      dup1\n      dup3\n      mstore\n      dup2\n      swap1\n      dup2\n      add\n      dup4\n      dup2\n      dup2\n      mload\n      dup2\n      mstore\n      0x20\n      add\n      swap2\n      pop\n      dup1\n      mload\n      swap1\n      0x20\n      add\n      swap1\n      dup1\n      dup4\n      dup4\n        /* \"--CODEGEN--\":23:24   */\n      0x0\n        /* \"--CODEGEN--\":8:108   */\n    tag_38:\n        /* \"--CODEGEN--\":33:36   */\n      dup4\n        /* \"--CODEGEN--\":30:31   */\n      dup2\n        /* \"--CODEGEN--\":27:29   */\n      lt\n        /* \"--CODEGEN--\":8:108   */\n      iszero\n      tag_39\n      jumpi\n        /* \"--CODEGEN--\":99:100   */\n      dup1\n        /* \"--CODEGEN--\":94:97   */\n      dup3\n        /* \"--CODEGEN--\":90:93   */\n      add\n        /* \"--CODEGEN--\":84:89   */\n      mload\n        /* \"--CODEGEN--\":71:74   */\n      dup4\n      dup3\n      add\n        /* \"--CODEGEN--\":64:70   */\n      mstore\n        /* \"--CODEGEN--\":52:54   */\n      0x20\n        /* \"--CODEGEN--\":45:48   */\n      add\n        /* \"--CODEGEN--\":8:108   */\n      jump(tag_38)\n    tag_39:\n        /* \"--CODEGEN--\":12:26   */\n      pop\n        /* \"--CODEGEN--\":3:112   */\n      pop\n      pop\n      pop\n      swap1\n      pop\n      swap1\n      dup2\n      add\n      swap1\n      0x1f\n      and\n      dup1\n      iszero\n      tag_41\n      jumpi\n      dup1\n      dup3\n      sub\n      dup1\n      mload\n      0x1\n      dup4\n      0x20\n      sub\n      0x100\n      exp\n      sub\n      not\n      and\n      dup2\n      mstore\n      0x20\n      add\n      swap2\n      pop\n    tag_41:\n      pop\n      swap3\n      pop\n      pop\n      pop\n      mload(0x40)\n      dup1\n      swap2\n      sub\n      swap1\n      return\n        /* \"contracts/Usdt.sol\":12736:12917  function deprecate(address _upgradedAddress) public onlyOwner {\r... */\n    tag_3:\n      jumpi(tag_42, iszero(callvalue))\n      0x0\n      dup1\n      revert\n    tag_42:\n      tag_43\n      and(calldataload(0x4), sub(exp(0x2, 0xa0), 0x1))\n      jump(tag_44)\n    tag_43:\n      stop\n        /* \"contracts/Usdt.sol\":11990:12292  function approve(address _spender, uint _value) public onlyPayloadSize(2 * 32) {\r... */\n    tag_4:\n      jumpi(tag_45, iszero(callvalue))\n      0x0\n      dup1\n      revert\n    tag_45:\n      tag_43\n      and(calldataload(0x4), sub(exp(0x2, 0xa0), 0x1))\n      calldataload(0x24)\n      jump(tag_47)\n        /* \"contracts/Usdt.sol\":10181:10203  bool public deprecated */\n    tag_5:\n      jumpi(tag_48, iszero(callvalue))\n      0x0\n      dup1\n      revert\n    tag_48:\n      tag_49\n      jump(tag_50)\n    tag_49:\n      mload(0x40)\n      swap1\n      iszero\n      iszero\n      dup2\n      mstore\n      0x20\n      add\n      mload(0x40)\n      dup1\n      swap2\n      sub\n      swap1\n      return\n        /* \"contracts/Usdt.sol\":8747:8892  function addBlackList (address _evilUser) public onlyOwner {\r... */\n    tag_6:\n      jumpi(tag_51, iszero(callvalue))\n      0x0\n      dup1\n      revert\n    tag_51:\n      tag_43\n      and(calldataload(0x4), sub(exp(0x2, 0xa0), 0x1))\n      jump(tag_53)\n        /* \"contracts/Usdt.sol\":12983:13201  function totalSupply() public constant returns (uint) {\r... */\n    tag_7:\n      jumpi(tag_54, iszero(callvalue))\n      0x0\n      dup1\n      revert\n    tag_54:\n      tag_55\n      jump(tag_56)\n    tag_55:\n      mload(0x40)\n      swap1\n      dup2\n      mstore\n      0x20\n      add\n      mload(0x40)\n      dup1\n      swap2\n      sub\n      swap1\n      return\n        /* \"contracts/Usdt.sol\":11214:11576  function transferFrom(address _from, address _to, uint _value) public whenNotPaused {\r... */\n    tag_8:\n      jumpi(tag_57, iszero(callvalue))\n      0x0\n      dup1\n      revert\n    tag_57:\n      tag_43\n      sub(exp(0x2, 0xa0), 0x1)\n      calldataload(0x4)\n      dup2\n      and\n      swap1\n      calldataload(0x24)\n      and\n      calldataload(0x44)\n      jump(tag_59)\n        /* \"contracts/Usdt.sol\":10144:10174  address public upgradedAddress */\n    tag_9:\n      jumpi(tag_60, iszero(callvalue))\n      0x0\n      dup1\n      revert\n    tag_60:\n      tag_61\n      jump(tag_62)\n    tag_61:\n      mload(0x40)\n      sub(exp(0x2, 0xa0), 0x1)\n      swap1\n      swap2\n      and\n      dup2\n      mstore\n      0x20\n      add\n      mload(0x40)\n      dup1\n      swap2\n      sub\n      swap1\n      return\n        /* \"contracts/Usdt.sol\":2984:3024  mapping(address => uint) public balances */\n    tag_10:\n      jumpi(tag_63, iszero(callvalue))\n      0x0\n      dup1\n      revert\n    tag_63:\n      tag_55\n      and(calldataload(0x4), sub(exp(0x2, 0xa0), 0x1))\n      jump(tag_65)\n        /* \"contracts/Usdt.sol\":10117:10137  uint public decimals */\n    tag_11:\n      jumpi(tag_66, iszero(callvalue))\n      0x0\n      dup1\n      revert\n    tag_66:\n      tag_55\n      jump(tag_68)\n        /* \"contracts/Usdt.sol\":3150:3176  uint public maximumFee = 0 */\n    tag_12:\n      jumpi(tag_69, iszero(callvalue))\n      0x0\n      dup1\n      revert\n    tag_69:\n      tag_55\n      jump(tag_71)\n        /* \"contracts/Usdt.sol\":2086:2110  uint public _totalSupply */\n    tag_13:\n      jumpi(tag_72, iszero(callvalue))\n      0x0\n      dup1\n      revert\n    tag_72:\n      tag_55\n      jump(tag_74)\n        /* \"contracts/Usdt.sol\":8193:8283  function unpause() onlyOwner whenPaused public {\r... */\n    tag_14:\n      jumpi(tag_75, iszero(callvalue))\n      0x0\n      dup1\n      revert\n    tag_75:\n      tag_43\n      jump(tag_77)\n        /* \"contracts/Usdt.sol\":8461:8585  function getBlackListStatus(address _maker) external constant returns (bool) {\r... */\n    tag_15:\n      jumpi(tag_78, iszero(callvalue))\n      0x0\n      dup1\n      revert\n    tag_78:\n      tag_49\n      and(calldataload(0x4), sub(exp(0x2, 0xa0), 0x1))\n      jump(tag_80)\n        /* \"contracts/Usdt.sol\":10507:10718  function TetherToken() public {\r... */\n    tag_16:\n      jumpi(tag_81, iszero(callvalue))\n      0x0\n      dup1\n      revert\n    tag_81:\n      tag_43\n      jump(tag_83)\n        /* \"contracts/Usdt.sol\":4774:4835  mapping (address => mapping (address => uint)) public allowed */\n    tag_17:\n      jumpi(tag_84, iszero(callvalue))\n      0x0\n      dup1\n      revert\n    tag_84:\n      tag_55\n      sub(exp(0x2, 0xa0), 0x1)\n      calldataload(0x4)\n      dup2\n      and\n      swap1\n      calldataload(0x24)\n      and\n      jump(tag_86)\n        /* \"contracts/Usdt.sol\":7577:7603  bool public paused = false */\n    tag_18:\n      jumpi(tag_87, iszero(callvalue))\n      0x0\n      dup1\n      revert\n    tag_87:\n      tag_49\n      jump(tag_89)\n        /* \"contracts/Usdt.sol\":11661:11905  function balanceOf(address who) public constant returns (uint) {\r... */\n    tag_19:\n      jumpi(tag_90, iszero(callvalue))\n      0x0\n      dup1\n      revert\n    tag_90:\n      tag_55\n      and(calldataload(0x4), sub(exp(0x2, 0xa0), 0x1))\n      jump(tag_92)\n        /* \"contracts/Usdt.sol\":8018:8106  function pause() onlyOwner whenNotPaused public {\r... */\n    tag_20:\n      jumpi(tag_93, iszero(callvalue))\n      0x0\n      dup1\n      revert\n    tag_93:\n      tag_43\n      jump(tag_95)\n        /* \"contracts/Usdt.sol\":8593:8680  function getOwner() external constant returns (address) {\r... */\n    tag_21:\n      jumpi(tag_96, iszero(callvalue))\n      0x0\n      dup1\n      revert\n    tag_96:\n      tag_61\n      jump(tag_98)\n        /* \"contracts/Usdt.sol\":1195:1215  address public owner */\n    tag_22:\n      jumpi(tag_99, iszero(callvalue))\n      0x0\n      dup1\n      revert\n    tag_99:\n      tag_61\n      jump(tag_101)\n        /* \"contracts/Usdt.sol\":10090:10110  string public symbol */\n    tag_23:\n      jumpi(tag_102, iszero(callvalue))\n      0x0\n      dup1\n      revert\n    tag_102:\n      tag_36\n      jump(tag_104)\n        /* \"contracts/Usdt.sol\":10803:11129  function transfer(address _to, uint _value) public whenNotPaused {\r... */\n    tag_24:\n      jumpi(tag_109, iszero(callvalue))\n      0x0\n      dup1\n      revert\n    tag_109:\n      tag_43\n      and(calldataload(0x4), sub(exp(0x2, 0xa0), 0x1))\n      calldataload(0x24)\n      jump(tag_111)\n        /* \"contracts/Usdt.sol\":14107:14494  function setParams(uint newBasisPoints, uint newMaxFee) public onlyOwner {\r... */\n    tag_25:\n      jumpi(tag_112, iszero(callvalue))\n      0x0\n      dup1\n      revert\n    tag_112:\n      tag_43\n      calldataload(0x4)\n      calldataload(0x24)\n      jump(tag_114)\n        /* \"contracts/Usdt.sol\":13365:13631  function issue(uint amount) public onlyOwner {\r... */\n    tag_26:\n      jumpi(tag_115, iszero(callvalue))\n      0x0\n      dup1\n      revert\n    tag_115:\n      tag_43\n      calldataload(0x4)\n      jump(tag_117)\n        /* \"contracts/Usdt.sol\":13862:14099  function redeem(uint amount) public onlyOwner {\r... */\n    tag_27:\n      jumpi(tag_118, iszero(callvalue))\n      0x0\n      dup1\n      revert\n    tag_118:\n      tag_43\n      calldataload(0x4)\n      jump(tag_120)\n        /* \"contracts/Usdt.sol\":12377:12670  function allowance(address _owner, address _spender) public constant returns (uint remaining) {\r... */\n    tag_28:\n      jumpi(tag_121, iszero(callvalue))\n      0x0\n      dup1\n      revert\n    tag_121:\n      tag_55\n      sub(exp(0x2, 0xa0), 0x1)\n      calldataload(0x4)\n      dup2\n      and\n      swap1\n      calldataload(0x24)\n      and\n      jump(tag_123)\n        /* \"contracts/Usdt.sol\":3112:3143  uint public basisPointsRate = 0 */\n    tag_29:\n      jumpi(tag_124, iszero(callvalue))\n      0x0\n      dup1\n      revert\n    tag_124:\n      tag_55\n      jump(tag_126)\n        /* \"contracts/Usdt.sol\":8688:8734  mapping (address => bool) public isBlackListed */\n    tag_30:\n      jumpi(tag_127, iszero(callvalue))\n      0x0\n      dup1\n      revert\n    tag_127:\n      tag_49\n      and(calldataload(0x4), sub(exp(0x2, 0xa0), 0x1))\n      jump(tag_129)\n        /* \"contracts/Usdt.sol\":8900:9060  function removeBlackList (address _clearedUser) public onlyOwner {\r... */\n    tag_31:\n      jumpi(tag_130, iszero(callvalue))\n      0x0\n      dup1\n      revert\n    tag_130:\n      tag_43\n      and(calldataload(0x4), sub(exp(0x2, 0xa0), 0x1))\n      jump(tag_132)\n        /* \"contracts/Usdt.sol\":4844:4886  uint public constant MAX_UINT = 2**256 - 1 */\n    tag_32:\n      jumpi(tag_133, iszero(callvalue))\n      0x0\n      dup1\n      revert\n    tag_133:\n      tag_55\n      jump(tag_135)\n        /* \"contracts/Usdt.sol\":1767:1918  function transferOwnership(address newOwner) public onlyOwner {\r... */\n    tag_33:\n      jumpi(tag_136, iszero(callvalue))\n      0x0\n      dup1\n      revert\n    tag_136:\n      tag_43\n      and(calldataload(0x4), sub(exp(0x2, 0xa0), 0x1))\n      jump(tag_138)\n        /* \"contracts/Usdt.sol\":9068:9392  function destroyBlackFunds (address _blackListedUser) public onlyOwner {\r... */\n    tag_34:\n      jumpi(tag_139, iszero(callvalue))\n      0x0\n      dup1\n      revert\n    tag_139:\n      tag_43\n      and(calldataload(0x4), sub(exp(0x2, 0xa0), 0x1))\n      jump(tag_141)\n        /* \"contracts/Usdt.sol\":10065:10083  string public name */\n    tag_37:\n      0x7\n      dup1\n      sload\n      0x1\n      dup2\n      0x1\n      and\n      iszero\n      0x100\n      mul\n      sub\n      and\n      0x2\n      swap1\n      div\n      dup1\n      0x1f\n      add\n      0x20\n      dup1\n      swap2\n      div\n      mul\n      0x20\n      add\n      mload(0x40)\n      swap1\n      dup2\n      add\n      0x40\n      mstore\n      dup1\n      swap3\n      swap2\n      swap1\n      dup2\n      dup2\n      mstore\n      0x20\n      add\n      dup3\n      dup1\n      sload\n      0x1\n      dup2\n      0x1\n      and\n      iszero\n      0x100\n      mul\n      sub\n      and\n      0x2\n      swap1\n      div\n      dup1\n      iszero\n      tag_142\n      jumpi\n      dup1\n      0x1f\n      lt\n      tag_143\n      jumpi\n      0x100\n      dup1\n      dup4\n      sload\n      div\n      mul\n      dup4\n      mstore\n      swap2\n      0x20\n      add\n      swap2\n      jump(tag_142)\n    tag_143:\n      dup3\n      add\n      swap2\n      swap1\n      0x0\n      mstore\n      keccak256(0x0, 0x20)\n      swap1\n    tag_144:\n      dup2\n      sload\n      dup2\n      mstore\n      swap1\n      0x1\n      add\n      swap1\n      0x20\n      add\n      dup1\n      dup4\n      gt\n      tag_144\n      jumpi\n      dup3\n      swap1\n      sub\n      0x1f\n      and\n      dup3\n      add\n      swap2\n    tag_142:\n      pop\n      pop\n      pop\n      pop\n      pop\n      dup2\n      jump\t// out\n        /* \"contracts/Usdt.sol\":12736:12917  function deprecate(address _upgradedAddress) public onlyOwner {\r... */\n    tag_44:\n        /* \"contracts/Usdt.sol\":1567:1572  owner */\n      sload(0x0)\n        /* \"contracts/Usdt.sol\":1553:1563  msg.sender */\n      caller\n      sub(exp(0x2, 0xa0), 0x1)\n        /* \"contracts/Usdt.sol\":1553:1572  msg.sender == owner */\n      swap1\n      dup2\n      and\n        /* \"contracts/Usdt.sol\":1567:1572  owner */\n      swap2\n      and\n        /* \"contracts/Usdt.sol\":1553:1572  msg.sender == owner */\n      eq\n        /* \"contracts/Usdt.sol\":1545:1573  require(msg.sender == owner) */\n      tag_146\n      jumpi\n      0x0\n      dup1\n      revert\n    tag_146:\n        /* \"contracts/Usdt.sol\":12809:12819  deprecated */\n      0xa\n        /* \"contracts/Usdt.sol\":12809:12826  deprecated = true */\n      dup1\n      sload\n      exp(0x2, 0xa0)\n      not(0xff0000000000000000000000000000000000000000)\n      swap1\n      swap2\n      and\n      or\n      not(0xffffffffffffffffffffffffffffffffffffffff)\n        /* \"contracts/Usdt.sol\":12837:12871  upgradedAddress = _upgradedAddress */\n      and\n      sub(exp(0x2, 0xa0), 0x1)\n      dup4\n      and\n      or\n      swap1\n      sstore\n        /* \"contracts/Usdt.sol\":12882:12909  Deprecate(_upgradedAddress) */\n      0xcc358699805e9a8b7f77b522628c7cb9abd07d9efb86b6fb616af1609036a99e\n        /* \"contracts/Usdt.sol\":12837:12871  upgradedAddress = _upgradedAddress */\n      dup2\n        /* \"contracts/Usdt.sol\":12882:12909  Deprecate(_upgradedAddress) */\n      mload(0x40)\n      sub(exp(0x2, 0xa0), 0x1)\n      swap1\n      swap2\n      and\n      dup2\n      mstore\n      0x20\n      add\n      mload(0x40)\n      dup1\n      swap2\n      sub\n      swap1\n      log1\n        /* \"contracts/Usdt.sol\":12736:12917  function deprecate(address _upgradedAddress) public onlyOwner {\r... */\n      pop\n      jump\t// out\n        /* \"contracts/Usdt.sol\":11990:12292  function approve(address _spender, uint _value) public onlyPayloadSize(2 * 32) {\r... */\n    tag_47:\n        /* \"contracts/Usdt.sol\":12061:12067  2 * 32 */\n      0x40\n        /* \"contracts/Usdt.sol\":3329:3337  size + 4 */\n      0x44\n        /* \"contracts/Usdt.sol\":3311:3319  msg.data */\n      calldatasize\n        /* \"contracts/Usdt.sol\":3311:3337  msg.data.length < size + 4 */\n      lt\n        /* \"contracts/Usdt.sol\":3309:3338  !(msg.data.length < size + 4) */\n      iszero\n        /* \"contracts/Usdt.sol\":3301:3339  require(!(msg.data.length < size + 4)) */\n      tag_149\n      jumpi\n      0x0\n      dup1\n      revert\n    tag_149:\n        /* \"contracts/Usdt.sol\":12084:12094  deprecated */\n      sload(0xa)\n      exp(0x2, 0xa0)\n      swap1\n      div\n      0xff\n      and\n        /* \"contracts/Usdt.sol\":12080:12285  if (deprecated) {\r... */\n      iszero\n      tag_151\n      jumpi\n        /* \"contracts/Usdt.sol\":12140:12155  upgradedAddress */\n      and(sub(exp(0x2, 0xa0), 0x1), sload(0xa))\n        /* \"contracts/Usdt.sol\":12118:12172  UpgradedStandardToken(upgradedAddress).approveByLegacy */\n      0xaee92d33\n        /* \"contracts/Usdt.sol\":12173:12183  msg.sender */\n      caller\n        /* \"contracts/Usdt.sol\":12185:12193  _spender */\n      dup6\n        /* \"contracts/Usdt.sol\":12195:12201  _value */\n      dup6\n        /* \"contracts/Usdt.sol\":12118:12202  UpgradedStandardToken(upgradedAddress).approveByLegacy(msg.sender, _spender, _value) */\n      mload(0x40)\n      exp(0x2, 0xe0)\n      0xffffffff\n      dup7\n      and\n      mul\n      dup2\n      mstore\n      sub(exp(0x2, 0xa0), 0x1)\n      swap4\n      dup5\n      and\n      0x4\n      dup3\n      add\n      mstore\n      swap2\n      swap1\n      swap3\n      and\n      0x24\n      dup3\n      add\n      mstore\n      0x44\n      dup2\n      add\n      swap2\n      swap1\n      swap2\n      mstore\n      0x64\n      add\n      0x0\n      mload(0x40)\n      dup1\n      dup4\n      sub\n      dup2\n      0x0\n      dup8\n      dup1\n      extcodesize\n      iszero\n      iszero\n      tag_152\n      jumpi\n      0x0\n      dup1\n      revert\n    tag_152:\n      sub(gas, 0x2c6)\n      call\n      iszero\n      iszero\n      tag_153\n      jumpi\n      0x0\n      dup1\n      revert\n    tag_153:\n      pop\n      pop\n      pop\n        /* \"contracts/Usdt.sol\":12111:12202  return UpgradedStandardToken(upgradedAddress).approveByLegacy(msg.sender, _spender, _value) */\n      jump(tag_155)\n        /* \"contracts/Usdt.sol\":12080:12285  if (deprecated) {\r... */\n    tag_151:\n        /* \"contracts/Usdt.sol\":12242:12273  super.approve(_spender, _value) */\n      tag_155\n        /* \"contracts/Usdt.sol\":12256:12264  _spender */\n      dup4\n        /* \"contracts/Usdt.sol\":12266:12272  _value */\n      dup4\n        /* \"contracts/Usdt.sol\":12242:12255  super.approve */\n      tag_156\n        /* \"contracts/Usdt.sol\":12242:12273  super.approve(_spender, _value) */\n      jump\t// in\n    tag_155:\n        /* \"contracts/Usdt.sol\":11990:12292  function approve(address _spender, uint _value) public onlyPayloadSize(2 * 32) {\r... */\n      pop\n      pop\n      pop\n      jump\t// out\n        /* \"contracts/Usdt.sol\":10181:10203  bool public deprecated */\n    tag_50:\n      sload(0xa)\n      exp(0x2, 0xa0)\n      swap1\n      div\n      0xff\n      and\n      dup2\n      jump\t// out\n        /* \"contracts/Usdt.sol\":8747:8892  function addBlackList (address _evilUser) public onlyOwner {\r... */\n    tag_53:\n        /* \"contracts/Usdt.sol\":1567:1572  owner */\n      sload(0x0)\n        /* \"contracts/Usdt.sol\":1553:1563  msg.sender */\n      caller\n      sub(exp(0x2, 0xa0), 0x1)\n        /* \"contracts/Usdt.sol\":1553:1572  msg.sender == owner */\n      swap1\n      dup2\n      and\n        /* \"contracts/Usdt.sol\":1567:1572  owner */\n      swap2\n      and\n        /* \"contracts/Usdt.sol\":1553:1572  msg.sender == owner */\n      eq\n        /* \"contracts/Usdt.sol\":1545:1573  require(msg.sender == owner) */\n      tag_158\n      jumpi\n      0x0\n      dup1\n      revert\n    tag_158:\n      sub(exp(0x2, 0xa0), 0x1)\n        /* \"contracts/Usdt.sol\":8817:8841  isBlackListed[_evilUser] */\n      dup2\n      and\n      0x0\n      swap1\n      dup2\n      mstore\n        /* \"contracts/Usdt.sol\":8817:8830  isBlackListed */\n      0x6\n        /* \"contracts/Usdt.sol\":8817:8841  isBlackListed[_evilUser] */\n      0x20\n      mstore\n      0x40\n      swap1\n      dup2\n      swap1\n      keccak256\n        /* \"contracts/Usdt.sol\":8817:8848  isBlackListed[_evilUser] = true */\n      dup1\n      sload\n      not(0xff)\n      and\n        /* \"contracts/Usdt.sol\":8844:8848  true */\n      0x1\n        /* \"contracts/Usdt.sol\":8817:8848  isBlackListed[_evilUser] = true */\n      or\n      swap1\n      sstore\n        /* \"contracts/Usdt.sol\":8859:8884  AddedBlackList(_evilUser) */\n      0x42e160154868087d6bfdc0ca23d96a1c1cfa32f1b72ba9ba27b69b98a0d819dc\n      swap1\n        /* \"contracts/Usdt.sol\":8831:8840  _evilUser */\n      dup3\n      swap1\n        /* \"contracts/Usdt.sol\":8859:8884  AddedBlackList(_evilUser) */\n      mload\n      sub(exp(0x2, 0xa0), 0x1)\n      swap1\n      swap2\n      and\n      dup2\n      mstore\n      0x20\n      add\n      mload(0x40)\n      dup1\n      swap2\n      sub\n      swap1\n      log1\n        /* \"contracts/Usdt.sol\":8747:8892  function addBlackList (address _evilUser) public onlyOwner {\r... */\n      pop\n      jump\t// out\n        /* \"contracts/Usdt.sol\":12983:13201  function totalSupply() public constant returns (uint) {\r... */\n    tag_56:\n        /* \"contracts/Usdt.sol\":13052:13062  deprecated */\n      sload(0xa)\n        /* \"contracts/Usdt.sol\":13031:13035  uint */\n      0x0\n      swap1\n      exp(0x2, 0xa0)\n        /* \"contracts/Usdt.sol\":13052:13062  deprecated */\n      swap1\n      div\n      0xff\n      and\n        /* \"contracts/Usdt.sol\":13048:13194  if (deprecated) {\r... */\n      iszero\n      tag_161\n      jumpi\n        /* \"contracts/Usdt.sol\":13100:13115  upgradedAddress */\n      and(sub(exp(0x2, 0xa0), 0x1), sload(0xa))\n        /* \"contracts/Usdt.sol\":13086:13128  StandardToken(upgradedAddress).totalSupply */\n      0x18160ddd\n        /* \"contracts/Usdt.sol\":13100:13115  upgradedAddress */\n      0x0\n        /* \"contracts/Usdt.sol\":13086:13130  StandardToken(upgradedAddress).totalSupply() */\n      add(0x20, mload(0x40))\n      mstore\n      mload(0x40)\n      dup2\n      0xffffffff\n      and\n      exp(0x2, 0xe0)\n      mul\n      dup2\n      mstore\n      0x4\n      add\n      0x20\n      mload(0x40)\n      dup1\n      dup4\n      sub\n      dup2\n      0x0\n      dup8\n      dup1\n      extcodesize\n      iszero\n      iszero\n      tag_162\n      jumpi\n      0x0\n      dup1\n      revert\n    tag_162:\n      sub(gas, 0x2c6)\n      call\n      iszero\n      iszero\n      tag_163\n      jumpi\n      0x0\n      dup1\n      revert\n    tag_163:\n      pop\n      pop\n      pop\n      mload(0x40)\n      dup1\n      mload\n      swap1\n      pop\n        /* \"contracts/Usdt.sol\":13079:13130  return StandardToken(upgradedAddress).totalSupply() */\n      swap1\n      pop\n      jump(tag_164)\n        /* \"contracts/Usdt.sol\":13048:13194  if (deprecated) {\r... */\n    tag_161:\n      pop\n        /* \"contracts/Usdt.sol\":13170:13182  _totalSupply */\n      sload(0x1)\n        /* \"contracts/Usdt.sol\":13048:13194  if (deprecated) {\r... */\n    tag_164:\n        /* \"contracts/Usdt.sol\":12983:13201  function totalSupply() public constant returns (uint) {\r... */\n      swap1\n      jump\t// out\n        /* \"contracts/Usdt.sol\":11214:11576  function transferFrom(address _from, address _to, uint _value) public whenNotPaused {\r... */\n    tag_59:\n        /* \"contracts/Usdt.sol\":7753:7759  paused */\n      sload(0x0)\n      exp(0x2, 0xa0)\n      swap1\n      div\n      0xff\n      and\n        /* \"contracts/Usdt.sol\":7752:7759  !paused */\n      iszero\n        /* \"contracts/Usdt.sol\":7744:7760  require(!paused) */\n      tag_166\n      jumpi\n      0x0\n      dup1\n      revert\n    tag_166:\n      sub(exp(0x2, 0xa0), 0x1)\n        /* \"contracts/Usdt.sol\":11318:11338  isBlackListed[_from] */\n      dup4\n      and\n      0x0\n      swap1\n      dup2\n      mstore\n        /* \"contracts/Usdt.sol\":11318:11331  isBlackListed */\n      0x6\n        /* \"contracts/Usdt.sol\":11318:11338  isBlackListed[_from] */\n      0x20\n      mstore\n      0x40\n      swap1\n      keccak256\n      sload\n      0xff\n      and\n        /* \"contracts/Usdt.sol\":11317:11338  !isBlackListed[_from] */\n      iszero\n        /* \"contracts/Usdt.sol\":11309:11339  require(!isBlackListed[_from]) */\n      tag_168\n      jumpi\n      0x0\n      dup1\n      revert\n    tag_168:\n        /* \"contracts/Usdt.sol\":11354:11364  deprecated */\n      sload(0xa)\n      exp(0x2, 0xa0)\n      swap1\n      div\n      0xff\n      and\n        /* \"contracts/Usdt.sol\":11350:11569  if (deprecated) {\r... */\n      iszero\n      tag_169\n      jumpi\n        /* \"contracts/Usdt.sol\":11410:11425  upgradedAddress */\n      and(sub(exp(0x2, 0xa0), 0x1), sload(0xa))\n        /* \"contracts/Usdt.sol\":11388:11447  UpgradedStandardToken(upgradedAddress).transferFromByLegacy */\n      0x8b477adb\n        /* \"contracts/Usdt.sol\":11448:11458  msg.sender */\n      caller\n        /* \"contracts/Usdt.sol\":11460:11465  _from */\n      dup6\n        /* \"contracts/Usdt.sol\":11467:11470  _to */\n      dup6\n        /* \"contracts/Usdt.sol\":11472:11478  _value */\n      dup6\n        /* \"contracts/Usdt.sol\":11388:11479  UpgradedStandardToken(upgradedAddress).transferFromByLegacy(msg.sender, _from, _to, _value) */\n      mload(0x40)\n      exp(0x2, 0xe0)\n      0xffffffff\n      dup8\n      and\n      mul\n      dup2\n      mstore\n      sub(exp(0x2, 0xa0), 0x1)\n      swap5\n      dup6\n      and\n      0x4\n      dup3\n      add\n      mstore\n      swap3\n      dup5\n      and\n      0x24\n      dup5\n      add\n      mstore\n      swap3\n      and\n      0x44\n      dup3\n      add\n      mstore\n      0x64\n      dup2\n      add\n      swap2\n      swap1\n      swap2\n      mstore\n      0x84\n      add\n      0x0\n      mload(0x40)\n      dup1\n      dup4\n      sub\n      dup2\n      0x0\n      dup8\n      dup1\n      extcodesize\n      iszero\n      iszero\n      tag_152\n      jumpi\n      0x0\n      dup1\n      revert\n        /* \"contracts/Usdt.sol\":11350:11569  if (deprecated) {\r... */\n    tag_169:\n        /* \"contracts/Usdt.sol\":11519:11557  super.transferFrom(_from, _to, _value) */\n      tag_155\n        /* \"contracts/Usdt.sol\":11538:11543  _from */\n      dup4\n        /* \"contracts/Usdt.sol\":11545:11548  _to */\n      dup4\n        /* \"contracts/Usdt.sol\":11550:11556  _value */\n      dup4\n        /* \"contracts/Usdt.sol\":11519:11537  super.transferFrom */\n      tag_174\n        /* \"contracts/Usdt.sol\":11519:11557  super.transferFrom(_from, _to, _value) */\n      jump\t// in\n        /* \"contracts/Usdt.sol\":10144:10174  address public upgradedAddress */\n    tag_62:\n      and(sub(exp(0x2, 0xa0), 0x1), sload(0xa))\n      dup2\n      jump\t// out\n        /* \"contracts/Usdt.sol\":2984:3024  mapping(address => uint) public balances */\n    tag_65:\n      mstore(0x20, 0x2)\n      0x0\n      swap1\n      dup2\n      mstore\n      0x40\n      swap1\n      keccak256\n      sload\n      dup2\n      jump\t// out\n        /* \"contracts/Usdt.sol\":10117:10137  uint public decimals */\n    tag_68:\n      sload(0x9)\n      dup2\n      jump\t// out\n        /* \"contracts/Usdt.sol\":3150:3176  uint public maximumFee = 0 */\n    tag_71:\n      sload(0x4)\n      dup2\n      jump\t// out\n        /* \"contracts/Usdt.sol\":2086:2110  uint public _totalSupply */\n    tag_74:\n      sload(0x1)\n      dup2\n      jump\t// out\n        /* \"contracts/Usdt.sol\":8193:8283  function unpause() onlyOwner whenPaused public {\r... */\n    tag_77:\n        /* \"contracts/Usdt.sol\":1567:1572  owner */\n      sload(0x0)\n        /* \"contracts/Usdt.sol\":1553:1563  msg.sender */\n      caller\n      sub(exp(0x2, 0xa0), 0x1)\n        /* \"contracts/Usdt.sol\":1553:1572  msg.sender == owner */\n      swap1\n      dup2\n      and\n        /* \"contracts/Usdt.sol\":1567:1572  owner */\n      swap2\n      and\n        /* \"contracts/Usdt.sol\":1553:1572  msg.sender == owner */\n      eq\n        /* \"contracts/Usdt.sol\":1545:1573  require(msg.sender == owner) */\n      tag_176\n      jumpi\n      0x0\n      dup1\n      revert\n    tag_176:\n        /* \"contracts/Usdt.sol\":7913:7919  paused */\n      sload(0x0)\n      exp(0x2, 0xa0)\n      swap1\n      div\n      0xff\n      and\n        /* \"contracts/Usdt.sol\":7905:7920  require(paused) */\n      iszero\n      iszero\n      tag_178\n      jumpi\n      0x0\n      dup1\n      revert\n    tag_178:\n        /* \"contracts/Usdt.sol\":8256:8261  false */\n      0x0\n        /* \"contracts/Usdt.sol\":8247:8261  paused = false */\n      dup1\n      sload\n      not(0xff0000000000000000000000000000000000000000)\n      and\n      swap1\n      sstore\n        /* \"contracts/Usdt.sol\":8268:8277  Unpause() */\n      0x7805862f689e2f13df9f062ff482ad3ad112aca9e0847911ed832e158c525b33\n      mload(0x40)\n      mload(0x40)\n      dup1\n      swap2\n      sub\n      swap1\n      log1\n        /* \"contracts/Usdt.sol\":8193:8283  function unpause() onlyOwner whenPaused public {\r... */\n      jump\t// out\n        /* \"contracts/Usdt.sol\":8461:8585  function getBlackListStatus(address _maker) external constant returns (bool) {\r... */\n    tag_80:\n      sub(exp(0x2, 0xa0), 0x1)\n        /* \"contracts/Usdt.sol\":8556:8577  isBlackListed[_maker] */\n      dup2\n      and\n        /* \"contracts/Usdt.sol\":8532:8536  bool */\n      0x0\n        /* \"contracts/Usdt.sol\":8556:8577  isBlackListed[_maker] */\n      swap1\n      dup2\n      mstore\n        /* \"contracts/Usdt.sol\":8556:8569  isBlackListed */\n      0x6\n        /* \"contracts/Usdt.sol\":8556:8577  isBlackListed[_maker] */\n      0x20\n      mstore\n      0x40\n      swap1\n      keccak256\n      sload\n      0xff\n      and\n        /* \"contracts/Usdt.sol\":8461:8585  function getBlackListStatus(address _maker) external constant returns (bool) {\r... */\n    tag_180:\n      swap2\n      swap1\n      pop\n      jump\t// out\n        /* \"contracts/Usdt.sol\":10507:10718  function TetherToken() public {\r... */\n    tag_83:\n        /* \"contracts/Usdt.sol\":10563:10571  10 ** 38 */\n      0x4b3b4ca85a86c47a098a224000000000\n        /* \"contracts/Usdt.sol\":10548:10560  _totalSupply */\n      0x1\n        /* \"contracts/Usdt.sol\":10548:10571  _totalSupply = 10 ** 38 */\n      sstore\n        /* \"contracts/Usdt.sol\":10582:10595  name = \"USDT\" */\n      0x40\n      dup1\n      mload\n      swap1\n      dup2\n      add\n      0x40\n      mstore\n      0x4\n      dup2\n      mstore\n      0x5553445400000000000000000000000000000000000000000000000000000000\n      0x20\n      dup3\n      add\n      mstore\n        /* \"contracts/Usdt.sol\":10582:10586  name */\n      0x7\n      swap1\n        /* \"contracts/Usdt.sol\":10582:10595  name = \"USDT\" */\n      dup1\n      mload\n      tag_182\n      swap3\n      swap2\n      0x20\n      add\n      swap1\n      jump\t// in(tag_183)\n    tag_182:\n      pop\n        /* \"contracts/Usdt.sol\":10606:10621  symbol = \"USDT\" */\n      0x40\n      dup1\n      mload\n      swap1\n      dup2\n      add\n      0x40\n      mstore\n      0x4\n      dup2\n      mstore\n      0x5553445400000000000000000000000000000000000000000000000000000000\n      0x20\n      dup3\n      add\n      mstore\n        /* \"contracts/Usdt.sol\":10606:10612  symbol */\n      0x8\n      swap1\n        /* \"contracts/Usdt.sol\":10606:10621  symbol = \"USDT\" */\n      dup1\n      mload\n      tag_184\n      swap3\n      swap2\n      0x20\n      add\n      swap1\n      jump\t// in(tag_183)\n    tag_184:\n      pop\n        /* \"contracts/Usdt.sol\":10643:10644  6 */\n      0x6\n        /* \"contracts/Usdt.sol\":10632:10640  decimals */\n      0x9\n        /* \"contracts/Usdt.sol\":10632:10644  decimals = 6 */\n      sstore\n        /* \"contracts/Usdt.sol\":10655:10670  balances[owner] */\n      0x0\n        /* \"contracts/Usdt.sol\":10664:10669  owner */\n      dup1\n      sload\n      sub(exp(0x2, 0xa0), 0x1)\n      and\n        /* \"contracts/Usdt.sol\":10655:10670  balances[owner] */\n      dup2\n      mstore\n        /* \"contracts/Usdt.sol\":10655:10663  balances */\n      0x2\n        /* \"contracts/Usdt.sol\":10655:10670  balances[owner] */\n      0x20\n      mstore\n      0x40\n      swap1\n      keccak256\n        /* \"contracts/Usdt.sol\":10673:10681  10 ** 38 */\n      0x4b3b4ca85a86c47a098a224000000000\n        /* \"contracts/Usdt.sol\":10655:10681  balances[owner] = 10 ** 38 */\n      swap1\n      sstore\n        /* \"contracts/Usdt.sol\":10692:10702  deprecated */\n      0xa\n        /* \"contracts/Usdt.sol\":10692:10710  deprecated = false */\n      dup1\n      sload\n      not(0xff0000000000000000000000000000000000000000)\n      and\n      swap1\n      sstore\n        /* \"contracts/Usdt.sol\":10507:10718  function TetherToken() public {\r... */\n      jump\t// out\n        /* \"contracts/Usdt.sol\":4774:4835  mapping (address => mapping (address => uint)) public allowed */\n    tag_86:\n      0x5\n      0x20\n      swap1\n      dup2\n      mstore\n      0x0\n      swap3\n      dup4\n      mstore\n      0x40\n      dup1\n      dup5\n      keccak256\n      swap1\n      swap2\n      mstore\n      swap1\n      dup3\n      mstore\n      swap1\n      keccak256\n      sload\n      dup2\n      jump\t// out\n        /* \"contracts/Usdt.sol\":7577:7603  bool public paused = false */\n    tag_89:\n      sload(0x0)\n      exp(0x2, 0xa0)\n      swap1\n      div\n      0xff\n      and\n      dup2\n      jump\t// out\n        /* \"contracts/Usdt.sol\":11661:11905  function balanceOf(address who) public constant returns (uint) {\r... */\n    tag_92:\n        /* \"contracts/Usdt.sol\":11739:11749  deprecated */\n      sload(0xa)\n        /* \"contracts/Usdt.sol\":11718:11722  uint */\n      0x0\n      swap1\n      exp(0x2, 0xa0)\n        /* \"contracts/Usdt.sol\":11739:11749  deprecated */\n      swap1\n      div\n      0xff\n      and\n        /* \"contracts/Usdt.sol\":11735:11898  if (deprecated) {\r... */\n      iszero\n      tag_186\n      jumpi\n        /* \"contracts/Usdt.sol\":11795:11810  upgradedAddress */\n      and(sub(exp(0x2, 0xa0), 0x1), sload(0xa))\n        /* \"contracts/Usdt.sol\":11773:11821  UpgradedStandardToken(upgradedAddress).balanceOf */\n      0x70a08231\n        /* \"contracts/Usdt.sol\":11822:11825  who */\n      dup4\n        /* \"contracts/Usdt.sol\":11795:11810  upgradedAddress */\n      0x0\n        /* \"contracts/Usdt.sol\":11773:11826  UpgradedStandardToken(upgradedAddress).balanceOf(who) */\n      add(0x20, mload(0x40))\n      mstore\n      mload(0x40)\n      exp(0x2, 0xe0)\n      0xffffffff\n      dup5\n      and\n      mul\n      dup2\n      mstore\n      sub(exp(0x2, 0xa0), 0x1)\n      swap1\n      swap2\n      and\n      0x4\n      dup3\n      add\n      mstore\n      0x24\n      add\n      0x20\n      mload(0x40)\n      dup1\n      dup4\n      sub\n      dup2\n      0x0\n      dup8\n      dup1\n      extcodesize\n      iszero\n      iszero\n      tag_187\n      jumpi\n      0x0\n      dup1\n      revert\n    tag_187:\n      sub(gas, 0x2c6)\n      call\n      iszero\n      iszero\n      tag_188\n      jumpi\n      0x0\n      dup1\n      revert\n    tag_188:\n      pop\n      pop\n      pop\n      mload(0x40)\n      dup1\n      mload\n      swap1\n      pop\n        /* \"contracts/Usdt.sol\":11766:11826  return UpgradedStandardToken(upgradedAddress).balanceOf(who) */\n      swap1\n      pop\n      jump(tag_180)\n        /* \"contracts/Usdt.sol\":11735:11898  if (deprecated) {\r... */\n    tag_186:\n        /* \"contracts/Usdt.sol\":11866:11886  super.balanceOf(who) */\n      tag_190\n        /* \"contracts/Usdt.sol\":11882:11885  who */\n      dup3\n        /* \"contracts/Usdt.sol\":11866:11881  super.balanceOf */\n      tag_191\n        /* \"contracts/Usdt.sol\":11866:11886  super.balanceOf(who) */\n      jump\t// in\n    tag_190:\n        /* \"contracts/Usdt.sol\":11859:11886  return super.balanceOf(who) */\n      swap1\n      pop\n      jump(tag_180)\n        /* \"contracts/Usdt.sol\":8018:8106  function pause() onlyOwner whenNotPaused public {\r... */\n    tag_95:\n        /* \"contracts/Usdt.sol\":1567:1572  owner */\n      sload(0x0)\n        /* \"contracts/Usdt.sol\":1553:1563  msg.sender */\n      caller\n      sub(exp(0x2, 0xa0), 0x1)\n        /* \"contracts/Usdt.sol\":1553:1572  msg.sender == owner */\n      swap1\n      dup2\n      and\n        /* \"contracts/Usdt.sol\":1567:1572  owner */\n      swap2\n      and\n        /* \"contracts/Usdt.sol\":1553:1572  msg.sender == owner */\n      eq\n        /* \"contracts/Usdt.sol\":1545:1573  require(msg.sender == owner) */\n      tag_193\n      jumpi\n      0x0\n      dup1\n      revert\n    tag_193:\n        /* \"contracts/Usdt.sol\":7753:7759  paused */\n      sload(0x0)\n      exp(0x2, 0xa0)\n      swap1\n      div\n      0xff\n      and\n        /* \"contracts/Usdt.sol\":7752:7759  !paused */\n      iszero\n        /* \"contracts/Usdt.sol\":7744:7760  require(!paused) */\n      tag_195\n      jumpi\n      0x0\n      dup1\n      revert\n    tag_195:\n        /* \"contracts/Usdt.sol\":8073:8079  paused */\n      0x0\n        /* \"contracts/Usdt.sol\":8073:8086  paused = true */\n      dup1\n      sload\n      not(0xff0000000000000000000000000000000000000000)\n      and\n      exp(0x2, 0xa0)\n      or\n      swap1\n      sstore\n        /* \"contracts/Usdt.sol\":8093:8100  Pause() */\n      0x6985a02210a168e66602d3235cb6db0e70f92b3ba4d376a33c0f3d9434bff625\n      mload(0x40)\n      mload(0x40)\n      dup1\n      swap2\n      sub\n      swap1\n      log1\n        /* \"contracts/Usdt.sol\":8018:8106  function pause() onlyOwner whenNotPaused public {\r... */\n      jump\t// out\n        /* \"contracts/Usdt.sol\":8593:8680  function getOwner() external constant returns (address) {\r... */\n    tag_98:\n        /* \"contracts/Usdt.sol\":8640:8647  address */\n      0x0\n        /* \"contracts/Usdt.sol\":8667:8672  owner */\n      sload\n      sub(exp(0x2, 0xa0), 0x1)\n      and\n        /* \"contracts/Usdt.sol\":8593:8680  function getOwner() external constant returns (address) {\r... */\n      swap1\n      jump\t// out\n        /* \"contracts/Usdt.sol\":1195:1215  address public owner */\n    tag_101:\n      and(sub(exp(0x2, 0xa0), 0x1), sload(0x0))\n      dup2\n      jump\t// out\n        /* \"contracts/Usdt.sol\":10090:10110  string public symbol */\n    tag_104:\n      0x8\n      dup1\n      sload\n      0x1\n      dup2\n      0x1\n      and\n      iszero\n      0x100\n      mul\n      sub\n      and\n      0x2\n      swap1\n      div\n      dup1\n      0x1f\n      add\n      0x20\n      dup1\n      swap2\n      div\n      mul\n      0x20\n      add\n      mload(0x40)\n      swap1\n      dup2\n      add\n      0x40\n      mstore\n      dup1\n      swap3\n      swap2\n      swap1\n      dup2\n      dup2\n      mstore\n      0x20\n      add\n      dup3\n      dup1\n      sload\n      0x1\n      dup2\n      0x1\n      and\n      iszero\n      0x100\n      mul\n      sub\n      and\n      0x2\n      swap1\n      div\n      dup1\n      iszero\n      tag_142\n      jumpi\n      dup1\n      0x1f\n      lt\n      tag_143\n      jumpi\n      0x100\n      dup1\n      dup4\n      sload\n      div\n      mul\n      dup4\n      mstore\n      swap2\n      0x20\n      add\n      swap2\n      jump(tag_142)\n        /* \"contracts/Usdt.sol\":10803:11129  function transfer(address _to, uint _value) public whenNotPaused {\r... */\n    tag_111:\n        /* \"contracts/Usdt.sol\":7753:7759  paused */\n      sload(0x0)\n      exp(0x2, 0xa0)\n      swap1\n      div\n      0xff\n      and\n        /* \"contracts/Usdt.sol\":7752:7759  !paused */\n      iszero\n        /* \"contracts/Usdt.sol\":7744:7760  require(!paused) */\n      tag_202\n      jumpi\n      0x0\n      dup1\n      revert\n    tag_202:\n      sub(exp(0x2, 0xa0), 0x1)\n        /* \"contracts/Usdt.sol\":10902:10912  msg.sender */\n      caller\n        /* \"contracts/Usdt.sol\":10888:10913  isBlackListed[msg.sender] */\n      and\n      0x0\n      swap1\n      dup2\n      mstore\n        /* \"contracts/Usdt.sol\":10888:10901  isBlackListed */\n      0x6\n        /* \"contracts/Usdt.sol\":10888:10913  isBlackListed[msg.sender] */\n      0x20\n      mstore\n      0x40\n      swap1\n      keccak256\n      sload\n      0xff\n      and\n        /* \"contracts/Usdt.sol\":10887:10913  !isBlackListed[msg.sender] */\n      iszero\n        /* \"contracts/Usdt.sol\":10879:10914  require(!isBlackListed[msg.sender]) */\n      tag_204\n      jumpi\n      0x0\n      dup1\n      revert\n    tag_204:\n        /* \"contracts/Usdt.sol\":10929:10939  deprecated */\n      sload(0xa)\n      exp(0x2, 0xa0)\n      swap1\n      div\n      0xff\n      and\n        /* \"contracts/Usdt.sol\":10925:11122  if (deprecated) {\r... */\n      iszero\n      tag_205\n      jumpi\n        /* \"contracts/Usdt.sol\":10985:11000  upgradedAddress */\n      and(sub(exp(0x2, 0xa0), 0x1), sload(0xa))\n        /* \"contracts/Usdt.sol\":10963:11018  UpgradedStandardToken(upgradedAddress).transferByLegacy */\n      0x6e18980a\n        /* \"contracts/Usdt.sol\":11019:11029  msg.sender */\n      caller\n        /* \"contracts/Usdt.sol\":11031:11034  _to */\n      dup5\n        /* \"contracts/Usdt.sol\":11036:11042  _value */\n      dup5\n        /* \"contracts/Usdt.sol\":10963:11043  UpgradedStandardToken(upgradedAddress).transferByLegacy(msg.sender, _to, _value) */\n      mload(0x40)\n      exp(0x2, 0xe0)\n      0xffffffff\n      dup7\n      and\n      mul\n      dup2\n      mstore\n      sub(exp(0x2, 0xa0), 0x1)\n      swap4\n      dup5\n      and\n      0x4\n      dup3\n      add\n      mstore\n      swap2\n      swap1\n      swap3\n      and\n      0x24\n      dup3\n      add\n      mstore\n      0x44\n      dup2\n      add\n      swap2\n      swap1\n      swap2\n      mstore\n      0x64\n      add\n      0x0\n      mload(0x40)\n      dup1\n      dup4\n      sub\n      dup2\n      0x0\n      dup8\n      dup1\n      extcodesize\n      iszero\n      iszero\n      tag_206\n      jumpi\n      0x0\n      dup1\n      revert\n    tag_206:\n      sub(gas, 0x2c6)\n      call\n      iszero\n      iszero\n      tag_207\n      jumpi\n      0x0\n      dup1\n      revert\n    tag_207:\n      pop\n      pop\n      pop\n        /* \"contracts/Usdt.sol\":10956:11043  return UpgradedStandardToken(upgradedAddress).transferByLegacy(msg.sender, _to, _value) */\n      jump(tag_209)\n        /* \"contracts/Usdt.sol\":10925:11122  if (deprecated) {\r... */\n    tag_205:\n        /* \"contracts/Usdt.sol\":11083:11110  super.transfer(_to, _value) */\n      tag_209\n        /* \"contracts/Usdt.sol\":11098:11101  _to */\n      dup3\n        /* \"contracts/Usdt.sol\":11103:11109  _value */\n      dup3\n        /* \"contracts/Usdt.sol\":11083:11097  super.transfer */\n      tag_210\n        /* \"contracts/Usdt.sol\":11083:11110  super.transfer(_to, _value) */\n      jump\t// in\n    tag_209:\n        /* \"contracts/Usdt.sol\":10803:11129  function transfer(address _to, uint _value) public whenNotPaused {\r... */\n      pop\n      pop\n      jump\t// out\n        /* \"contracts/Usdt.sol\":14107:14494  function setParams(uint newBasisPoints, uint newMaxFee) public onlyOwner {\r... */\n    tag_114:\n        /* \"contracts/Usdt.sol\":1567:1572  owner */\n      sload(0x0)\n        /* \"contracts/Usdt.sol\":1553:1563  msg.sender */\n      caller\n      sub(exp(0x2, 0xa0), 0x1)\n        /* \"contracts/Usdt.sol\":1553:1572  msg.sender == owner */\n      swap1\n      dup2\n      and\n        /* \"contracts/Usdt.sol\":1567:1572  owner */\n      swap2\n      and\n        /* \"contracts/Usdt.sol\":1553:1572  msg.sender == owner */\n      eq\n        /* \"contracts/Usdt.sol\":1545:1573  require(msg.sender == owner) */\n      tag_212\n      jumpi\n      0x0\n      dup1\n      revert\n    tag_212:\n        /* \"contracts/Usdt.sol\":14305:14307  20 */\n      0x14\n        /* \"contracts/Usdt.sol\":14288:14307  newBasisPoints < 20 */\n      dup3\n      lt\n        /* \"contracts/Usdt.sol\":14280:14308  require(newBasisPoints < 20) */\n      tag_214\n      jumpi\n      0x0\n      dup1\n      revert\n    tag_214:\n        /* \"contracts/Usdt.sol\":14339:14341  50 */\n      0x32\n        /* \"contracts/Usdt.sol\":14327:14341  newMaxFee < 50 */\n      dup2\n      lt\n        /* \"contracts/Usdt.sol\":14319:14342  require(newMaxFee < 50) */\n      tag_215\n      jumpi\n      0x0\n      dup1\n      revert\n    tag_215:\n        /* \"contracts/Usdt.sol\":14355:14370  basisPointsRate */\n      0x3\n        /* \"contracts/Usdt.sol\":14355:14387  basisPointsRate = newBasisPoints */\n      dup3\n      swap1\n      sstore\n        /* \"contracts/Usdt.sol\":14429:14437  decimals */\n      sload(0x9)\n        /* \"contracts/Usdt.sol\":14411:14438  newMaxFee.mul(10**decimals) */\n      tag_216\n      swap1\n        /* \"contracts/Usdt.sol\":14411:14420  newMaxFee */\n      dup3\n      swap1\n        /* \"contracts/Usdt.sol\":14425:14427  10 */\n      0xa\n        /* \"contracts/Usdt.sol\":14425:14437  10**decimals */\n      exp\n        /* \"contracts/Usdt.sol\":14411:14438  newMaxFee.mul(10**decimals) */\n      0xffffffff\n        /* \"contracts/Usdt.sol\":14411:14424  newMaxFee.mul */\n      tag_217\n        /* \"contracts/Usdt.sol\":14411:14438  newMaxFee.mul(10**decimals) */\n      and\n      jump\t// in\n    tag_216:\n        /* \"contracts/Usdt.sol\":14398:14408  maximumFee */\n      0x4\n        /* \"contracts/Usdt.sol\":14398:14438  maximumFee = newMaxFee.mul(10**decimals) */\n      dup2\n      swap1\n      sstore\n        /* \"contracts/Usdt.sol\":14458:14473  basisPointsRate */\n      sload(0x3)\n        /* \"contracts/Usdt.sol\":14451:14486  Params(basisPointsRate, maximumFee) */\n      0xb044a1e409eac5c48e5af22d4af52670dd1a99059537a78b31b48c6500a6354e\n      swap2\n      mload(0x40)\n      swap2\n      dup3\n      mstore\n      0x20\n      dup3\n      add\n      mstore\n      0x40\n      swap1\n      dup2\n      add\n      swap1\n      mload\n      dup1\n      swap2\n      sub\n      swap1\n      log1\n        /* \"contracts/Usdt.sol\":14107:14494  function setParams(uint newBasisPoints, uint newMaxFee) public onlyOwner {\r... */\n      pop\n      pop\n      jump\t// out\n        /* \"contracts/Usdt.sol\":13365:13631  function issue(uint amount) public onlyOwner {\r... */\n    tag_117:\n        /* \"contracts/Usdt.sol\":1567:1572  owner */\n      sload(0x0)\n        /* \"contracts/Usdt.sol\":1553:1563  msg.sender */\n      caller\n      sub(exp(0x2, 0xa0), 0x1)\n        /* \"contracts/Usdt.sol\":1553:1572  msg.sender == owner */\n      swap1\n      dup2\n      and\n        /* \"contracts/Usdt.sol\":1567:1572  owner */\n      swap2\n      and\n        /* \"contracts/Usdt.sol\":1553:1572  msg.sender == owner */\n      eq\n        /* \"contracts/Usdt.sol\":1545:1573  require(msg.sender == owner) */\n      tag_219\n      jumpi\n      0x0\n      dup1\n      revert\n    tag_219:\n        /* \"contracts/Usdt.sol\":13453:13465  _totalSupply */\n      sload(0x1)\n        /* \"contracts/Usdt.sol\":13429:13450  _totalSupply + amount */\n      dup2\n      dup2\n      add\n        /* \"contracts/Usdt.sol\":13429:13465  _totalSupply + amount > _totalSupply */\n      gt\n        /* \"contracts/Usdt.sol\":13421:13466  require(_totalSupply + amount > _totalSupply) */\n      tag_221\n      jumpi\n      0x0\n      dup1\n      revert\n    tag_221:\n        /* \"contracts/Usdt.sol\":13512:13527  balances[owner] */\n      0x0\n        /* \"contracts/Usdt.sol\":13521:13526  owner */\n      dup1\n      sload\n      sub(exp(0x2, 0xa0), 0x1)\n      and\n        /* \"contracts/Usdt.sol\":13512:13527  balances[owner] */\n      dup2\n      mstore\n        /* \"contracts/Usdt.sol\":13512:13520  balances */\n      0x2\n        /* \"contracts/Usdt.sol\":13512:13527  balances[owner] */\n      0x20\n      mstore\n      0x40\n      swap1\n      keccak256\n      sload\n        /* \"contracts/Usdt.sol\":13485:13509  balances[owner] + amount */\n      dup2\n      dup2\n      add\n        /* \"contracts/Usdt.sol\":13485:13527  balances[owner] + amount > balances[owner] */\n      gt\n        /* \"contracts/Usdt.sol\":13477:13528  require(balances[owner] + amount > balances[owner]) */\n      tag_222\n      jumpi\n      0x0\n      dup1\n      revert\n    tag_222:\n        /* \"contracts/Usdt.sol\":13541:13556  balances[owner] */\n      0x0\n        /* \"contracts/Usdt.sol\":13550:13555  owner */\n      dup1\n      sload\n      sub(exp(0x2, 0xa0), 0x1)\n      and\n        /* \"contracts/Usdt.sol\":13541:13556  balances[owner] */\n      dup2\n      mstore\n        /* \"contracts/Usdt.sol\":13541:13549  balances */\n      0x2\n        /* \"contracts/Usdt.sol\":13541:13556  balances[owner] */\n      0x20\n      mstore\n      0x40\n      swap1\n      dup2\n      swap1\n      keccak256\n        /* \"contracts/Usdt.sol\":13541:13566  balances[owner] += amount */\n      dup1\n      sload\n      dup4\n      add\n      swap1\n      sstore\n        /* \"contracts/Usdt.sol\":13550:13555  owner */\n      0x1\n        /* \"contracts/Usdt.sol\":13577:13599  _totalSupply += amount */\n      dup1\n      sload\n      dup4\n      add\n      swap1\n      sstore\n        /* \"contracts/Usdt.sol\":13610:13623  Issue(amount) */\n      0xcb8241adb0c3fdb35b70c24ce35c5eb0c17af7431c99f827d44a445ca624176a\n      swap1\n        /* \"contracts/Usdt.sol\":13560:13566  amount */\n      dup3\n      swap1\n        /* \"contracts/Usdt.sol\":13610:13623  Issue(amount) */\n      mload\n      swap1\n      dup2\n      mstore\n      0x20\n      add\n      mload(0x40)\n      dup1\n      swap2\n      sub\n      swap1\n      log1\n        /* \"contracts/Usdt.sol\":13365:13631  function issue(uint amount) public onlyOwner {\r... */\n      pop\n      jump\t// out\n        /* \"contracts/Usdt.sol\":13862:14099  function redeem(uint amount) public onlyOwner {\r... */\n    tag_120:\n        /* \"contracts/Usdt.sol\":1567:1572  owner */\n      sload(0x0)\n        /* \"contracts/Usdt.sol\":1553:1563  msg.sender */\n      caller\n      sub(exp(0x2, 0xa0), 0x1)\n        /* \"contracts/Usdt.sol\":1553:1572  msg.sender == owner */\n      swap1\n      dup2\n      and\n        /* \"contracts/Usdt.sol\":1567:1572  owner */\n      swap2\n      and\n        /* \"contracts/Usdt.sol\":1553:1572  msg.sender == owner */\n      eq\n        /* \"contracts/Usdt.sol\":1545:1573  require(msg.sender == owner) */\n      tag_224\n      jumpi\n      0x0\n      dup1\n      revert\n    tag_224:\n        /* \"contracts/Usdt.sol\":13927:13939  _totalSupply */\n      sload(0x1)\n        /* \"contracts/Usdt.sol\":13927:13949  _totalSupply >= amount */\n      dup2\n      swap1\n      lt\n      iszero\n        /* \"contracts/Usdt.sol\":13919:13950  require(_totalSupply >= amount) */\n      tag_226\n      jumpi\n      0x0\n      dup1\n      revert\n    tag_226:\n        /* \"contracts/Usdt.sol\":13969:13984  balances[owner] */\n      0x0\n        /* \"contracts/Usdt.sol\":13978:13983  owner */\n      dup1\n      sload\n      sub(exp(0x2, 0xa0), 0x1)\n      and\n        /* \"contracts/Usdt.sol\":13969:13984  balances[owner] */\n      dup2\n      mstore\n        /* \"contracts/Usdt.sol\":13969:13977  balances */\n      0x2\n        /* \"contracts/Usdt.sol\":13969:13984  balances[owner] */\n      0x20\n      mstore\n      0x40\n      swap1\n      keccak256\n      sload\n        /* \"contracts/Usdt.sol\":13969:13994  balances[owner] >= amount */\n      dup2\n      swap1\n      lt\n      iszero\n        /* \"contracts/Usdt.sol\":13961:13995  require(balances[owner] >= amount) */\n      tag_227\n      jumpi\n      0x0\n      dup1\n      revert\n    tag_227:\n        /* \"contracts/Usdt.sol\":14008:14020  _totalSupply */\n      0x1\n        /* \"contracts/Usdt.sol\":14008:14030  _totalSupply -= amount */\n      dup1\n      sload\n      dup3\n      swap1\n      sub\n      swap1\n      sstore\n        /* \"contracts/Usdt.sol\":14008:14020  _totalSupply */\n      0x0\n        /* \"contracts/Usdt.sol\":14050:14055  owner */\n      dup1\n      sload\n      sub(exp(0x2, 0xa0), 0x1)\n      and\n        /* \"contracts/Usdt.sol\":14041:14056  balances[owner] */\n      dup2\n      mstore\n        /* \"contracts/Usdt.sol\":14041:14049  balances */\n      0x2\n        /* \"contracts/Usdt.sol\":14041:14056  balances[owner] */\n      0x20\n      mstore\n      0x40\n      swap1\n      dup2\n      swap1\n      keccak256\n        /* \"contracts/Usdt.sol\":14041:14066  balances[owner] -= amount */\n      dup1\n      sload\n      dup4\n      swap1\n      sub\n      swap1\n      sstore\n        /* \"contracts/Usdt.sol\":14077:14091  Redeem(amount) */\n      0x702d5967f45f6513a38ffc42d6ba9bf230bd40e8f53b16363c7eb4fd2deb9a44\n      swap1\n        /* \"contracts/Usdt.sol\":14024:14030  amount */\n      dup3\n      swap1\n        /* \"contracts/Usdt.sol\":14077:14091  Redeem(amount) */\n      mload\n      swap1\n      dup2\n      mstore\n      0x20\n      add\n      mload(0x40)\n      dup1\n      swap2\n      sub\n      swap1\n      log1\n        /* \"contracts/Usdt.sol\":13862:14099  function redeem(uint amount) public onlyOwner {\r... */\n      pop\n      jump\t// out\n        /* \"contracts/Usdt.sol\":12377:12670  function allowance(address _owner, address _spender) public constant returns (uint remaining) {\r... */\n    tag_123:\n        /* \"contracts/Usdt.sol\":12486:12496  deprecated */\n      sload(0xa)\n        /* \"contracts/Usdt.sol\":12455:12469  uint remaining */\n      0x0\n      swap1\n      exp(0x2, 0xa0)\n        /* \"contracts/Usdt.sol\":12486:12496  deprecated */\n      swap1\n      div\n      0xff\n      and\n        /* \"contracts/Usdt.sol\":12482:12663  if (deprecated) {\r... */\n      iszero\n      tag_229\n      jumpi\n        /* \"contracts/Usdt.sol\":12534:12549  upgradedAddress */\n      and(sub(exp(0x2, 0xa0), 0x1), sload(0xa))\n        /* \"contracts/Usdt.sol\":12520:12560  StandardToken(upgradedAddress).allowance */\n      0xdd62ed3e\n        /* \"contracts/Usdt.sol\":12561:12567  _owner */\n      dup5\n        /* \"contracts/Usdt.sol\":12569:12577  _spender */\n      dup5\n        /* \"contracts/Usdt.sol\":12534:12549  upgradedAddress */\n      0x0\n        /* \"contracts/Usdt.sol\":12520:12578  StandardToken(upgradedAddress).allowance(_owner, _spender) */\n      add(0x20, mload(0x40))\n      mstore\n      mload(0x40)\n      exp(0x2, 0xe0)\n      0xffffffff\n      dup6\n      and\n      mul\n      dup2\n      mstore\n      sub(exp(0x2, 0xa0), 0x1)\n      swap3\n      dup4\n      and\n      0x4\n      dup3\n      add\n      mstore\n      swap2\n      and\n      0x24\n      dup3\n      add\n      mstore\n      0x44\n      add\n      0x20\n      mload(0x40)\n      dup1\n      dup4\n      sub\n      dup2\n      0x0\n      dup8\n      dup1\n      extcodesize\n      iszero\n      iszero\n      tag_230\n      jumpi\n      0x0\n      dup1\n      revert\n    tag_230:\n      sub(gas, 0x2c6)\n      call\n      iszero\n      iszero\n      tag_231\n      jumpi\n      0x0\n      dup1\n      revert\n    tag_231:\n      pop\n      pop\n      pop\n      mload(0x40)\n      dup1\n      mload\n      swap1\n      pop\n        /* \"contracts/Usdt.sol\":12513:12578  return StandardToken(upgradedAddress).allowance(_owner, _spender) */\n      swap1\n      pop\n      jump(tag_232)\n        /* \"contracts/Usdt.sol\":12482:12663  if (deprecated) {\r... */\n    tag_229:\n        /* \"contracts/Usdt.sol\":12618:12651  super.allowance(_owner, _spender) */\n      tag_233\n        /* \"contracts/Usdt.sol\":12634:12640  _owner */\n      dup4\n        /* \"contracts/Usdt.sol\":12642:12650  _spender */\n      dup4\n        /* \"contracts/Usdt.sol\":12618:12633  super.allowance */\n      tag_234\n        /* \"contracts/Usdt.sol\":12618:12651  super.allowance(_owner, _spender) */\n      jump\t// in\n    tag_233:\n        /* \"contracts/Usdt.sol\":12611:12651  return super.allowance(_owner, _spender) */\n      swap1\n      pop\n        /* \"contracts/Usdt.sol\":12482:12663  if (deprecated) {\r... */\n    tag_232:\n        /* \"contracts/Usdt.sol\":12377:12670  function allowance(address _owner, address _spender) public constant returns (uint remaining) {\r... */\n      swap3\n      swap2\n      pop\n      pop\n      jump\t// out\n        /* \"contracts/Usdt.sol\":3112:3143  uint public basisPointsRate = 0 */\n    tag_126:\n      sload(0x3)\n      dup2\n      jump\t// out\n        /* \"contracts/Usdt.sol\":8688:8734  mapping (address => bool) public isBlackListed */\n    tag_129:\n      mstore(0x20, 0x6)\n      0x0\n      swap1\n      dup2\n      mstore\n      0x40\n      swap1\n      keccak256\n      sload\n      0xff\n      and\n      dup2\n      jump\t// out\n        /* \"contracts/Usdt.sol\":8900:9060  function removeBlackList (address _clearedUser) public onlyOwner {\r... */\n    tag_132:\n        /* \"contracts/Usdt.sol\":1567:1572  owner */\n      sload(0x0)\n        /* \"contracts/Usdt.sol\":1553:1563  msg.sender */\n      caller\n      sub(exp(0x2, 0xa0), 0x1)\n        /* \"contracts/Usdt.sol\":1553:1572  msg.sender == owner */\n      swap1\n      dup2\n      and\n        /* \"contracts/Usdt.sol\":1567:1572  owner */\n      swap2\n      and\n        /* \"contracts/Usdt.sol\":1553:1572  msg.sender == owner */\n      eq\n        /* \"contracts/Usdt.sol\":1545:1573  require(msg.sender == owner) */\n      tag_236\n      jumpi\n      0x0\n      dup1\n      revert\n    tag_236:\n      sub(exp(0x2, 0xa0), 0x1)\n        /* \"contracts/Usdt.sol\":8976:9003  isBlackListed[_clearedUser] */\n      dup2\n      and\n        /* \"contracts/Usdt.sol\":9006:9011  false */\n      0x0\n        /* \"contracts/Usdt.sol\":8976:9003  isBlackListed[_clearedUser] */\n      swap1\n      dup2\n      mstore\n        /* \"contracts/Usdt.sol\":8976:8989  isBlackListed */\n      0x6\n        /* \"contracts/Usdt.sol\":8976:9003  isBlackListed[_clearedUser] */\n      0x20\n      mstore\n      0x40\n      swap1\n      dup2\n      swap1\n      keccak256\n        /* \"contracts/Usdt.sol\":8976:9011  isBlackListed[_clearedUser] = false */\n      dup1\n      sload\n      not(0xff)\n      and\n      swap1\n      sstore\n        /* \"contracts/Usdt.sol\":9022:9052  RemovedBlackList(_clearedUser) */\n      0xd7e9ec6e6ecd65492dce6bf513cd6867560d49544421d0783ddf06e76c24470c\n      swap1\n        /* \"contracts/Usdt.sol\":8990:9002  _clearedUser */\n      dup3\n      swap1\n        /* \"contracts/Usdt.sol\":9022:9052  RemovedBlackList(_clearedUser) */\n      mload\n      sub(exp(0x2, 0xa0), 0x1)\n      swap1\n      swap2\n      and\n      dup2\n      mstore\n      0x20\n      add\n      mload(0x40)\n      dup1\n      swap2\n      sub\n      swap1\n      log1\n        /* \"contracts/Usdt.sol\":8900:9060  function removeBlackList (address _clearedUser) public onlyOwner {\r... */\n      pop\n      jump\t// out\n        /* \"contracts/Usdt.sol\":4844:4886  uint public constant MAX_UINT = 2**256 - 1 */\n    tag_135:\n      not(0x0)\n      dup2\n      jump\t// out\n        /* \"contracts/Usdt.sol\":1767:1918  function transferOwnership(address newOwner) public onlyOwner {\r... */\n    tag_138:\n        /* \"contracts/Usdt.sol\":1567:1572  owner */\n      sload(0x0)\n        /* \"contracts/Usdt.sol\":1553:1563  msg.sender */\n      caller\n      sub(exp(0x2, 0xa0), 0x1)\n        /* \"contracts/Usdt.sol\":1553:1572  msg.sender == owner */\n      swap1\n      dup2\n      and\n        /* \"contracts/Usdt.sol\":1567:1572  owner */\n      swap2\n      and\n        /* \"contracts/Usdt.sol\":1553:1572  msg.sender == owner */\n      eq\n        /* \"contracts/Usdt.sol\":1545:1573  require(msg.sender == owner) */\n      tag_239\n      jumpi\n      0x0\n      dup1\n      revert\n    tag_239:\n      sub(exp(0x2, 0xa0), 0x1)\n        /* \"contracts/Usdt.sol\":1844:1866  newOwner != address(0) */\n      dup2\n      and\n      iszero\n        /* \"contracts/Usdt.sol\":1840:1911  if (newOwner != address(0)) {\r... */\n      tag_241\n      jumpi\n        /* \"contracts/Usdt.sol\":1883:1888  owner */\n      0x0\n        /* \"contracts/Usdt.sol\":1883:1899  owner = newOwner */\n      dup1\n      sload\n      not(0xffffffffffffffffffffffffffffffffffffffff)\n      and\n      sub(exp(0x2, 0xa0), 0x1)\n      dup4\n      and\n      or\n      swap1\n      sstore\n        /* \"contracts/Usdt.sol\":1840:1911  if (newOwner != address(0)) {\r... */\n    tag_241:\n        /* \"contracts/Usdt.sol\":1767:1918  function transferOwnership(address newOwner) public onlyOwner {\r... */\n      pop\n      jump\t// out\n        /* \"contracts/Usdt.sol\":9068:9392  function destroyBlackFunds (address _blackListedUser) public onlyOwner {\r... */\n    tag_141:\n        /* \"contracts/Usdt.sol\":9201:9216  uint dirtyFunds */\n      0x0\n        /* \"contracts/Usdt.sol\":1567:1572  owner */\n      dup1\n      sload\n        /* \"contracts/Usdt.sol\":1553:1563  msg.sender */\n      caller\n      sub(exp(0x2, 0xa0), 0x1)\n        /* \"contracts/Usdt.sol\":1553:1572  msg.sender == owner */\n      swap1\n      dup2\n      and\n        /* \"contracts/Usdt.sol\":1567:1572  owner */\n      swap2\n      and\n        /* \"contracts/Usdt.sol\":1553:1572  msg.sender == owner */\n      eq\n        /* \"contracts/Usdt.sol\":1545:1573  require(msg.sender == owner) */\n      tag_243\n      jumpi\n      0x0\n      dup1\n      revert\n    tag_243:\n      sub(exp(0x2, 0xa0), 0x1)\n        /* \"contracts/Usdt.sol\":9158:9189  isBlackListed[_blackListedUser] */\n      dup3\n      and\n      0x0\n      swap1\n      dup2\n      mstore\n        /* \"contracts/Usdt.sol\":9158:9171  isBlackListed */\n      0x6\n        /* \"contracts/Usdt.sol\":9158:9189  isBlackListed[_blackListedUser] */\n      0x20\n      mstore\n      0x40\n      swap1\n      keccak256\n      sload\n      0xff\n      and\n        /* \"contracts/Usdt.sol\":9150:9190  require(isBlackListed[_blackListedUser]) */\n      iszero\n      iszero\n      tag_245\n      jumpi\n      0x0\n      dup1\n      revert\n    tag_245:\n        /* \"contracts/Usdt.sol\":9219:9246  balanceOf(_blackListedUser) */\n      tag_246\n        /* \"contracts/Usdt.sol\":9229:9245  _blackListedUser */\n      dup3\n        /* \"contracts/Usdt.sol\":9219:9228  balanceOf */\n      tag_92\n        /* \"contracts/Usdt.sol\":9219:9246  balanceOf(_blackListedUser) */\n      jump\t// in\n    tag_246:\n      sub(exp(0x2, 0xa0), 0x1)\n        /* \"contracts/Usdt.sol\":9257:9283  balances[_blackListedUser] */\n      dup4\n      and\n        /* \"contracts/Usdt.sol\":9286:9287  0 */\n      0x0\n        /* \"contracts/Usdt.sol\":9257:9283  balances[_blackListedUser] */\n      swap1\n      dup2\n      mstore\n        /* \"contracts/Usdt.sol\":9257:9265  balances */\n      0x2\n        /* \"contracts/Usdt.sol\":9257:9283  balances[_blackListedUser] */\n      0x20\n      mstore\n      0x40\n      dup1\n      dup3\n      keccak256\n        /* \"contracts/Usdt.sol\":9257:9287  balances[_blackListedUser] = 0 */\n      swap2\n      swap1\n      swap2\n      sstore\n        /* \"contracts/Usdt.sol\":9298:9310  _totalSupply */\n      0x1\n        /* \"contracts/Usdt.sol\":9298:9324  _totalSupply -= dirtyFunds */\n      dup1\n      sload\n      dup4\n      swap1\n      sub\n      swap1\n      sstore\n        /* \"contracts/Usdt.sol\":9201:9246  uint dirtyFunds = balanceOf(_blackListedUser) */\n      swap1\n      swap2\n      pop\n        /* \"contracts/Usdt.sol\":9335:9384  DestroyedBlackFunds(_blackListedUser, dirtyFunds) */\n      0x61e6e66b0d6339b2980aecc6ccc0039736791f0ccde9ed512e789a7fbdd698c6\n      swap1\n        /* \"contracts/Usdt.sol\":9266:9282  _blackListedUser */\n      dup4\n      swap1\n        /* \"contracts/Usdt.sol\":9201:9246  uint dirtyFunds = balanceOf(_blackListedUser) */\n      dup4\n      swap1\n        /* \"contracts/Usdt.sol\":9335:9384  DestroyedBlackFunds(_blackListedUser, dirtyFunds) */\n      mload\n      sub(exp(0x2, 0xa0), 0x1)\n      swap1\n      swap3\n      and\n      dup3\n      mstore\n      0x20\n      dup3\n      add\n      mstore\n      0x40\n      swap1\n      dup2\n      add\n      swap1\n      mload\n      dup1\n      swap2\n      sub\n      swap1\n      log1\n        /* \"contracts/Usdt.sol\":9068:9392  function destroyBlackFunds (address _blackListedUser) public onlyOwner {\r... */\n      pop\n      pop\n      jump\t// out\n        /* \"contracts/Usdt.sol\":6324:6897  function approve(address _spender, uint _value) public onlyPayloadSize(2 * 32) {\r... */\n    tag_156:\n        /* \"contracts/Usdt.sol\":6395:6401  2 * 32 */\n      0x40\n        /* \"contracts/Usdt.sol\":3329:3337  size + 4 */\n      0x44\n        /* \"contracts/Usdt.sol\":3311:3319  msg.data */\n      calldatasize\n        /* \"contracts/Usdt.sol\":3311:3337  msg.data.length < size + 4 */\n      lt\n        /* \"contracts/Usdt.sol\":3309:3338  !(msg.data.length < size + 4) */\n      iszero\n        /* \"contracts/Usdt.sol\":3301:3339  require(!(msg.data.length < size + 4)) */\n      tag_248\n      jumpi\n      0x0\n      dup1\n      revert\n    tag_248:\n        /* \"contracts/Usdt.sol\":6735:6746  _value != 0 */\n      dup2\n      iszero\n      dup1\n      iszero\n      swap1\n        /* \"contracts/Usdt.sol\":6734:6787  (_value != 0) && (allowed[msg.sender][_spender] != 0) */\n      tag_250\n      jumpi\n      pop\n      sub(exp(0x2, 0xa0), 0x1)\n        /* \"contracts/Usdt.sol\":6760:6770  msg.sender */\n      caller\n        /* \"contracts/Usdt.sol\":6752:6771  allowed[msg.sender] */\n      dup2\n      and\n      0x0\n      swap1\n      dup2\n      mstore\n        /* \"contracts/Usdt.sol\":6752:6759  allowed */\n      0x5\n        /* \"contracts/Usdt.sol\":6752:6771  allowed[msg.sender] */\n      0x20\n      swap1\n      dup2\n      mstore\n      0x40\n      dup1\n      dup4\n      keccak256\n        /* \"contracts/Usdt.sol\":6752:6781  allowed[msg.sender][_spender] */\n      swap4\n      dup8\n      and\n      dup4\n      mstore\n      swap3\n      swap1\n      mstore\n      keccak256\n      sload\n        /* \"contracts/Usdt.sol\":6752:6786  allowed[msg.sender][_spender] != 0 */\n      iszero\n      iszero\n        /* \"contracts/Usdt.sol\":6734:6787  (_value != 0) && (allowed[msg.sender][_spender] != 0) */\n    tag_250:\n        /* \"contracts/Usdt.sol\":6732:6788  !((_value != 0) && (allowed[msg.sender][_spender] != 0)) */\n      iszero\n        /* \"contracts/Usdt.sol\":6724:6789  require(!((_value != 0) && (allowed[msg.sender][_spender] != 0))) */\n      tag_251\n      jumpi\n      0x0\n      dup1\n      revert\n    tag_251:\n      sub(exp(0x2, 0xa0), 0x1)\n        /* \"contracts/Usdt.sol\":6810:6820  msg.sender */\n      caller\n        /* \"contracts/Usdt.sol\":6802:6821  allowed[msg.sender] */\n      dup2\n      and\n      0x0\n      dup2\n      dup2\n      mstore\n        /* \"contracts/Usdt.sol\":6802:6809  allowed */\n      0x5\n        /* \"contracts/Usdt.sol\":6802:6821  allowed[msg.sender] */\n      0x20\n      swap1\n      dup2\n      mstore\n      0x40\n      dup1\n      dup4\n      keccak256\n        /* \"contracts/Usdt.sol\":6802:6831  allowed[msg.sender][_spender] */\n      swap5\n      dup9\n      and\n      dup1\n      dup5\n      mstore\n      swap5\n      swap1\n      swap2\n      mstore\n      swap1\n      dup2\n      swap1\n      keccak256\n        /* \"contracts/Usdt.sol\":6802:6840  allowed[msg.sender][_spender] = _value */\n      dup6\n      swap1\n      sstore\n        /* \"contracts/Usdt.sol\":6851:6889  Approval(msg.sender, _spender, _value) */\n      0x8c5be1e5ebec7d5bd14f71427d1e84f3dd0314c0f7b2291e5b200ac8c7c3b925\n      swap1\n        /* \"contracts/Usdt.sol\":6834:6840  _value */\n      dup6\n      swap1\n        /* \"contracts/Usdt.sol\":6851:6889  Approval(msg.sender, _spender, _value) */\n      mload\n      swap1\n      dup2\n      mstore\n      0x20\n      add\n      mload(0x40)\n      dup1\n      swap2\n      sub\n      swap1\n      log3\n        /* \"contracts/Usdt.sol\":6324:6897  function approve(address _spender, uint _value) public onlyPayloadSize(2 * 32) {\r... */\n      pop\n      pop\n      pop\n      jump\t// out\n        /* \"contracts/Usdt.sol\":5176:6077  function transferFrom(address _from, address _to, uint _value) public onlyPayloadSize(3 * 32) {\r... */\n    tag_174:\n        /* \"contracts/Usdt.sol\":5281:5295  var _allowance */\n      0x0\n      dup1\n      dup1\n        /* \"contracts/Usdt.sol\":5262:5268  3 * 32 */\n      0x60\n        /* \"contracts/Usdt.sol\":3329:3337  size + 4 */\n      0x64\n        /* \"contracts/Usdt.sol\":3311:3319  msg.data */\n      calldatasize\n        /* \"contracts/Usdt.sol\":3311:3337  msg.data.length < size + 4 */\n      lt\n        /* \"contracts/Usdt.sol\":3309:3338  !(msg.data.length < size + 4) */\n      iszero\n        /* \"contracts/Usdt.sol\":3301:3339  require(!(msg.data.length < size + 4)) */\n      tag_253\n      jumpi\n      0x0\n      dup1\n      revert\n    tag_253:\n      sub(exp(0x2, 0xa0), 0x1)\n        /* \"contracts/Usdt.sol\":5298:5312  allowed[_from] */\n      dup1\n      dup9\n      and\n      0x0\n      swap1\n      dup2\n      mstore\n        /* \"contracts/Usdt.sol\":5298:5305  allowed */\n      0x5\n        /* \"contracts/Usdt.sol\":5298:5312  allowed[_from] */\n      0x20\n      swap1\n      dup2\n      mstore\n      0x40\n      dup1\n      dup4\n      keccak256\n        /* \"contracts/Usdt.sol\":5313:5323  msg.sender */\n      caller\n        /* \"contracts/Usdt.sol\":5298:5324  allowed[_from][msg.sender] */\n      swap1\n      swap5\n      and\n      dup4\n      mstore\n      swap3\n      swap1\n      mstore\n      keccak256\n      sload\n        /* \"contracts/Usdt.sol\":5518:5533  basisPointsRate */\n      sload(0x3)\n        /* \"contracts/Usdt.sol\":5298:5324  allowed[_from][msg.sender] */\n      swap1\n      swap5\n      pop\n        /* \"contracts/Usdt.sol\":5506:5546  (_value.mul(basisPointsRate)).div(10000) */\n      tag_255\n      swap1\n        /* \"contracts/Usdt.sol\":5540:5545  10000 */\n      0x2710\n      swap1\n        /* \"contracts/Usdt.sol\":5507:5534  _value.mul(basisPointsRate) */\n      tag_256\n      swap1\n        /* \"contracts/Usdt.sol\":5507:5513  _value */\n      dup9\n      swap1\n        /* \"contracts/Usdt.sol\":5507:5534  _value.mul(basisPointsRate) */\n      0xffffffff\n        /* \"contracts/Usdt.sol\":5507:5517  _value.mul */\n      tag_217\n        /* \"contracts/Usdt.sol\":5507:5534  _value.mul(basisPointsRate) */\n      and\n      jump\t// in\n    tag_256:\n        /* \"contracts/Usdt.sol\":5506:5539  (_value.mul(basisPointsRate)).div */\n      swap1\n        /* \"contracts/Usdt.sol\":5506:5546  (_value.mul(basisPointsRate)).div(10000) */\n      0xffffffff\n        /* \"contracts/Usdt.sol\":5506:5539  (_value.mul(basisPointsRate)).div */\n      tag_257\n        /* \"contracts/Usdt.sol\":5506:5546  (_value.mul(basisPointsRate)).div(10000) */\n      and\n      jump\t// in\n    tag_255:\n        /* \"contracts/Usdt.sol\":5495:5546  uint fee = (_value.mul(basisPointsRate)).div(10000) */\n      swap3\n      pop\n        /* \"contracts/Usdt.sol\":5567:5577  maximumFee */\n      sload(0x4)\n        /* \"contracts/Usdt.sol\":5561:5564  fee */\n      dup4\n        /* \"contracts/Usdt.sol\":5561:5577  fee > maximumFee */\n      gt\n        /* \"contracts/Usdt.sol\":5557:5622  if (fee > maximumFee) {\r... */\n      iszero\n      tag_258\n      jumpi\n        /* \"contracts/Usdt.sol\":5600:5610  maximumFee */\n      sload(0x4)\n        /* \"contracts/Usdt.sol\":5594:5610  fee = maximumFee */\n      swap3\n      pop\n        /* \"contracts/Usdt.sol\":5557:5622  if (fee > maximumFee) {\r... */\n    tag_258:\n      not(0x0)\n        /* \"contracts/Usdt.sol\":5636:5646  _allowance */\n      dup5\n        /* \"contracts/Usdt.sol\":5636:5657  _allowance < MAX_UINT */\n      lt\n        /* \"contracts/Usdt.sol\":5632:5737  if (_allowance < MAX_UINT) {\r... */\n      iszero\n      tag_259\n      jumpi\n        /* \"contracts/Usdt.sol\":5703:5725  _allowance.sub(_value) */\n      tag_260\n        /* \"contracts/Usdt.sol\":5703:5713  _allowance */\n      dup5\n        /* \"contracts/Usdt.sol\":5718:5724  _value */\n      dup7\n        /* \"contracts/Usdt.sol\":5703:5725  _allowance.sub(_value) */\n      0xffffffff\n        /* \"contracts/Usdt.sol\":5703:5717  _allowance.sub */\n      tag_261\n        /* \"contracts/Usdt.sol\":5703:5725  _allowance.sub(_value) */\n      and\n      jump\t// in\n    tag_260:\n      sub(exp(0x2, 0xa0), 0x1)\n        /* \"contracts/Usdt.sol\":5674:5688  allowed[_from] */\n      dup1\n      dup10\n      and\n      0x0\n      swap1\n      dup2\n      mstore\n        /* \"contracts/Usdt.sol\":5674:5681  allowed */\n      0x5\n        /* \"contracts/Usdt.sol\":5674:5688  allowed[_from] */\n      0x20\n      swap1\n      dup2\n      mstore\n      0x40\n      dup1\n      dup4\n      keccak256\n        /* \"contracts/Usdt.sol\":5689:5699  msg.sender */\n      caller\n        /* \"contracts/Usdt.sol\":5674:5700  allowed[_from][msg.sender] */\n      swap1\n      swap5\n      and\n      dup4\n      mstore\n      swap3\n      swap1\n      mstore\n      keccak256\n        /* \"contracts/Usdt.sol\":5674:5725  allowed[_from][msg.sender] = _allowance.sub(_value) */\n      sstore\n        /* \"contracts/Usdt.sol\":5632:5737  if (_allowance < MAX_UINT) {\r... */\n    tag_259:\n        /* \"contracts/Usdt.sol\":5765:5780  _value.sub(fee) */\n      tag_262\n        /* \"contracts/Usdt.sol\":5765:5771  _value */\n      dup6\n        /* \"contracts/Usdt.sol\":5776:5779  fee */\n      dup5\n        /* \"contracts/Usdt.sol\":5765:5780  _value.sub(fee) */\n      0xffffffff\n        /* \"contracts/Usdt.sol\":5765:5775  _value.sub */\n      tag_261\n        /* \"contracts/Usdt.sol\":5765:5780  _value.sub(fee) */\n      and\n      jump\t// in\n    tag_262:\n      sub(exp(0x2, 0xa0), 0x1)\n        /* \"contracts/Usdt.sol\":5809:5824  balances[_from] */\n      dup9\n      and\n      0x0\n      swap1\n      dup2\n      mstore\n        /* \"contracts/Usdt.sol\":5809:5817  balances */\n      0x2\n        /* \"contracts/Usdt.sol\":5809:5824  balances[_from] */\n      0x20\n      mstore\n      0x40\n      swap1\n      keccak256\n      sload\n        /* \"contracts/Usdt.sol\":5747:5780  uint sendAmount = _value.sub(fee) */\n      swap1\n      swap3\n      pop\n        /* \"contracts/Usdt.sol\":5809:5836  balances[_from].sub(_value) */\n      tag_263\n      swap1\n        /* \"contracts/Usdt.sol\":5829:5835  _value */\n      dup7\n        /* \"contracts/Usdt.sol\":5809:5836  balances[_from].sub(_value) */\n      0xffffffff\n        /* \"contracts/Usdt.sol\":5809:5828  balances[_from].sub */\n      tag_261\n        /* \"contracts/Usdt.sol\":5809:5836  balances[_from].sub(_value) */\n      and\n      jump\t// in\n    tag_263:\n      sub(exp(0x2, 0xa0), 0x1)\n        /* \"contracts/Usdt.sol\":5791:5806  balances[_from] */\n      dup1\n      dup10\n      and\n      0x0\n      swap1\n      dup2\n      mstore\n        /* \"contracts/Usdt.sol\":5791:5799  balances */\n      0x2\n        /* \"contracts/Usdt.sol\":5791:5806  balances[_from] */\n      0x20\n      mstore\n      0x40\n      dup1\n      dup3\n      keccak256\n        /* \"contracts/Usdt.sol\":5791:5836  balances[_from] = balances[_from].sub(_value) */\n      swap4\n      swap1\n      swap4\n      sstore\n        /* \"contracts/Usdt.sol\":5863:5876  balances[_to] */\n      swap1\n      dup9\n      and\n      dup2\n      mstore\n      keccak256\n      sload\n        /* \"contracts/Usdt.sol\":5863:5892  balances[_to].add(sendAmount) */\n      tag_264\n      swap1\n        /* \"contracts/Usdt.sol\":5881:5891  sendAmount */\n      dup4\n        /* \"contracts/Usdt.sol\":5863:5892  balances[_to].add(sendAmount) */\n      0xffffffff\n        /* \"contracts/Usdt.sol\":5863:5880  balances[_to].add */\n      tag_265\n        /* \"contracts/Usdt.sol\":5863:5892  balances[_to].add(sendAmount) */\n      and\n      jump\t// in\n    tag_264:\n      sub(exp(0x2, 0xa0), 0x1)\n        /* \"contracts/Usdt.sol\":5847:5860  balances[_to] */\n      dup8\n      and\n      0x0\n      swap1\n      dup2\n      mstore\n        /* \"contracts/Usdt.sol\":5847:5855  balances */\n      0x2\n        /* \"contracts/Usdt.sol\":5847:5860  balances[_to] */\n      0x20\n      mstore\n      0x40\n      dup2\n      keccak256\n        /* \"contracts/Usdt.sol\":5847:5892  balances[_to] = balances[_to].add(sendAmount) */\n      swap2\n      swap1\n      swap2\n      sstore\n        /* \"contracts/Usdt.sol\":5907:5914  fee > 0 */\n      dup4\n      gt\n        /* \"contracts/Usdt.sol\":5903:6027  if (fee > 0) {\r... */\n      iszero\n      tag_266\n      jumpi\n        /* \"contracts/Usdt.sol\":5949:5964  balances[owner] */\n      0x0\n        /* \"contracts/Usdt.sol\":5958:5963  owner */\n      dup1\n      sload\n      sub(exp(0x2, 0xa0), 0x1)\n      and\n        /* \"contracts/Usdt.sol\":5949:5964  balances[owner] */\n      dup2\n      mstore\n        /* \"contracts/Usdt.sol\":5949:5957  balances */\n      0x2\n        /* \"contracts/Usdt.sol\":5949:5964  balances[owner] */\n      0x20\n      mstore\n      0x40\n      swap1\n      keccak256\n      sload\n        /* \"contracts/Usdt.sol\":5949:5973  balances[owner].add(fee) */\n      tag_267\n      swap1\n        /* \"contracts/Usdt.sol\":5969:5972  fee */\n      dup5\n        /* \"contracts/Usdt.sol\":5949:5973  balances[owner].add(fee) */\n      0xffffffff\n        /* \"contracts/Usdt.sol\":5949:5968  balances[owner].add */\n      tag_265\n        /* \"contracts/Usdt.sol\":5949:5973  balances[owner].add(fee) */\n      and\n      jump\t// in\n    tag_267:\n        /* \"contracts/Usdt.sol\":5931:5946  balances[owner] */\n      0x0\n        /* \"contracts/Usdt.sol\":5940:5945  owner */\n      dup1\n      sload\n      sub(exp(0x2, 0xa0), 0x1)\n      swap1\n      dup2\n      and\n        /* \"contracts/Usdt.sol\":5931:5946  balances[owner] */\n      dup3\n      mstore\n        /* \"contracts/Usdt.sol\":5931:5939  balances */\n      0x2\n        /* \"contracts/Usdt.sol\":5931:5946  balances[owner] */\n      0x20\n      mstore\n      0x40\n      dup1\n      dup4\n      keccak256\n        /* \"contracts/Usdt.sol\":5931:5973  balances[owner] = balances[owner].add(fee) */\n      swap4\n      swap1\n      swap4\n      sstore\n        /* \"contracts/Usdt.sol\":6004:6009  owner */\n      swap1\n      sload\n      dup2\n      and\n      swap2\n        /* \"contracts/Usdt.sol\":5988:6015  Transfer(_from, owner, fee) */\n      swap1\n      dup10\n      and\n      swap1\n      0x0\n      dup1\n      mload\n      0x20\n      data_ada389e1fc24a8587c776340efb91b36e675792ab631816100d55df0b5cf3cbc\n      dup4\n      codecopy\n      dup2\n      mload\n      swap2\n      mstore\n      swap1\n        /* \"contracts/Usdt.sol\":6011:6014  fee */\n      dup7\n      swap1\n        /* \"contracts/Usdt.sol\":5988:6015  Transfer(_from, owner, fee) */\n      mload\n      swap1\n      dup2\n      mstore\n      0x20\n      add\n      mload(0x40)\n      dup1\n      swap2\n      sub\n      swap1\n      log3\n        /* \"contracts/Usdt.sol\":5903:6027  if (fee > 0) {\r... */\n    tag_266:\n        /* \"contracts/Usdt.sol\":6053:6056  _to */\n      dup6\n      sub(exp(0x2, 0xa0), 0x1)\n        /* \"contracts/Usdt.sol\":6037:6069  Transfer(_from, _to, sendAmount) */\n      and\n        /* \"contracts/Usdt.sol\":6046:6051  _from */\n      dup8\n      sub(exp(0x2, 0xa0), 0x1)\n        /* \"contracts/Usdt.sol\":6037:6069  Transfer(_from, _to, sendAmount) */\n      and\n      0x0\n      dup1\n      mload\n      0x20\n      data_ada389e1fc24a8587c776340efb91b36e675792ab631816100d55df0b5cf3cbc\n      dup4\n      codecopy\n      dup2\n      mload\n      swap2\n      mstore\n        /* \"contracts/Usdt.sol\":6058:6068  sendAmount */\n      dup5\n        /* \"contracts/Usdt.sol\":6037:6069  Transfer(_from, _to, sendAmount) */\n      mload(0x40)\n      swap1\n      dup2\n      mstore\n      0x20\n      add\n      mload(0x40)\n      dup1\n      swap2\n      sub\n      swap1\n      log3\n        /* \"contracts/Usdt.sol\":5176:6077  function transferFrom(address _from, address _to, uint _value) public onlyPayloadSize(3 * 32) {\r... */\n      pop\n      pop\n      pop\n      pop\n      pop\n      pop\n      pop\n      jump\t// out\n        /* \"contracts/Usdt.sol\":4323:4439  function balanceOf(address _owner) public constant returns (uint balance) {\r... */\n    tag_191:\n      sub(exp(0x2, 0xa0), 0x1)\n        /* \"contracts/Usdt.sol\":4415:4431  balances[_owner] */\n      and\n        /* \"contracts/Usdt.sol\":4383:4395  uint balance */\n      0x0\n        /* \"contracts/Usdt.sol\":4415:4431  balances[_owner] */\n      swap1\n      dup2\n      mstore\n        /* \"contracts/Usdt.sol\":4415:4423  balances */\n      0x2\n        /* \"contracts/Usdt.sol\":4415:4431  balances[_owner] */\n      0x20\n      mstore\n      0x40\n      swap1\n      keccak256\n      sload\n      swap1\n        /* \"contracts/Usdt.sol\":4323:4439  function balanceOf(address _owner) public constant returns (uint balance) {\r... */\n      jump\t// out\n        /* \"contracts/Usdt.sol\":3532:4105  function transfer(address _to, uint _value) public onlyPayloadSize(2 * 32) {\r... */\n    tag_210:\n        /* \"contracts/Usdt.sol\":3618:3626  uint fee */\n      0x0\n      dup1\n        /* \"contracts/Usdt.sol\":3599:3605  2 * 32 */\n      0x40\n        /* \"contracts/Usdt.sol\":3329:3337  size + 4 */\n      0x44\n        /* \"contracts/Usdt.sol\":3311:3319  msg.data */\n      calldatasize\n        /* \"contracts/Usdt.sol\":3311:3337  msg.data.length < size + 4 */\n      lt\n        /* \"contracts/Usdt.sol\":3309:3338  !(msg.data.length < size + 4) */\n      iszero\n        /* \"contracts/Usdt.sol\":3301:3339  require(!(msg.data.length < size + 4)) */\n      tag_270\n      jumpi\n      0x0\n      dup1\n      revert\n    tag_270:\n        /* \"contracts/Usdt.sol\":3629:3669  (_value.mul(basisPointsRate)).div(10000) */\n      tag_272\n        /* \"contracts/Usdt.sol\":3663:3668  10000 */\n      0x2710\n        /* \"contracts/Usdt.sol\":3630:3657  _value.mul(basisPointsRate) */\n      tag_256\n        /* \"contracts/Usdt.sol\":3641:3656  basisPointsRate */\n      sload(0x3)\n        /* \"contracts/Usdt.sol\":3630:3636  _value */\n      dup8\n        /* \"contracts/Usdt.sol\":3630:3640  _value.mul */\n      tag_217\n      swap1\n        /* \"contracts/Usdt.sol\":3630:3657  _value.mul(basisPointsRate) */\n      swap2\n      swap1\n      0xffffffff\n      and\n      jump\t// in\n        /* \"contracts/Usdt.sol\":3629:3669  (_value.mul(basisPointsRate)).div(10000) */\n    tag_272:\n        /* \"contracts/Usdt.sol\":3618:3669  uint fee = (_value.mul(basisPointsRate)).div(10000) */\n      swap3\n      pop\n        /* \"contracts/Usdt.sol\":3690:3700  maximumFee */\n      sload(0x4)\n        /* \"contracts/Usdt.sol\":3684:3687  fee */\n      dup4\n        /* \"contracts/Usdt.sol\":3684:3700  fee > maximumFee */\n      gt\n        /* \"contracts/Usdt.sol\":3680:3745  if (fee > maximumFee) {\r... */\n      iszero\n      tag_274\n      jumpi\n        /* \"contracts/Usdt.sol\":3723:3733  maximumFee */\n      sload(0x4)\n        /* \"contracts/Usdt.sol\":3717:3733  fee = maximumFee */\n      swap3\n      pop\n        /* \"contracts/Usdt.sol\":3680:3745  if (fee > maximumFee) {\r... */\n    tag_274:\n        /* \"contracts/Usdt.sol\":3773:3788  _value.sub(fee) */\n      tag_275\n        /* \"contracts/Usdt.sol\":3773:3779  _value */\n      dup5\n        /* \"contracts/Usdt.sol\":3784:3787  fee */\n      dup5\n        /* \"contracts/Usdt.sol\":3773:3788  _value.sub(fee) */\n      0xffffffff\n        /* \"contracts/Usdt.sol\":3773:3783  _value.sub */\n      tag_261\n        /* \"contracts/Usdt.sol\":3773:3788  _value.sub(fee) */\n      and\n      jump\t// in\n    tag_275:\n      sub(exp(0x2, 0xa0), 0x1)\n        /* \"contracts/Usdt.sol\":3831:3841  msg.sender */\n      caller\n        /* \"contracts/Usdt.sol\":3822:3842  balances[msg.sender] */\n      and\n      0x0\n      swap1\n      dup2\n      mstore\n        /* \"contracts/Usdt.sol\":3822:3830  balances */\n      0x2\n        /* \"contracts/Usdt.sol\":3822:3842  balances[msg.sender] */\n      0x20\n      mstore\n      0x40\n      swap1\n      keccak256\n      sload\n        /* \"contracts/Usdt.sol\":3755:3788  uint sendAmount = _value.sub(fee) */\n      swap1\n      swap3\n      pop\n        /* \"contracts/Usdt.sol\":3822:3854  balances[msg.sender].sub(_value) */\n      tag_276\n      swap1\n        /* \"contracts/Usdt.sol\":3847:3853  _value */\n      dup6\n        /* \"contracts/Usdt.sol\":3822:3854  balances[msg.sender].sub(_value) */\n      0xffffffff\n        /* \"contracts/Usdt.sol\":3822:3846  balances[msg.sender].sub */\n      tag_261\n        /* \"contracts/Usdt.sol\":3822:3854  balances[msg.sender].sub(_value) */\n      and\n      jump\t// in\n    tag_276:\n      sub(exp(0x2, 0xa0), 0x1)\n        /* \"contracts/Usdt.sol\":3808:3818  msg.sender */\n      caller\n        /* \"contracts/Usdt.sol\":3799:3819  balances[msg.sender] */\n      dup2\n      and\n      0x0\n      swap1\n      dup2\n      mstore\n        /* \"contracts/Usdt.sol\":3799:3807  balances */\n      0x2\n        /* \"contracts/Usdt.sol\":3799:3819  balances[msg.sender] */\n      0x20\n      mstore\n      0x40\n      dup1\n      dup3\n      keccak256\n        /* \"contracts/Usdt.sol\":3799:3854  balances[msg.sender] = balances[msg.sender].sub(_value) */\n      swap4\n      swap1\n      swap4\n      sstore\n        /* \"contracts/Usdt.sol\":3881:3894  balances[_to] */\n      swap1\n      dup8\n      and\n      dup2\n      mstore\n      keccak256\n      sload\n        /* \"contracts/Usdt.sol\":3881:3910  balances[_to].add(sendAmount) */\n      tag_277\n      swap1\n        /* \"contracts/Usdt.sol\":3899:3909  sendAmount */\n      dup4\n        /* \"contracts/Usdt.sol\":3881:3910  balances[_to].add(sendAmount) */\n      0xffffffff\n        /* \"contracts/Usdt.sol\":3881:3898  balances[_to].add */\n      tag_265\n        /* \"contracts/Usdt.sol\":3881:3910  balances[_to].add(sendAmount) */\n      and\n      jump\t// in\n    tag_277:\n      sub(exp(0x2, 0xa0), 0x1)\n        /* \"contracts/Usdt.sol\":3865:3878  balances[_to] */\n      dup7\n      and\n      0x0\n      swap1\n      dup2\n      mstore\n        /* \"contracts/Usdt.sol\":3865:3873  balances */\n      0x2\n        /* \"contracts/Usdt.sol\":3865:3878  balances[_to] */\n      0x20\n      mstore\n      0x40\n      dup2\n      keccak256\n        /* \"contracts/Usdt.sol\":3865:3910  balances[_to] = balances[_to].add(sendAmount) */\n      swap2\n      swap1\n      swap2\n      sstore\n        /* \"contracts/Usdt.sol\":3925:3932  fee > 0 */\n      dup4\n      gt\n        /* \"contracts/Usdt.sol\":3921:4050  if (fee > 0) {\r... */\n      iszero\n      tag_278\n      jumpi\n        /* \"contracts/Usdt.sol\":3967:3982  balances[owner] */\n      0x0\n        /* \"contracts/Usdt.sol\":3976:3981  owner */\n      dup1\n      sload\n      sub(exp(0x2, 0xa0), 0x1)\n      and\n        /* \"contracts/Usdt.sol\":3967:3982  balances[owner] */\n      dup2\n      mstore\n        /* \"contracts/Usdt.sol\":3967:3975  balances */\n      0x2\n        /* \"contracts/Usdt.sol\":3967:3982  balances[owner] */\n      0x20\n      mstore\n      0x40\n      swap1\n      keccak256\n      sload\n        /* \"contracts/Usdt.sol\":3967:3991  balances[owner].add(fee) */\n      tag_279\n      swap1\n        /* \"contracts/Usdt.sol\":3987:3990  fee */\n      dup5\n        /* \"contracts/Usdt.sol\":3967:3991  balances[owner].add(fee) */\n      0xffffffff\n        /* \"contracts/Usdt.sol\":3967:3986  balances[owner].add */\n      tag_265\n        /* \"contracts/Usdt.sol\":3967:3991  balances[owner].add(fee) */\n      and\n      jump\t// in\n    tag_279:\n        /* \"contracts/Usdt.sol\":3949:3964  balances[owner] */\n      0x0\n        /* \"contracts/Usdt.sol\":3958:3963  owner */\n      dup1\n      sload\n      sub(exp(0x2, 0xa0), 0x1)\n      swap1\n      dup2\n      and\n        /* \"contracts/Usdt.sol\":3949:3964  balances[owner] */\n      dup3\n      mstore\n        /* \"contracts/Usdt.sol\":3949:3957  balances */\n      0x2\n        /* \"contracts/Usdt.sol\":3949:3964  balances[owner] */\n      0x20\n      mstore\n      0x40\n      dup1\n      dup4\n      keccak256\n        /* \"contracts/Usdt.sol\":3949:3991  balances[owner] = balances[owner].add(fee) */\n      swap4\n      swap1\n      swap4\n      sstore\n        /* \"contracts/Usdt.sol\":4027:4032  owner */\n      swap1\n      sload\n      dup2\n      and\n      swap2\n        /* \"contracts/Usdt.sol\":4015:4025  msg.sender */\n      caller\n        /* \"contracts/Usdt.sol\":4006:4038  Transfer(msg.sender, owner, fee) */\n      swap1\n      swap2\n      and\n      swap1\n      0x0\n      dup1\n      mload\n      0x20\n      data_ada389e1fc24a8587c776340efb91b36e675792ab631816100d55df0b5cf3cbc\n      dup4\n      codecopy\n      dup2\n      mload\n      swap2\n      mstore\n      swap1\n        /* \"contracts/Usdt.sol\":4034:4037  fee */\n      dup7\n      swap1\n        /* \"contracts/Usdt.sol\":4006:4038  Transfer(msg.sender, owner, fee) */\n      mload\n      swap1\n      dup2\n      mstore\n      0x20\n      add\n      mload(0x40)\n      dup1\n      swap2\n      sub\n      swap1\n      log3\n        /* \"contracts/Usdt.sol\":3921:4050  if (fee > 0) {\r... */\n    tag_278:\n        /* \"contracts/Usdt.sol\":4081:4084  _to */\n      dup5\n      sub(exp(0x2, 0xa0), 0x1)\n        /* \"contracts/Usdt.sol\":4060:4097  Transfer(msg.sender, _to, sendAmount) */\n      and\n        /* \"contracts/Usdt.sol\":4069:4079  msg.sender */\n      caller\n      sub(exp(0x2, 0xa0), 0x1)\n        /* \"contracts/Usdt.sol\":4060:4097  Transfer(msg.sender, _to, sendAmount) */\n      and\n      0x0\n      dup1\n      mload\n      0x20\n      data_ada389e1fc24a8587c776340efb91b36e675792ab631816100d55df0b5cf3cbc\n      dup4\n      codecopy\n      dup2\n      mload\n      swap2\n      mstore\n        /* \"contracts/Usdt.sol\":4086:4096  sendAmount */\n      dup5\n        /* \"contracts/Usdt.sol\":4060:4097  Transfer(msg.sender, _to, sendAmount) */\n      mload(0x40)\n      swap1\n      dup2\n      mstore\n      0x20\n      add\n      mload(0x40)\n      dup1\n      swap2\n      sub\n      swap1\n      log3\n        /* \"contracts/Usdt.sol\":3532:4105  function transfer(address _to, uint _value) public onlyPayloadSize(2 * 32) {\r... */\n      pop\n      pop\n      pop\n      pop\n      pop\n      jump\t// out\n        /* \"contracts/Usdt.sol\":179:387  function mul(uint256 a, uint256 b) internal pure returns (uint256) {\r... */\n    tag_217:\n        /* \"contracts/Usdt.sol\":237:244  uint256 */\n      0x0\n      dup1\n        /* \"contracts/Usdt.sol\":261:267  a == 0 */\n      dup4\n      iszero\n        /* \"contracts/Usdt.sol\":257:304  if (a == 0) {\r... */\n      iszero\n      tag_281\n      jumpi\n        /* \"contracts/Usdt.sol\":291:292  0 */\n      0x0\n        /* \"contracts/Usdt.sol\":284:292  return 0 */\n      swap2\n      pop\n      jump(tag_280)\n        /* \"contracts/Usdt.sol\":257:304  if (a == 0) {\r... */\n    tag_281:\n      pop\n        /* \"contracts/Usdt.sol\":326:331  a * b */\n      dup3\n      dup3\n      mul\n        /* \"contracts/Usdt.sol\":330:331  b */\n      dup3\n        /* \"contracts/Usdt.sol\":326:327  a */\n      dup5\n        /* \"contracts/Usdt.sol\":326:331  a * b */\n      dup3\n        /* \"contracts/Usdt.sol\":349:354  c / a */\n      dup2\n      iszero\n      iszero\n      tag_282\n      jumpi\n      invalid\n    tag_282:\n      div\n        /* \"contracts/Usdt.sol\":349:359  c / a == b */\n      eq\n        /* \"contracts/Usdt.sol\":342:360  assert(c / a == b) */\n      tag_283\n      jumpi\n      invalid\n    tag_283:\n        /* \"contracts/Usdt.sol\":378:379  c */\n      dup1\n        /* \"contracts/Usdt.sol\":371:379  return c */\n      swap2\n      pop\n        /* \"contracts/Usdt.sol\":179:387  function mul(uint256 a, uint256 b) internal pure returns (uint256) {\r... */\n    tag_280:\n      pop\n      swap3\n      swap2\n      pop\n      pop\n      jump\t// out\n        /* \"contracts/Usdt.sol\":7230:7375  function allowance(address _owner, address _spender) public constant returns (uint remaining) {\r... */\n    tag_234:\n      sub(exp(0x2, 0xa0), 0x1)\n        /* \"contracts/Usdt.sol\":7342:7357  allowed[_owner] */\n      swap2\n      dup3\n      and\n        /* \"contracts/Usdt.sol\":7308:7322  uint remaining */\n      0x0\n        /* \"contracts/Usdt.sol\":7342:7357  allowed[_owner] */\n      swap1\n      dup2\n      mstore\n        /* \"contracts/Usdt.sol\":7342:7349  allowed */\n      0x5\n        /* \"contracts/Usdt.sol\":7342:7357  allowed[_owner] */\n      0x20\n      swap1\n      dup2\n      mstore\n      0x40\n      dup1\n      dup4\n      keccak256\n        /* \"contracts/Usdt.sol\":7342:7367  allowed[_owner][_spender] */\n      swap4\n      swap1\n      swap5\n      and\n      dup3\n      mstore\n      swap2\n      swap1\n      swap2\n      mstore\n      keccak256\n      sload\n      swap1\n        /* \"contracts/Usdt.sol\":7230:7375  function allowance(address _owner, address _spender) public constant returns (uint remaining) {\r... */\n      jump\t// out\n        /* \"contracts/Usdt.sol\":395:683  function div(uint256 a, uint256 b) internal pure returns (uint256) {\r... */\n    tag_257:\n        /* \"contracts/Usdt.sol\":453:460  uint256 */\n      0x0\n        /* \"contracts/Usdt.sol\":552:561  uint256 c */\n      dup1\n        /* \"contracts/Usdt.sol\":568:569  b */\n      dup3\n        /* \"contracts/Usdt.sol\":564:565  a */\n      dup5\n        /* \"contracts/Usdt.sol\":564:569  a / b */\n      dup2\n      iszero\n      iszero\n      tag_286\n      jumpi\n      invalid\n    tag_286:\n      div\n      swap5\n        /* \"contracts/Usdt.sol\":395:683  function div(uint256 a, uint256 b) internal pure returns (uint256) {\r... */\n      swap4\n      pop\n      pop\n      pop\n      pop\n      jump\t// out\n        /* \"contracts/Usdt.sol\":691:814  function sub(uint256 a, uint256 b) internal pure returns (uint256) {\r... */\n    tag_261:\n        /* \"contracts/Usdt.sol\":749:756  uint256 */\n      0x0\n        /* \"contracts/Usdt.sol\":776:782  b <= a */\n      dup3\n      dup3\n      gt\n      iszero\n        /* \"contracts/Usdt.sol\":769:783  assert(b <= a) */\n      tag_288\n      jumpi\n      invalid\n    tag_288:\n      pop\n        /* \"contracts/Usdt.sol\":801:806  a - b */\n      swap1\n      sub\n      swap1\n        /* \"contracts/Usdt.sol\":691:814  function sub(uint256 a, uint256 b) internal pure returns (uint256) {\r... */\n      jump\t// out\n        /* \"contracts/Usdt.sol\":822:969  function add(uint256 a, uint256 b) internal pure returns (uint256) {\r... */\n    tag_265:\n        /* \"contracts/Usdt.sol\":880:887  uint256 */\n      0x0\n        /* \"contracts/Usdt.sol\":912:917  a + b */\n      dup3\n      dup3\n      add\n        /* \"contracts/Usdt.sol\":935:941  c >= a */\n      dup4\n      dup2\n      lt\n      iszero\n        /* \"contracts/Usdt.sol\":928:942  assert(c >= a) */\n      tag_283\n      jumpi\n      invalid\n        /* \"contracts/Usdt.sol\":10004:14829  contract Usdt is Pausable, StandardToken, BlackList {\r... */\n    tag_183:\n      dup3\n      dup1\n      sload\n      0x1\n      dup2\n      0x1\n      and\n      iszero\n      0x100\n      mul\n      sub\n      and\n      0x2\n      swap1\n      div\n      swap1\n      0x0\n      mstore\n      keccak256(0x0, 0x20)\n      swap1\n      0x1f\n      add\n      0x20\n      swap1\n      div\n      dup2\n      add\n      swap3\n      dup3\n      0x1f\n      lt\n      tag_292\n      jumpi\n      dup1\n      mload\n      not(0xff)\n      and\n      dup4\n      dup1\n      add\n      or\n      dup6\n      sstore\n      jump(tag_294)\n    tag_292:\n      dup3\n      dup1\n      add\n      0x1\n      add\n      dup6\n      sstore\n      dup3\n      iszero\n      tag_294\n      jumpi\n      swap2\n      dup3\n      add\n    tag_293:\n      dup3\n      dup2\n      gt\n      iszero\n      tag_294\n      jumpi\n      dup3\n      mload\n      dup3\n      sstore\n      swap2\n      0x20\n      add\n      swap2\n      swap1\n      0x1\n      add\n      swap1\n      jump(tag_293)\n    tag_294:\n      pop\n      tag_295\n      swap3\n      swap2\n      pop\n      jump\t// in(tag_296)\n    tag_295:\n      pop\n      swap1\n      jump\t// out\n    tag_296:\n      tag_164\n      swap2\n      swap1\n    tag_298:\n      dup1\n      dup3\n      gt\n      iszero\n      tag_295\n      jumpi\n      0x0\n      dup2\n      sstore\n      0x1\n      add\n      jump(tag_298)\n    stop\n    data_ada389e1fc24a8587c776340efb91b36e675792ab631816100d55df0b5cf3cbc ddf252ad1be2c89b69c2b068fc378daa952ba7f163c4a11628f55a4df523b3ef\n\n    auxdata: 0xa165627a7a7230582037176345e03f3451892ce8cc89e0822219a0c3364ba1e7dc7e748532aa04c8b20029\n}\n","bytecode":{"linkReferences":{},"object":"60606040526000805460038290556004829055600160a060020a033316600160a860020a03199091161790556117eb8061003a6000396000f300606060405236156101855763ffffffff60e060020a60003504166306fdde03811461018a5780630753c30c14610214578063095ea7b3146102355780630e136b19146102575780630ecb93c01461027e57806318160ddd1461029d57806323b872dd146102c257806326976e3f146102ea57806327e235e314610319578063313ce56714610338578063353907141461034b5780633eaaf86b1461035e5780633f4ba83a1461037157806359bf1abe146103845780635aeb45dc146103a35780635c658165146103b65780635c975abb146103db57806370a08231146103ee5780638456cb591461040d578063893d20e8146104205780638da5cb5b1461043357806395d89b4114610446578063a9059cbb14610459578063c0324c771461047b578063cc872b6614610494578063db006a75146104aa578063dd62ed3e146104c0578063dd644f72146104e5578063e47d6060146104f8578063e4997dc514610517578063e5b5019a14610536578063f2fde38b14610549578063f3bdc22814610568575b600080fd5b341561019557600080fd5b61019d610587565b60405160208082528190810183818151815260200191508051906020019080838360005b838110156101d95780820151838201526020016101c1565b50505050905090810190601f1680156102065780820380516001836020036101000a031916815260200191505b509250505060405180910390f35b341561021f57600080fd5b610233600160a060020a0360043516610625565b005b341561024057600080fd5b610233600160a060020a03600435166024356106c8565b341561026257600080fd5b61026a610775565b604051901515815260200160405180910390f35b341561028957600080fd5b610233600160a060020a0360043516610785565b34156102a857600080fd5b6102b0610805565b60405190815260200160405180910390f35b34156102cd57600080fd5b610233600160a060020a036004358116906024351660443561088c565b34156102f557600080fd5b6102fd610950565b604051600160a060020a03909116815260200160405180910390f35b341561032457600080fd5b6102b0600160a060020a036004351661095f565b341561034357600080fd5b6102b0610971565b341561035657600080fd5b6102b0610977565b341561036957600080fd5b6102b061097d565b341561037c57600080fd5b610233610983565b341561038f57600080fd5b61026a600160a060020a0360043516610a02565b34156103ae57600080fd5b610233610a24565b34156103c157600080fd5b6102b0600160a060020a0360043581169060243516610b18565b34156103e657600080fd5b61026a610b35565b34156103f957600080fd5b6102b0600160a060020a0360043516610b45565b341561041857600080fd5b610233610be5565b341561042b57600080fd5b6102fd610c69565b341561043e57600080fd5b6102fd610c78565b341561045157600080fd5b61019d610c87565b341561046457600080fd5b610233600160a060020a0360043516602435610cf2565b341561048657600080fd5b610233600435602435610dcb565b341561049f57600080fd5b610233600435610e61565b34156104b557600080fd5b610233600435610f10565b34156104cb57600080fd5b6102b0600160a060020a0360043581169060243516610fc1565b34156104f057600080fd5b6102b061106c565b341561050357600080fd5b61026a600160a060020a0360043516611072565b341561052257600080fd5b610233600160a060020a0360043516611087565b341561054157600080fd5b6102b0611104565b341561055457600080fd5b610233600160a060020a036004351661110a565b341561057357600080fd5b610233600160a060020a0360043516611160565b60078054600181600116156101000203166002900480601f01602080910402602001604051908101604052809291908181526020018280546001816001161561010002031660029004801561061d5780601f106105f25761010080835404028352916020019161061d565b820191906000526020600020905b81548152906001019060200180831161060057829003601f168201915b505050505081565b60005433600160a060020a0390811691161461064057600080fd5b600a805460a060020a74ff0000000000000000000000000000000000000000199091161773ffffffffffffffffffffffffffffffffffffffff1916600160a060020a0383161790557fcc358699805e9a8b7f77b522628c7cb9abd07d9efb86b6fb616af1609036a99e81604051600160a060020a03909116815260200160405180910390a150565b604060443610156106d857600080fd5b600a5460a060020a900460ff161561076657600a54600160a060020a031663aee92d3333858560405160e060020a63ffffffff8616028152600160a060020a0393841660048201529190921660248201526044810191909152606401600060405180830381600087803b151561074d57600080fd5b6102c65a03f1151561075e57600080fd5b505050610770565b610770838361121e565b505050565b600a5460a060020a900460ff1681565b60005433600160a060020a039081169116146107a057600080fd5b600160a060020a03811660009081526006602052604090819020805460ff191660011790557f42e160154868087d6bfdc0ca23d96a1c1cfa32f1b72ba9ba27b69b98a0d819dc90829051600160a060020a03909116815260200160405180910390a150565b600a5460009060a060020a900460ff161561088457600a54600160a060020a03166318160ddd6000604051602001526040518163ffffffff1660e060020a028152600401602060405180830381600087803b151561086257600080fd5b6102c65a03f1151561087357600080fd5b505050604051805190509050610889565b506001545b90565b60005460a060020a900460ff16156108a357600080fd5b600160a060020a03831660009081526006602052604090205460ff16156108c957600080fd5b600a5460a060020a900460ff161561094557600a54600160a060020a0316638b477adb3385858560405160e060020a63ffffffff8716028152600160a060020a0394851660048201529284166024840152921660448201526064810191909152608401600060405180830381600087803b151561074d57600080fd5b6107708383836112d0565b600a54600160a060020a031681565b60026020526000908152604090205481565b60095481565b60045481565b60015481565b60005433600160a060020a0390811691161461099e57600080fd5b60005460a060020a900460ff1615156109b657600080fd5b6000805474ff0000000000000000000000000000000000000000191690557f7805862f689e2f13df9f062ff482ad3ad112aca9e0847911ed832e158c525b3360405160405180910390a1565b600160a060020a03811660009081526006602052604090205460ff165b919050565b6f4b3b4ca85a86c47a098a22400000000060015560408051908101604052600481527f555344540000000000000000000000000000000000000000000000000000000060208201526007908051610a7f929160200190611707565b5060408051908101604052600481527f555344540000000000000000000000000000000000000000000000000000000060208201526008908051610ac7929160200190611707565b50600660095560008054600160a060020a031681526002602052604090206f4b3b4ca85a86c47a098a2240000000009055600a805474ff000000000000000000000000000000000000000019169055565b600560209081526000928352604080842090915290825290205481565b60005460a060020a900460ff1681565b600a5460009060a060020a900460ff1615610bd557600a54600160a060020a03166370a082318360006040516020015260405160e060020a63ffffffff8416028152600160a060020a039091166004820152602401602060405180830381600087803b1515610bb357600080fd5b6102c65a03f11515610bc457600080fd5b505050604051805190509050610a1f565b610bde826114cf565b9050610a1f565b60005433600160a060020a03908116911614610c0057600080fd5b60005460a060020a900460ff1615610c1757600080fd5b6000805474ff0000000000000000000000000000000000000000191660a060020a1790557f6985a02210a168e66602d3235cb6db0e70f92b3ba4d376a33c0f3d9434bff62560405160405180910390a1565b600054600160a060020a031690565b600054600160a060020a031681565b60088054600181600116156101000203166002900480601f01602080910402602001604051908101604052809291908181526020018280546001816001161561010002031660029004801561061d5780601f106105f25761010080835404028352916020019161061d565b60005460a060020a900460ff1615610d0957600080fd5b600160a060020a03331660009081526006602052604090205460ff1615610d2f57600080fd5b600a5460a060020a900460ff1615610dbd57600a54600160a060020a0316636e18980a33848460405160e060020a63ffffffff8616028152600160a060020a0393841660048201529190921660248201526044810191909152606401600060405180830381600087803b1515610da457600080fd5b6102c65a03f11515610db557600080fd5b505050610dc7565b610dc782826114ea565b5050565b60005433600160a060020a03908116911614610de657600080fd5b60148210610df357600080fd5b60328110610e0057600080fd5b6003829055600954610e1c908290600a0a63ffffffff61166e16565b60048190556003547fb044a1e409eac5c48e5af22d4af52670dd1a99059537a78b31b48c6500a6354e9160405191825260208201526040908101905180910390a15050565b60005433600160a060020a03908116911614610e7c57600080fd5b60015481810111610e8c57600080fd5b60008054600160a060020a031681526002602052604090205481810111610eb257600080fd5b60008054600160a060020a03168152600260205260409081902080548301905560018054830190557fcb8241adb0c3fdb35b70c24ce35c5eb0c17af7431c99f827d44a445ca624176a9082905190815260200160405180910390a150565b60005433600160a060020a03908116911614610f2b57600080fd5b60015481901015610f3b57600080fd5b60008054600160a060020a031681526002602052604090205481901015610f6157600080fd5b60018054829003905560008054600160a060020a031681526002602052604090819020805483900390557f702d5967f45f6513a38ffc42d6ba9bf230bd40e8f53b16363c7eb4fd2deb9a449082905190815260200160405180910390a150565b600a5460009060a060020a900460ff161561105957600a54600160a060020a031663dd62ed3e848460006040516020015260405160e060020a63ffffffff8516028152600160a060020a03928316600482015291166024820152604401602060405180830381600087803b151561103757600080fd5b6102c65a03f1151561104857600080fd5b505050604051805190509050611066565b61106383836116a4565b90505b92915050565b60035481565b60066020526000908152604090205460ff1681565b60005433600160a060020a039081169116146110a257600080fd5b600160a060020a03811660009081526006602052604090819020805460ff191690557fd7e9ec6e6ecd65492dce6bf513cd6867560d49544421d0783ddf06e76c24470c90829051600160a060020a03909116815260200160405180910390a150565b60001981565b60005433600160a060020a0390811691161461112557600080fd5b600160a060020a0381161561115d576000805473ffffffffffffffffffffffffffffffffffffffff1916600160a060020a0383161790555b50565b6000805433600160a060020a0390811691161461117c57600080fd5b600160a060020a03821660009081526006602052604090205460ff1615156111a357600080fd5b6111ac82610b45565b600160a060020a038316600090815260026020526040808220919091556001805483900390559091507f61e6e66b0d6339b2980aecc6ccc0039736791f0ccde9ed512e789a7fbdd698c6908390839051600160a060020a03909216825260208201526040908101905180910390a15050565b6040604436101561122e57600080fd5b81158015906112615750600160a060020a0333811660009081526005602090815260408083209387168352929052205415155b1561126b57600080fd5b600160a060020a03338116600081815260056020908152604080832094881680845294909152908190208590557f8c5be1e5ebec7d5bd14f71427d1e84f3dd0314c0f7b2291e5b200ac8c7c3b9259085905190815260200160405180910390a3505050565b60008080606060643610156112e457600080fd5b600160a060020a0380881660009081526005602090815260408083203390941683529290522054600354909450611336906127109061132a90889063ffffffff61166e16565b9063ffffffff6116cf16565b92506004548311156113485760045492505b60001984101561138a57611362848663ffffffff6116e616565b600160a060020a03808916600090815260056020908152604080832033909416835292905220555b61139a858463ffffffff6116e616565b600160a060020a0388166000908152600260205260409020549092506113c6908663ffffffff6116e616565b600160a060020a0380891660009081526002602052604080822093909355908816815220546113fb908363ffffffff6116f816565b600160a060020a0387166000908152600260205260408120919091558311156114915760008054600160a060020a0316815260026020526040902054611447908463ffffffff6116f816565b60008054600160a060020a03908116825260026020526040808320939093559054811691908916906000805160206117a08339815191529086905190815260200160405180910390a35b85600160a060020a031687600160a060020a03166000805160206117a08339815191528460405190815260200160405180910390a350505050505050565b600160a060020a031660009081526002602052604090205490565b600080604060443610156114fd57600080fd5b61151861271061132a6003548761166e90919063ffffffff16565b925060045483111561152a5760045492505b61153a848463ffffffff6116e616565b600160a060020a033316600090815260026020526040902054909250611566908563ffffffff6116e616565b600160a060020a03338116600090815260026020526040808220939093559087168152205461159b908363ffffffff6116f816565b600160a060020a0386166000908152600260205260408120919091558311156116325760008054600160a060020a03168152600260205260409020546115e7908463ffffffff6116f816565b60008054600160a060020a0390811682526002602052604080832093909355905481169133909116906000805160206117a08339815191529086905190815260200160405180910390a35b84600160a060020a031633600160a060020a03166000805160206117a08339815191528460405190815260200160405180910390a35050505050565b600080831515611681576000915061169d565b5082820282848281151561169157fe5b041461169957fe5b8091505b5092915050565b600160a060020a03918216600090815260056020908152604080832093909416825291909152205490565b60008082848115156116dd57fe5b04949350505050565b6000828211156116f257fe5b50900390565b60008282018381101561169957fe5b828054600181600116156101000203166002900490600052602060002090601f016020900481019282601f1061174857805160ff1916838001178555611775565b82800160010185558215611775579182015b8281111561177557825182559160200191906001019061175a565b50611781929150611785565b5090565b61088991905b80821115611781576000815560010161178b5600ddf252ad1be2c89b69c2b068fc378daa952ba7f163c4a11628f55a4df523b3efa165627a7a7230582037176345e03f3451892ce8cc89e0822219a0c3364ba1e7dc7e748532aa04c8b20029","opcodes":"PUSH1 0x60 PUSH1 0x40 MSTORE PUSH1 0x0 DUP1 SLOAD PUSH1 0x3 DUP3 SWAP1 SSTORE PUSH1 0x4 DUP3 SWAP1 SSTORE PUSH1 0x1 PUSH1 0xA0 PUSH1 0x2 EXP SUB CALLER AND PUSH1 0x1 PUSH1 0xA8 PUSH1 0x2 EXP SUB NOT SWAP1 SWAP2 AND OR SWAP1 SSTORE PUSH2 0x17EB DUP1 PUSH2 0x3A PUSH1 0x0 CODECOPY PUSH1 0x0 RETURN STOP PUSH1 0x60 PUSH1 0x40 MSTORE CALLDATASIZE ISZERO PUSH2 0x185 JUMPI PUSH4 0xFFFFFFFF PUSH1 0xE0 PUSH1 0x2 EXP PUSH1 0x0 CALLDATALOAD DIV AND PUSH4 0x6FDDE03 DUP2 EQ PUSH2 0x18A JUMPI DUP1 PUSH4 0x753C30C EQ PUSH2 0x214 JUMPI DUP1 PUSH4 0x95EA7B3 EQ PUSH2 0x235 JUMPI DUP1 PUSH4 0xE136B19 EQ PUSH2 0x257 JUMPI DUP1 PUSH4 0xECB93C0 EQ PUSH2 0x27E JUMPI DUP1 PUSH4 0x18160DDD EQ PUSH2 0x29D JUMPI DUP1 PUSH4 0x23B872DD EQ PUSH2 0x2C2 JUMPI DUP1 PUSH4 0x26976E3F EQ PUSH2 0x2EA JUMPI DUP1 PUSH4 0x27E235E3 EQ PUSH2 0x319 JUMPI DUP1 PUSH4 0x313CE567 EQ PUSH2 0x338 JUMPI DUP1 PUSH4 0x35390714 EQ PUSH2 0x34B JUMPI DUP1 PUSH4 0x3EAAF86B EQ PUSH2 0x35E JUMPI DUP1 PUSH4 0x3F4BA83A EQ PUSH2 0x371 JUMPI DUP1 PUSH4 0x59BF1ABE EQ PUSH2 0x384 JUMPI DUP1 PUSH4 0x5AEB45DC EQ PUSH2 0x3A3 JUMPI DUP1 PUSH4 0x5C658165 EQ PUSH2 0x3B6 JUMPI DUP1 PUSH4 0x5C975ABB EQ PUSH2 0x3DB JUMPI DUP1 PUSH4 0x70A08231 EQ PUSH2 0x3EE JUMPI DUP1 PUSH4 0x8456CB59 EQ PUSH2 0x40D JUMPI DUP1 PUSH4 0x893D20E8 EQ PUSH2 0x420 JUMPI DUP1 PUSH4 0x8DA5CB5B EQ PUSH2 0x433 JUMPI DUP1 PUSH4 0x95D89B41 EQ PUSH2 0x446 JUMPI DUP1 PUSH4 0xA9059CBB EQ PUSH2 0x459 JUMPI DUP1 PUSH4 0xC0324C77 EQ PUSH2 0x47B JUMPI DUP1 PUSH4 0xCC872B66 EQ PUSH2 0x494 JUMPI DUP1 PUSH4 0xDB006A75 EQ PUSH2 0x4AA JUMPI DUP1 PUSH4 0xDD62ED3E EQ PUSH2 0x4C0 JUMPI DUP1 PUSH4 0xDD644F72 EQ PUSH2 0x4E5 JUMPI DUP1 PUSH4 0xE47D6060 EQ PUSH2 0x4F8 JUMPI DUP1 PUSH4 0xE4997DC5 EQ PUSH2 0x517 JUMPI DUP1 PUSH4 0xE5B5019A EQ PUSH2 0x536 JUMPI DUP1 PUSH4 0xF2FDE38B EQ PUSH2 0x549 JUMPI DUP1 PUSH4 0xF3BDC228 EQ PUSH2 0x568 JUMPI JUMPDEST PUSH1 0x0 DUP1 REVERT JUMPDEST CALLVALUE ISZERO PUSH2 0x195 JUMPI PUSH1 0x0 DUP1 REVERT JUMPDEST PUSH2 0x19D PUSH2 0x587 JUMP JUMPDEST PUSH1 0x40 MLOAD PUSH1 0x20 DUP1 DUP3 MSTORE DUP2 SWAP1 DUP2 ADD DUP4 DUP2 DUP2 MLOAD DUP2 MSTORE PUSH1 0x20 ADD SWAP2 POP DUP1 MLOAD SWAP1 PUSH1 0x20 ADD SWAP1 DUP1 DUP4 DUP4 PUSH1 0x0 JUMPDEST DUP4 DUP2 LT ISZERO PUSH2 0x1D9 JUMPI DUP1 DUP3 ADD MLOAD DUP4 DUP3 ADD MSTORE PUSH1 0x20 ADD PUSH2 0x1C1 JUMP JUMPDEST POP POP POP POP SWAP1 POP SWAP1 DUP2 ADD SWAP1 PUSH1 0x1F AND DUP1 ISZERO PUSH2 0x206 JUMPI DUP1 DUP3 SUB DUP1 MLOAD PUSH1 0x1 DUP4 PUSH1 0x20 SUB PUSH2 0x100 EXP SUB NOT AND DUP2 MSTORE PUSH1 0x20 ADD SWAP2 POP JUMPDEST POP SWAP3 POP POP POP PUSH1 0x40 MLOAD DUP1 SWAP2 SUB SWAP1 RETURN JUMPDEST CALLVALUE ISZERO PUSH2 0x21F JUMPI PUSH1 0x0 DUP1 REVERT JUMPDEST PUSH2 0x233 PUSH1 0x1 PUSH1 0xA0 PUSH1 0x2 EXP SUB PUSH1 0x4 CALLDATALOAD AND PUSH2 0x625 JUMP JUMPDEST STOP JUMPDEST CALLVALUE ISZERO PUSH2 0x240 JUMPI PUSH1 0x0 DUP1 REVERT JUMPDEST PUSH2 0x233 PUSH1 0x1 PUSH1 0xA0 PUSH1 0x2 EXP SUB PUSH1 0x4 CALLDATALOAD AND PUSH1 0x24 CALLDATALOAD PUSH2 0x6C8 JUMP JUMPDEST CALLVALUE ISZERO PUSH2 0x262 JUMPI PUSH1 0x0 DUP1 REVERT JUMPDEST PUSH2 0x26A PUSH2 0x775 JUMP JUMPDEST PUSH1 0x40 MLOAD SWAP1 ISZERO ISZERO DUP2 MSTORE PUSH1 0x20 ADD PUSH1 0x40 MLOAD DUP1 SWAP2 SUB SWAP1 RETURN JUMPDEST CALLVALUE ISZERO PUSH2 0x289 JUMPI PUSH1 0x0 DUP1 REVERT JUMPDEST PUSH2 0x233 PUSH1 0x1 PUSH1 0xA0 PUSH1 0x2 EXP SUB PUSH1 0x4 CALLDATALOAD AND PUSH2 0x785 JUMP JUMPDEST CALLVALUE ISZERO PUSH2 0x2A8 JUMPI PUSH1 0x0 DUP1 REVERT JUMPDEST PUSH2 0x2B0 PUSH2 0x805 JUMP JUMPDEST PUSH1 0x40 MLOAD SWAP1 DUP2 MSTORE PUSH1 0x20 ADD PUSH1 0x40 MLOAD DUP1 SWAP2 SUB SWAP1 RETURN JUMPDEST CALLVALUE ISZERO PUSH2 0x2CD JUMPI PUSH1 0x0 DUP1 REVERT JUMPDEST PUSH2 0x233 PUSH1 0x1 PUSH1 0xA0 PUSH1 0x2 EXP SUB PUSH1 0x4 CALLDATALOAD DUP2 AND SWAP1 PUSH1 0x24 CALLDATALOAD AND PUSH1 0x44 CALLDATALOAD PUSH2 0x88C JUMP JUMPDEST CALLVALUE ISZERO PUSH2 0x2F5 JUMPI PUSH1 0x0 DUP1 REVERT JUMPDEST PUSH2 0x2FD PUSH2 0x950 JUMP JUMPDEST PUSH1 0x40 MLOAD PUSH1 0x1 PUSH1 0xA0 PUSH1 0x2 EXP SUB SWAP1 SWAP2 AND DUP2 MSTORE PUSH1 0x20 ADD PUSH1 0x40 MLOAD DUP1 SWAP2 SUB SWAP1 RETURN JUMPDEST CALLVALUE ISZERO PUSH2 0x324 JUMPI PUSH1 0x0 DUP1 REVERT JUMPDEST PUSH2 0x2B0 PUSH1 0x1 PUSH1 0xA0 PUSH1 0x2 EXP SUB PUSH1 0x4 CALLDATALOAD AND PUSH2 0x95F JUMP JUMPDEST CALLVALUE ISZERO PUSH2 0x343 JUMPI PUSH1 0x0 DUP1 REVERT JUMPDEST PUSH2 0x2B0 PUSH2 0x971 JUMP JUMPDEST CALLVALUE ISZERO PUSH2 0x356 JUMPI PUSH1 0x0 DUP1 REVERT JUMPDEST PUSH2 0x2B0 PUSH2 0x977 JUMP JUMPDEST CALLVALUE ISZERO PUSH2 0x369 JUMPI PUSH1 0x0 DUP1 REVERT JUMPDEST PUSH2 0x2B0 PUSH2 0x97D JUMP JUMPDEST CALLVALUE ISZERO PUSH2 0x37C JUMPI PUSH1 0x0 DUP1 REVERT JUMPDEST PUSH2 0x233 PUSH2 0x983 JUMP JUMPDEST CALLVALUE ISZERO PUSH2 0x38F JUMPI PUSH1 0x0 DUP1 REVERT JUMPDEST PUSH2 0x26A PUSH1 0x1 PUSH1 0xA0 PUSH1 0x2 EXP SUB PUSH1 0x4 CALLDATALOAD AND PUSH2 0xA02 JUMP JUMPDEST CALLVALUE ISZERO PUSH2 0x3AE JUMPI PUSH1 0x0 DUP1 REVERT JUMPDEST PUSH2 0x233 PUSH2 0xA24 JUMP JUMPDEST CALLVALUE ISZERO PUSH2 0x3C1 JUMPI PUSH1 0x0 DUP1 REVERT JUMPDEST PUSH2 0x2B0 PUSH1 0x1 PUSH1 0xA0 PUSH1 0x2 EXP SUB PUSH1 0x4 CALLDATALOAD DUP2 AND SWAP1 PUSH1 0x24 CALLDATALOAD AND PUSH2 0xB18 JUMP JUMPDEST CALLVALUE ISZERO PUSH2 0x3E6 JUMPI PUSH1 0x0 DUP1 REVERT JUMPDEST PUSH2 0x26A PUSH2 0xB35 JUMP JUMPDEST CALLVALUE ISZERO PUSH2 0x3F9 JUMPI PUSH1 0x0 DUP1 REVERT JUMPDEST PUSH2 0x2B0 PUSH1 0x1 PUSH1 0xA0 PUSH1 0x2 EXP SUB PUSH1 0x4 CALLDATALOAD AND PUSH2 0xB45 JUMP JUMPDEST CALLVALUE ISZERO PUSH2 0x418 JUMPI PUSH1 0x0 DUP1 REVERT JUMPDEST PUSH2 0x233 PUSH2 0xBE5 JUMP JUMPDEST CALLVALUE ISZERO PUSH2 0x42B JUMPI PUSH1 0x0 DUP1 REVERT JUMPDEST PUSH2 0x2FD PUSH2 0xC69 JUMP JUMPDEST CALLVALUE ISZERO PUSH2 0x43E JUMPI PUSH1 0x0 DUP1 REVERT JUMPDEST PUSH2 0x2FD PUSH2 0xC78 JUMP JUMPDEST CALLVALUE ISZERO PUSH2 0x451 JUMPI PUSH1 0x0 DUP1 REVERT JUMPDEST PUSH2 0x19D PUSH2 0xC87 JUMP JUMPDEST CALLVALUE ISZERO PUSH2 0x464 JUMPI PUSH1 0x0 DUP1 REVERT JUMPDEST PUSH2 0x233 PUSH1 0x1 PUSH1 0xA0 PUSH1 0x2 EXP SUB PUSH1 0x4 CALLDATALOAD AND PUSH1 0x24 CALLDATALOAD PUSH2 0xCF2 JUMP JUMPDEST CALLVALUE ISZERO PUSH2 0x486 JUMPI PUSH1 0x0 DUP1 REVERT JUMPDEST PUSH2 0x233 PUSH1 0x4 CALLDATALOAD PUSH1 0x24 CALLDATALOAD PUSH2 0xDCB JUMP JUMPDEST CALLVALUE ISZERO PUSH2 0x49F JUMPI PUSH1 0x0 DUP1 REVERT JUMPDEST PUSH2 0x233 PUSH1 0x4 CALLDATALOAD PUSH2 0xE61 JUMP JUMPDEST CALLVALUE ISZERO PUSH2 0x4B5 JUMPI PUSH1 0x0 DUP1 REVERT JUMPDEST PUSH2 0x233 PUSH1 0x4 CALLDATALOAD PUSH2 0xF10 JUMP JUMPDEST CALLVALUE ISZERO PUSH2 0x4CB JUMPI PUSH1 0x0 DUP1 REVERT JUMPDEST PUSH2 0x2B0 PUSH1 0x1 PUSH1 0xA0 PUSH1 0x2 EXP SUB PUSH1 0x4 CALLDATALOAD DUP2 AND SWAP1 PUSH1 0x24 CALLDATALOAD AND PUSH2 0xFC1 JUMP JUMPDEST CALLVALUE ISZERO PUSH2 0x4F0 JUMPI PUSH1 0x0 DUP1 REVERT JUMPDEST PUSH2 0x2B0 PUSH2 0x106C JUMP JUMPDEST CALLVALUE ISZERO PUSH2 0x503 JUMPI PUSH1 0x0 DUP1 REVERT JUMPDEST PUSH2 0x26A PUSH1 0x1 PUSH1 0xA0 PUSH1 0x2 EXP SUB PUSH1 0x4 CALLDATALOAD AND PUSH2 0x1072 JUMP JUMPDEST CALLVALUE ISZERO PUSH2 0x522 JUMPI PUSH1 0x0 DUP1 REVERT JUMPDEST PUSH2 0x233 PUSH1 0x1 PUSH1 0xA0 PUSH1 0x2 EXP SUB PUSH1 0x4 CALLDATALOAD AND PUSH2 0x1087 JUMP JUMPDEST CALLVALUE ISZERO PUSH2 0x541 JUMPI PUSH1 0x0 DUP1 REVERT JUMPDEST PUSH2 0x2B0 PUSH2 0x1104 JUMP JUMPDEST CALLVALUE ISZERO PUSH2 0x554 JUMPI PUSH1 0x0 DUP1 REVERT JUMPDEST PUSH2 0x233 PUSH1 0x1 PUSH1 0xA0 PUSH1 0x2 EXP SUB PUSH1 0x4 CALLDATALOAD AND PUSH2 0x110A JUMP JUMPDEST CALLVALUE ISZERO PUSH2 0x573 JUMPI PUSH1 0x0 DUP1 REVERT JUMPDEST PUSH2 0x233 PUSH1 0x1 PUSH1 0xA0 PUSH1 0x2 EXP SUB PUSH1 0x4 CALLDATALOAD AND PUSH2 0x1160 JUMP JUMPDEST PUSH1 0x7 DUP1 SLOAD PUSH1 0x1 DUP2 PUSH1 0x1 AND ISZERO PUSH2 0x100 MUL SUB AND PUSH1 0x2 SWAP1 DIV DUP1 PUSH1 0x1F ADD PUSH1 0x20 DUP1 SWAP2 DIV MUL PUSH1 0x20 ADD PUSH1 0x40 MLOAD SWAP1 DUP2 ADD PUSH1 0x40 MSTORE DUP1 SWAP3 SWAP2 SWAP1 DUP2 DUP2 MSTORE PUSH1 0x20 ADD DUP3 DUP1 SLOAD PUSH1 0x1 DUP2 PUSH1 0x1 AND ISZERO PUSH2 0x100 MUL SUB AND PUSH1 0x2 SWAP1 DIV DUP1 ISZERO PUSH2 0x61D JUMPI DUP1 PUSH1 0x1F LT PUSH2 0x5F2 JUMPI PUSH2 0x100 DUP1 DUP4 SLOAD DIV MUL DUP4 MSTORE SWAP2 PUSH1 0x20 ADD SWAP2 PUSH2 0x61D JUMP JUMPDEST DUP3 ADD SWAP2 SWAP1 PUSH1 0x0 MSTORE PUSH1 0x20 PUSH1 0x0 KECCAK256 SWAP1 JUMPDEST DUP2 SLOAD DUP2 MSTORE SWAP1 PUSH1 0x1 ADD SWAP1 PUSH1 0x20 ADD DUP1 DUP4 GT PUSH2 0x600 JUMPI DUP3 SWAP1 SUB PUSH1 0x1F AND DUP3 ADD SWAP2 JUMPDEST POP POP POP POP POP DUP2 JUMP JUMPDEST PUSH1 0x0 SLOAD CALLER PUSH1 0x1 PUSH1 0xA0 PUSH1 0x2 EXP SUB SWAP1 DUP2 AND SWAP2 AND EQ PUSH2 0x640 JUMPI PUSH1 0x0 DUP1 REVERT JUMPDEST PUSH1 0xA DUP1 SLOAD PUSH1 0xA0 PUSH1 0x2 EXP PUSH21 0xFF0000000000000000000000000000000000000000 NOT SWAP1 SWAP2 AND OR PUSH20 0xFFFFFFFFFFFFFFFFFFFFFFFFFFFFFFFFFFFFFFFF NOT AND PUSH1 0x1 PUSH1 0xA0 PUSH1 0x2 EXP SUB DUP4 AND OR SWAP1 SSTORE PUSH32 0xCC358699805E9A8B7F77B522628C7CB9ABD07D9EFB86B6FB616AF1609036A99E DUP2 PUSH1 0x40 MLOAD PUSH1 0x1 PUSH1 0xA0 PUSH1 0x2 EXP SUB SWAP1 SWAP2 AND DUP2 MSTORE PUSH1 0x20 ADD PUSH1 0x40 MLOAD DUP1 SWAP2 SUB SWAP1 LOG1 POP JUMP JUMPDEST PUSH1 0x40 PUSH1 0x44 CALLDATASIZE LT ISZERO PUSH2 0x6D8 JUMPI PUSH1 0x0 DUP1 REVERT JUMPDEST PUSH1 0xA SLOAD PUSH1 0xA0 PUSH1 0x2 EXP SWAP1 DIV PUSH1 0xFF AND ISZERO PUSH2 0x766 JUMPI PUSH1 0xA SLOAD PUSH1 0x1 PUSH1 0xA0 PUSH1 0x2 EXP SUB AND PUSH4 0xAEE92D33 CALLER DUP6 DUP6 PUSH1 0x40 MLOAD PUSH1 0xE0 PUSH1 0x2 EXP PUSH4 0xFFFFFFFF DUP7 AND MUL DUP2 MSTORE PUSH1 0x1 PUSH1 0xA0 PUSH1 0x2 EXP SUB SWAP4 DUP5 AND PUSH1 0x4 DUP3 ADD MSTORE SWAP2 SWAP1 SWAP3 AND PUSH1 0x24 DUP3 ADD MSTORE PUSH1 0x44 DUP2 ADD SWAP2 SWAP1 SWAP2 MSTORE PUSH1 0x64 ADD PUSH1 0x0 PUSH1 0x40 MLOAD DUP1 DUP4 SUB DUP2 PUSH1 0x0 DUP8 DUP1 EXTCODESIZE ISZERO ISZERO PUSH2 0x74D JUMPI PUSH1 0x0 DUP1 REVERT JUMPDEST PUSH2 0x2C6 GAS SUB CALL ISZERO ISZERO PUSH2 0x75E JUMPI PUSH1 0x0 DUP1 REVERT JUMPDEST POP POP POP PUSH2 0x770 JUMP JUMPDEST PUSH2 0x770 DUP4 DUP4 PUSH2 0x121E JUMP JUMPDEST POP POP POP JUMP JUMPDEST PUSH1 0xA SLOAD PUSH1 0xA0 PUSH1 0x2 EXP SWAP1 DIV PUSH1 0xFF AND DUP2 JUMP JUMPDEST PUSH1 0x0 SLOAD CALLER PUSH1 0x1 PUSH1 0xA0 PUSH1 0x2 EXP SUB SWAP1 DUP2 AND SWAP2 AND EQ PUSH2 0x7A0 JUMPI PUSH1 0x0 DUP1 REVERT JUMPDEST PUSH1 0x1 PUSH1 0xA0 PUSH1 0x2 EXP SUB DUP2 AND PUSH1 0x0 SWAP1 DUP2 MSTORE PUSH1 0x6 PUSH1 0x20 MSTORE PUSH1 0x40 SWAP1 DUP2 SWAP1 KECCAK256 DUP1 SLOAD PUSH1 0xFF NOT AND PUSH1 0x1 OR SWAP1 SSTORE PUSH32 0x42E160154868087D6BFDC0CA23D96A1C1CFA32F1B72BA9BA27B69B98A0D819DC SWAP1 DUP3 SWAP1 MLOAD PUSH1 0x1 PUSH1 0xA0 PUSH1 0x2 EXP SUB SWAP1 SWAP2 AND DUP2 MSTORE PUSH1 0x20 ADD PUSH1 0x40 MLOAD DUP1 SWAP2 SUB SWAP1 LOG1 POP JUMP JUMPDEST PUSH1 0xA SLOAD PUSH1 0x0 SWAP1 PUSH1 0xA0 PUSH1 0x2 EXP SWAP1 DIV PUSH1 0xFF AND ISZERO PUSH2 0x884 JUMPI PUSH1 0xA SLOAD PUSH1 0x1 PUSH1 0xA0 PUSH1 0x2 EXP SUB AND PUSH4 0x18160DDD PUSH1 0x0 PUSH1 0x40 MLOAD PUSH1 0x20 ADD MSTORE PUSH1 0x40 MLOAD DUP2 PUSH4 0xFFFFFFFF AND PUSH1 0xE0 PUSH1 0x2 EXP MUL DUP2 MSTORE PUSH1 0x4 ADD PUSH1 0x20 PUSH1 0x40 MLOAD DUP1 DUP4 SUB DUP2 PUSH1 0x0 DUP8 DUP1 EXTCODESIZE ISZERO ISZERO PUSH2 0x862 JUMPI PUSH1 0x0 DUP1 REVERT JUMPDEST PUSH2 0x2C6 GAS SUB CALL ISZERO ISZERO PUSH2 0x873 JUMPI PUSH1 0x0 DUP1 REVERT JUMPDEST POP POP POP PUSH1 0x40 MLOAD DUP1 MLOAD SWAP1 POP SWAP1 POP PUSH2 0x889 JUMP JUMPDEST POP PUSH1 0x1 SLOAD JUMPDEST SWAP1 JUMP JUMPDEST PUSH1 0x0 SLOAD PUSH1 0xA0 PUSH1 0x2 EXP SWAP1 DIV PUSH1 0xFF AND ISZERO PUSH2 0x8A3 JUMPI PUSH1 0x0 DUP1 REVERT JUMPDEST PUSH1 0x1 PUSH1 0xA0 PUSH1 0x2 EXP SUB DUP4 AND PUSH1 0x0 SWAP1 DUP2 MSTORE PUSH1 0x6 PUSH1 0x20 MSTORE PUSH1 0x40 SWAP1 KECCAK256 SLOAD PUSH1 0xFF AND ISZERO PUSH2 0x8C9 JUMPI PUSH1 0x0 DUP1 REVERT JUMPDEST PUSH1 0xA SLOAD PUSH1 0xA0 PUSH1 0x2 EXP SWAP1 DIV PUSH1 0xFF AND ISZERO PUSH2 0x945 JUMPI PUSH1 0xA SLOAD PUSH1 0x1 PUSH1 0xA0 PUSH1 0x2 EXP SUB AND PUSH4 0x8B477ADB CALLER DUP6 DUP6 DUP6 PUSH1 0x40 MLOAD PUSH1 0xE0 PUSH1 0x2 EXP PUSH4 0xFFFFFFFF DUP8 AND MUL DUP2 MSTORE PUSH1 0x1 PUSH1 0xA0 PUSH1 0x2 EXP SUB SWAP5 DUP6 AND PUSH1 0x4 DUP3 ADD MSTORE SWAP3 DUP5 AND PUSH1 0x24 DUP5 ADD MSTORE SWAP3 AND PUSH1 0x44 DUP3 ADD MSTORE PUSH1 0x64 DUP2 ADD SWAP2 SWAP1 SWAP2 MSTORE PUSH1 0x84 ADD PUSH1 0x0 PUSH1 0x40 MLOAD DUP1 DUP4 SUB DUP2 PUSH1 0x0 DUP8 DUP1 EXTCODESIZE ISZERO ISZERO PUSH2 0x74D JUMPI PUSH1 0x0 DUP1 REVERT JUMPDEST PUSH2 0x770 DUP4 DUP4 DUP4 PUSH2 0x12D0 JUMP JUMPDEST PUSH1 0xA SLOAD PUSH1 0x1 PUSH1 0xA0 PUSH1 0x2 EXP SUB AND DUP2 JUMP JUMPDEST PUSH1 0x2 PUSH1 0x20 MSTORE PUSH1 0x0 SWAP1 DUP2 MSTORE PUSH1 0x40 SWAP1 KECCAK256 SLOAD DUP2 JUMP JUMPDEST PUSH1 0x9 SLOAD DUP2 JUMP JUMPDEST PUSH1 0x4 SLOAD DUP2 JUMP JUMPDEST PUSH1 0x1 SLOAD DUP2 JUMP JUMPDEST PUSH1 0x0 SLOAD CALLER PUSH1 0x1 PUSH1 0xA0 PUSH1 0x2 EXP SUB SWAP1 DUP2 AND SWAP2 AND EQ PUSH2 0x99E JUMPI PUSH1 0x0 DUP1 REVERT JUMPDEST PUSH1 0x0 SLOAD PUSH1 0xA0 PUSH1 0x2 EXP SWAP1 DIV PUSH1 0xFF AND ISZERO ISZERO PUSH2 0x9B6 JUMPI PUSH1 0x0 DUP1 REVERT JUMPDEST PUSH1 0x0 DUP1 SLOAD PUSH21 0xFF0000000000000000000000000000000000000000 NOT AND SWAP1 SSTORE PUSH32 0x7805862F689E2F13DF9F062FF482AD3AD112ACA9E0847911ED832E158C525B33 PUSH1 0x40 MLOAD PUSH1 0x40 MLOAD DUP1 SWAP2 SUB SWAP1 LOG1 JUMP JUMPDEST PUSH1 0x1 PUSH1 0xA0 PUSH1 0x2 EXP SUB DUP2 AND PUSH1 0x0 SWAP1 DUP2 MSTORE PUSH1 0x6 PUSH1 0x20 MSTORE PUSH1 0x40 SWAP1 KECCAK256 SLOAD PUSH1 0xFF AND JUMPDEST SWAP2 SWAP1 POP JUMP JUMPDEST PUSH16 0x4B3B4CA85A86C47A098A224000000000 PUSH1 0x1 SSTORE PUSH1 0x40 DUP1 MLOAD SWAP1 DUP2 ADD PUSH1 0x40 MSTORE PUSH1 0x4 DUP2 MSTORE PUSH32 0x5553445400000000000000000000000000000000000000000000000000000000 PUSH1 0x20 DUP3 ADD MSTORE PUSH1 0x7 SWAP1 DUP1 MLOAD PUSH2 0xA7F SWAP3 SWAP2 PUSH1 0x20 ADD SWAP1 PUSH2 0x1707 JUMP JUMPDEST POP PUSH1 0x40 DUP1 MLOAD SWAP1 DUP2 ADD PUSH1 0x40 MSTORE PUSH1 0x4 DUP2 MSTORE PUSH32 0x5553445400000000000000000000000000000000000000000000000000000000 PUSH1 0x20 DUP3 ADD MSTORE PUSH1 0x8 SWAP1 DUP1 MLOAD PUSH2 0xAC7 SWAP3 SWAP2 PUSH1 0x20 ADD SWAP1 PUSH2 0x1707 JUMP JUMPDEST POP PUSH1 0x6 PUSH1 0x9 SSTORE PUSH1 0x0 DUP1 SLOAD PUSH1 0x1 PUSH1 0xA0 PUSH1 0x2 EXP SUB AND DUP2 MSTORE PUSH1 0x2 PUSH1 0x20 MSTORE PUSH1 0x40 SWAP1 KECCAK256 PUSH16 0x4B3B4CA85A86C47A098A224000000000 SWAP1 SSTORE PUSH1 0xA DUP1 SLOAD PUSH21 0xFF0000000000000000000000000000000000000000 NOT AND SWAP1 SSTORE JUMP JUMPDEST PUSH1 0x5 PUSH1 0x20 SWAP1 DUP2 MSTORE PUSH1 0x0 SWAP3 DUP4 MSTORE PUSH1 0x40 DUP1 DUP5 KECCAK256 SWAP1 SWAP2 MSTORE SWAP1 DUP3 MSTORE SWAP1 KECCAK256 SLOAD DUP2 JUMP JUMPDEST PUSH1 0x0 SLOAD PUSH1 0xA0 PUSH1 0x2 EXP SWAP1 DIV PUSH1 0xFF AND DUP2 JUMP JUMPDEST PUSH1 0xA SLOAD PUSH1 0x0 SWAP1 PUSH1 0xA0 PUSH1 0x2 EXP SWAP1 DIV PUSH1 0xFF AND ISZERO PUSH2 0xBD5 JUMPI PUSH1 0xA SLOAD PUSH1 0x1 PUSH1 0xA0 PUSH1 0x2 EXP SUB AND PUSH4 0x70A08231 DUP4 PUSH1 0x0 PUSH1 0x40 MLOAD PUSH1 0x20 ADD MSTORE PUSH1 0x40 MLOAD PUSH1 0xE0 PUSH1 0x2 EXP PUSH4 0xFFFFFFFF DUP5 AND MUL DUP2 MSTORE PUSH1 0x1 PUSH1 0xA0 PUSH1 0x2 EXP SUB SWAP1 SWAP2 AND PUSH1 0x4 DUP3 ADD MSTORE PUSH1 0x24 ADD PUSH1 0x20 PUSH1 0x40 MLOAD DUP1 DUP4 SUB DUP2 PUSH1 0x0 DUP8 DUP1 EXTCODESIZE ISZERO ISZERO PUSH2 0xBB3 JUMPI PUSH1 0x0 DUP1 REVERT JUMPDEST PUSH2 0x2C6 GAS SUB CALL ISZERO ISZERO PUSH2 0xBC4 JUMPI PUSH1 0x0 DUP1 REVERT JUMPDEST POP POP POP PUSH1 0x40 MLOAD DUP1 MLOAD SWAP1 POP SWAP1 POP PUSH2 0xA1F JUMP JUMPDEST PUSH2 0xBDE DUP3 PUSH2 0x14CF JUMP JUMPDEST SWAP1 POP PUSH2 0xA1F JUMP JUMPDEST PUSH1 0x0 SLOAD CALLER PUSH1 0x1 PUSH1 0xA0 PUSH1 0x2 EXP SUB SWAP1 DUP2 AND SWAP2 AND EQ PUSH2 0xC00 JUMPI PUSH1 0x0 DUP1 REVERT JUMPDEST PUSH1 0x0 SLOAD PUSH1 0xA0 PUSH1 0x2 EXP SWAP1 DIV PUSH1 0xFF AND ISZERO PUSH2 0xC17 JUMPI PUSH1 0x0 DUP1 REVERT JUMPDEST PUSH1 0x0 DUP1 SLOAD PUSH21 0xFF0000000000000000000000000000000000000000 NOT AND PUSH1 0xA0 PUSH1 0x2 EXP OR SWAP1 SSTORE PUSH32 0x6985A02210A168E66602D3235CB6DB0E70F92B3BA4D376A33C0F3D9434BFF625 PUSH1 0x40 MLOAD PUSH1 0x40 MLOAD DUP1 SWAP2 SUB SWAP1 LOG1 JUMP JUMPDEST PUSH1 0x0 SLOAD PUSH1 0x1 PUSH1 0xA0 PUSH1 0x2 EXP SUB AND SWAP1 JUMP JUMPDEST PUSH1 0x0 SLOAD PUSH1 0x1 PUSH1 0xA0 PUSH1 0x2 EXP SUB AND DUP2 JUMP JUMPDEST PUSH1 0x8 DUP1 SLOAD PUSH1 0x1 DUP2 PUSH1 0x1 AND ISZERO PUSH2 0x100 MUL SUB AND PUSH1 0x2 SWAP1 DIV DUP1 PUSH1 0x1F ADD PUSH1 0x20 DUP1 SWAP2 DIV MUL PUSH1 0x20 ADD PUSH1 0x40 MLOAD SWAP1 DUP2 ADD PUSH1 0x40 MSTORE DUP1 SWAP3 SWAP2 SWAP1 DUP2 DUP2 MSTORE PUSH1 0x20 ADD DUP3 DUP1 SLOAD PUSH1 0x1 DUP2 PUSH1 0x1 AND ISZERO PUSH2 0x100 MUL SUB AND PUSH1 0x2 SWAP1 DIV DUP1 ISZERO PUSH2 0x61D JUMPI DUP1 PUSH1 0x1F LT PUSH2 0x5F2 JUMPI PUSH2 0x100 DUP1 DUP4 SLOAD DIV MUL DUP4 MSTORE SWAP2 PUSH1 0x20 ADD SWAP2 PUSH2 0x61D JUMP JUMPDEST PUSH1 0x0 SLOAD PUSH1 0xA0 PUSH1 0x2 EXP SWAP1 DIV PUSH1 0xFF AND ISZERO PUSH2 0xD09 JUMPI PUSH1 0x0 DUP1 REVERT JUMPDEST PUSH1 0x1 PUSH1 0xA0 PUSH1 0x2 EXP SUB CALLER AND PUSH1 0x0 SWAP1 DUP2 MSTORE PUSH1 0x6 PUSH1 0x20 MSTORE PUSH1 0x40 SWAP1 KECCAK256 SLOAD PUSH1 0xFF AND ISZERO PUSH2 0xD2F JUMPI PUSH1 0x0 DUP1 REVERT JUMPDEST PUSH1 0xA SLOAD PUSH1 0xA0 PUSH1 0x2 EXP SWAP1 DIV PUSH1 0xFF AND ISZERO PUSH2 0xDBD JUMPI PUSH1 0xA SLOAD PUSH1 0x1 PUSH1 0xA0 PUSH1 0x2 EXP SUB AND PUSH4 0x6E18980A CALLER DUP5 DUP5 PUSH1 0x40 MLOAD PUSH1 0xE0 PUSH1 0x2 EXP PUSH4 0xFFFFFFFF DUP7 AND MUL DUP2 MSTORE PUSH1 0x1 PUSH1 0xA0 PUSH1 0x2 EXP SUB SWAP4 DUP5 AND PUSH1 0x4 DUP3 ADD MSTORE SWAP2 SWAP1 SWAP3 AND PUSH1 0x24 DUP3 ADD MSTORE PUSH1 0x44 DUP2 ADD SWAP2 SWAP1 SWAP2 MSTORE PUSH1 0x64 ADD PUSH1 0x0 PUSH1 0x40 MLOAD DUP1 DUP4 SUB DUP2 PUSH1 0x0 DUP8 DUP1 EXTCODESIZE ISZERO ISZERO PUSH2 0xDA4 JUMPI PUSH1 0x0 DUP1 REVERT JUMPDEST PUSH2 0x2C6 GAS SUB CALL ISZERO ISZERO PUSH2 0xDB5 JUMPI PUSH1 0x0 DUP1 REVERT JUMPDEST POP POP POP PUSH2 0xDC7 JUMP JUMPDEST PUSH2 0xDC7 DUP3 DUP3 PUSH2 0x14EA JUMP JUMPDEST POP POP JUMP JUMPDEST PUSH1 0x0 SLOAD CALLER PUSH1 0x1 PUSH1 0xA0 PUSH1 0x2 EXP SUB SWAP1 DUP2 AND SWAP2 AND EQ PUSH2 0xDE6 JUMPI PUSH1 0x0 DUP1 REVERT JUMPDEST PUSH1 0x14 DUP3 LT PUSH2 0xDF3 JUMPI PUSH1 0x0 DUP1 REVERT JUMPDEST PUSH1 0x32 DUP2 LT PUSH2 0xE00 JUMPI PUSH1 0x0 DUP1 REVERT JUMPDEST PUSH1 0x3 DUP3 SWAP1 SSTORE PUSH1 0x9 SLOAD PUSH2 0xE1C SWAP1 DUP3 SWAP1 PUSH1 0xA EXP PUSH4 0xFFFFFFFF PUSH2 0x166E AND JUMP JUMPDEST PUSH1 0x4 DUP2 SWAP1 SSTORE PUSH1 0x3 SLOAD PUSH32 0xB044A1E409EAC5C48E5AF22D4AF52670DD1A99059537A78B31B48C6500A6354E SWAP2 PUSH1 0x40 MLOAD SWAP2 DUP3 MSTORE PUSH1 0x20 DUP3 ADD MSTORE PUSH1 0x40 SWAP1 DUP2 ADD SWAP1 MLOAD DUP1 SWAP2 SUB SWAP1 LOG1 POP POP JUMP JUMPDEST PUSH1 0x0 SLOAD CALLER PUSH1 0x1 PUSH1 0xA0 PUSH1 0x2 EXP SUB SWAP1 DUP2 AND SWAP2 AND EQ PUSH2 0xE7C JUMPI PUSH1 0x0 DUP1 REVERT JUMPDEST PUSH1 0x1 SLOAD DUP2 DUP2 ADD GT PUSH2 0xE8C JUMPI PUSH1 0x0 DUP1 REVERT JUMPDEST PUSH1 0x0 DUP1 SLOAD PUSH1 0x1 PUSH1 0xA0 PUSH1 0x2 EXP SUB AND DUP2 MSTORE PUSH1 0x2 PUSH1 0x20 MSTORE PUSH1 0x40 SWAP1 KECCAK256 SLOAD DUP2 DUP2 ADD GT PUSH2 0xEB2 JUMPI PUSH1 0x0 DUP1 REVERT JUMPDEST PUSH1 0x0 DUP1 SLOAD PUSH1 0x1 PUSH1 0xA0 PUSH1 0x2 EXP SUB AND DUP2 MSTORE PUSH1 0x2 PUSH1 0x20 MSTORE PUSH1 0x40 SWAP1 DUP2 SWAP1 KECCAK256 DUP1 SLOAD DUP4 ADD SWAP1 SSTORE PUSH1 0x1 DUP1 SLOAD DUP4 ADD SWAP1 SSTORE PUSH32 0xCB8241ADB0C3FDB35B70C24CE35C5EB0C17AF7431C99F827D44A445CA624176A SWAP1 DUP3 SWAP1 MLOAD SWAP1 DUP2 MSTORE PUSH1 0x20 ADD PUSH1 0x40 MLOAD DUP1 SWAP2 SUB SWAP1 LOG1 POP JUMP JUMPDEST PUSH1 0x0 SLOAD CALLER PUSH1 0x1 PUSH1 0xA0 PUSH1 0x2 EXP SUB SWAP1 DUP2 AND SWAP2 AND EQ PUSH2 0xF2B JUMPI PUSH1 0x0 DUP1 REVERT JUMPDEST PUSH1 0x1 SLOAD DUP2 SWAP1 LT ISZERO PUSH2 0xF3B JUMPI PUSH1 0x0 DUP1 REVERT JUMPDEST PUSH1 0x0 DUP1 SLOAD PUSH1 0x1 PUSH1 0xA0 PUSH1 0x2 EXP SUB AND DUP2 MSTORE PUSH1 0x2 PUSH1 0x20 MSTORE PUSH1 0x40 SWAP1 KECCAK256 SLOAD DUP2 SWAP1 LT ISZERO PUSH2 0xF61 JUMPI PUSH1 0x0 DUP1 REVERT JUMPDEST PUSH1 0x1 DUP1 SLOAD DUP3 SWAP1 SUB SWAP1 SSTORE PUSH1 0x0 DUP1 SLOAD PUSH1 0x1 PUSH1 0xA0 PUSH1 0x2 EXP SUB AND DUP2 MSTORE PUSH1 0x2 PUSH1 0x20 MSTORE PUSH1 0x40 SWAP1 DUP2 SWAP1 KECCAK256 DUP1 SLOAD DUP4 SWAP1 SUB SWAP1 SSTORE PUSH32 0x702D5967F45F6513A38FFC42D6BA9BF230BD40E8F53B16363C7EB4FD2DEB9A44 SWAP1 DUP3 SWAP1 MLOAD SWAP1 DUP2 MSTORE PUSH1 0x20 ADD PUSH1 0x40 MLOAD DUP1 SWAP2 SUB SWAP1 LOG1 POP JUMP JUMPDEST PUSH1 0xA SLOAD PUSH1 0x0 SWAP1 PUSH1 0xA0 PUSH1 0x2 EXP SWAP1 DIV PUSH1 0xFF AND ISZERO PUSH2 0x1059 JUMPI PUSH1 0xA SLOAD PUSH1 0x1 PUSH1 0xA0 PUSH1 0x2 EXP SUB AND PUSH4 0xDD62ED3E DUP5 DUP5 PUSH1 0x0 PUSH1 0x40 MLOAD PUSH1 0x20 ADD MSTORE PUSH1 0x40 MLOAD PUSH1 0xE0 PUSH1 0x2 EXP PUSH4 0xFFFFFFFF DUP6 AND MUL DUP2 MSTORE PUSH1 0x1 PUSH1 0xA0 PUSH1 0x2 EXP SUB SWAP3 DUP4 AND PUSH1 0x4 DUP3 ADD MSTORE SWAP2 AND PUSH1 0x24 DUP3 ADD MSTORE PUSH1 0x44 ADD PUSH1 0x20 PUSH1 0x40 MLOAD DUP1 DUP4 SUB DUP2 PUSH1 0x0 DUP8 DUP1 EXTCODESIZE ISZERO ISZERO PUSH2 0x1037 JUMPI PUSH1 0x0 DUP1 REVERT JUMPDEST PUSH2 0x2C6 GAS SUB CALL ISZERO ISZERO PUSH2 0x1048 JUMPI PUSH1 0x0 DUP1 REVERT JUMPDEST POP POP POP PUSH1 0x40 MLOAD DUP1 MLOAD SWAP1 POP SWAP1 POP PUSH2 0x1066 JUMP JUMPDEST PUSH2 0x1063 DUP4 DUP4 PUSH2 0x16A4 JUMP JUMPDEST SWAP1 POP JUMPDEST SWAP3 SWAP2 POP POP JUMP JUMPDEST PUSH1 0x3 SLOAD DUP2 JUMP JUMPDEST PUSH1 0x6 PUSH1 0x20 MSTORE PUSH1 0x0 SWAP1 DUP2 MSTORE PUSH1 0x40 SWAP1 KECCAK256 SLOAD PUSH1 0xFF AND DUP2 JUMP JUMPDEST PUSH1 0x0 SLOAD CALLER PUSH1 0x1 PUSH1 0xA0 PUSH1 0x2 EXP SUB SWAP1 DUP2 AND SWAP2 AND EQ PUSH2 0x10A2 JUMPI PUSH1 0x0 DUP1 REVERT JUMPDEST PUSH1 0x1 PUSH1 0xA0 PUSH1 0x2 EXP SUB DUP2 AND PUSH1 0x0 SWAP1 DUP2 MSTORE PUSH1 0x6 PUSH1 0x20 MSTORE PUSH1 0x40 SWAP1 DUP2 SWAP1 KECCAK256 DUP1 SLOAD PUSH1 0xFF NOT AND SWAP1 SSTORE PUSH32 0xD7E9EC6E6ECD65492DCE6BF513CD6867560D49544421D0783DDF06E76C24470C SWAP1 DUP3 SWAP1 MLOAD PUSH1 0x1 PUSH1 0xA0 PUSH1 0x2 EXP SUB SWAP1 SWAP2 AND DUP2 MSTORE PUSH1 0x20 ADD PUSH1 0x40 MLOAD DUP1 SWAP2 SUB SWAP1 LOG1 POP JUMP JUMPDEST PUSH1 0x0 NOT DUP2 JUMP JUMPDEST PUSH1 0x0 SLOAD CALLER PUSH1 0x1 PUSH1 0xA0 PUSH1 0x2 EXP SUB SWAP1 DUP2 AND SWAP2 AND EQ PUSH2 0x1125 JUMPI PUSH1 0x0 DUP1 REVERT JUMPDEST PUSH1 0x1 PUSH1 0xA0 PUSH1 0x2 EXP SUB DUP2 AND ISZERO PUSH2 0x115D JUMPI PUSH1 0x0 DUP1 SLOAD PUSH20 0xFFFFFFFFFFFFFFFFFFFFFFFFFFFFFFFFFFFFFFFF NOT AND PUSH1 0x1 PUSH1 0xA0 PUSH1 0x2 EXP SUB DUP4 AND OR SWAP1 SSTORE JUMPDEST POP JUMP JUMPDEST PUSH1 0x0 DUP1 SLOAD CALLER PUSH1 0x1 PUSH1 0xA0 PUSH1 0x2 EXP SUB SWAP1 DUP2 AND SWAP2 AND EQ PUSH2 0x117C JUMPI PUSH1 0x0 DUP1 REVERT JUMPDEST PUSH1 0x1 PUSH1 0xA0 PUSH1 0x2 EXP SUB DUP3 AND PUSH1 0x0 SWAP1 DUP2 MSTORE PUSH1 0x6 PUSH1 0x20 MSTORE PUSH1 0x40 SWAP1 KECCAK256 SLOAD PUSH1 0xFF AND ISZERO ISZERO PUSH2 0x11A3 JUMPI PUSH1 0x0 DUP1 REVERT JUMPDEST PUSH2 0x11AC DUP3 PUSH2 0xB45 JUMP JUMPDEST PUSH1 0x1 PUSH1 0xA0 PUSH1 0x2 EXP SUB DUP4 AND PUSH1 0x0 SWAP1 DUP2 MSTORE PUSH1 0x2 PUSH1 0x20 MSTORE PUSH1 0x40 DUP1 DUP3 KECCAK256 SWAP2 SWAP1 SWAP2 SSTORE PUSH1 0x1 DUP1 SLOAD DUP4 SWAP1 SUB SWAP1 SSTORE SWAP1 SWAP2 POP PUSH32 0x61E6E66B0D6339B2980AECC6CCC0039736791F0CCDE9ED512E789A7FBDD698C6 SWAP1 DUP4 SWAP1 DUP4 SWAP1 MLOAD PUSH1 0x1 PUSH1 0xA0 PUSH1 0x2 EXP SUB SWAP1 SWAP3 AND DUP3 MSTORE PUSH1 0x20 DUP3 ADD MSTORE PUSH1 0x40 SWAP1 DUP2 ADD SWAP1 MLOAD DUP1 SWAP2 SUB SWAP1 LOG1 POP POP JUMP JUMPDEST PUSH1 0x40 PUSH1 0x44 CALLDATASIZE LT ISZERO PUSH2 0x122E JUMPI PUSH1 0x0 DUP1 REVERT JUMPDEST DUP2 ISZERO DUP1 ISZERO SWAP1 PUSH2 0x1261 JUMPI POP PUSH1 0x1 PUSH1 0xA0 PUSH1 0x2 EXP SUB CALLER DUP2 AND PUSH1 0x0 SWAP1 DUP2 MSTORE PUSH1 0x5 PUSH1 0x20 SWAP1 DUP2 MSTORE PUSH1 0x40 DUP1 DUP4 KECCAK256 SWAP4 DUP8 AND DUP4 MSTORE SWAP3 SWAP1 MSTORE KECCAK256 SLOAD ISZERO ISZERO JUMPDEST ISZERO PUSH2 0x126B JUMPI PUSH1 0x0 DUP1 REVERT JUMPDEST PUSH1 0x1 PUSH1 0xA0 PUSH1 0x2 EXP SUB CALLER DUP2 AND PUSH1 0x0 DUP2 DUP2 MSTORE PUSH1 0x5 PUSH1 0x20 SWAP1 DUP2 MSTORE PUSH1 0x40 DUP1 DUP4 KECCAK256 SWAP5 DUP9 AND DUP1 DUP5 MSTORE SWAP5 SWAP1 SWAP2 MSTORE SWAP1 DUP2 SWAP1 KECCAK256 DUP6 SWAP1 SSTORE PUSH32 0x8C5BE1E5EBEC7D5BD14F71427D1E84F3DD0314C0F7B2291E5B200AC8C7C3B925 SWAP1 DUP6 SWAP1 MLOAD SWAP1 DUP2 MSTORE PUSH1 0x20 ADD PUSH1 0x40 MLOAD DUP1 SWAP2 SUB SWAP1 LOG3 POP POP POP JUMP JUMPDEST PUSH1 0x0 DUP1 DUP1 PUSH1 0x60 PUSH1 0x64 CALLDATASIZE LT ISZERO PUSH2 0x12E4 JUMPI PUSH1 0x0 DUP1 REVERT JUMPDEST PUSH1 0x1 PUSH1 0xA0 PUSH1 0x2 EXP SUB DUP1 DUP9 AND PUSH1 0x0 SWAP1 DUP2 MSTORE PUSH1 0x5 PUSH1 0x20 SWAP1 DUP2 MSTORE PUSH1 0x40 DUP1 DUP4 KECCAK256 CALLER SWAP1 SWAP5 AND DUP4 MSTORE SWAP3 SWAP1 MSTORE KECCAK256 SLOAD PUSH1 0x3 SLOAD SWAP1 SWAP5 POP PUSH2 0x1336 SWAP1 PUSH2 0x2710 SWAP1 PUSH2 0x132A SWAP1 DUP9 SWAP1 PUSH4 0xFFFFFFFF PUSH2 0x166E AND JUMP JUMPDEST SWAP1 PUSH4 0xFFFFFFFF PUSH2 0x16CF AND JUMP JUMPDEST SWAP3 POP PUSH1 0x4 SLOAD DUP4 GT ISZERO PUSH2 0x1348 JUMPI PUSH1 0x4 SLOAD SWAP3 POP JUMPDEST PUSH1 0x0 NOT DUP5 LT ISZERO PUSH2 0x138A JUMPI PUSH2 0x1362 DUP5 DUP7 PUSH4 0xFFFFFFFF PUSH2 0x16E6 AND JUMP JUMPDEST PUSH1 0x1 PUSH1 0xA0 PUSH1 0x2 EXP SUB DUP1 DUP10 AND PUSH1 0x0 SWAP1 DUP2 MSTORE PUSH1 0x5 PUSH1 0x20 SWAP1 DUP2 MSTORE PUSH1 0x40 DUP1 DUP4 KECCAK256 CALLER SWAP1 SWAP5 AND DUP4 MSTORE SWAP3 SWAP1 MSTORE KECCAK256 SSTORE JUMPDEST PUSH2 0x139A DUP6 DUP5 PUSH4 0xFFFFFFFF PUSH2 0x16E6 AND JUMP JUMPDEST PUSH1 0x1 PUSH1 0xA0 PUSH1 0x2 EXP SUB DUP9 AND PUSH1 0x0 SWAP1 DUP2 MSTORE PUSH1 0x2 PUSH1 0x20 MSTORE PUSH1 0x40 SWAP1 KECCAK256 SLOAD SWAP1 SWAP3 POP PUSH2 0x13C6 SWAP1 DUP7 PUSH4 0xFFFFFFFF PUSH2 0x16E6 AND JUMP JUMPDEST PUSH1 0x1 PUSH1 0xA0 PUSH1 0x2 EXP SUB DUP1 DUP10 AND PUSH1 0x0 SWAP1 DUP2 MSTORE PUSH1 0x2 PUSH1 0x20 MSTORE PUSH1 0x40 DUP1 DUP3 KECCAK256 SWAP4 SWAP1 SWAP4 SSTORE SWAP1 DUP9 AND DUP2 MSTORE KECCAK256 SLOAD PUSH2 0x13FB SWAP1 DUP4 PUSH4 0xFFFFFFFF PUSH2 0x16F8 AND JUMP JUMPDEST PUSH1 0x1 PUSH1 0xA0 PUSH1 0x2 EXP SUB DUP8 AND PUSH1 0x0 SWAP1 DUP2 MSTORE PUSH1 0x2 PUSH1 0x20 MSTORE PUSH1 0x40 DUP2 KECCAK256 SWAP2 SWAP1 SWAP2 SSTORE DUP4 GT ISZERO PUSH2 0x1491 JUMPI PUSH1 0x0 DUP1 SLOAD PUSH1 0x1 PUSH1 0xA0 PUSH1 0x2 EXP SUB AND DUP2 MSTORE PUSH1 0x2 PUSH1 0x20 MSTORE PUSH1 0x40 SWAP1 KECCAK256 SLOAD PUSH2 0x1447 SWAP1 DUP5 PUSH4 0xFFFFFFFF PUSH2 0x16F8 AND JUMP JUMPDEST PUSH1 0x0 DUP1 SLOAD PUSH1 0x1 PUSH1 0xA0 PUSH1 0x2 EXP SUB SWAP1 DUP2 AND DUP3 MSTORE PUSH1 0x2 PUSH1 0x20 MSTORE PUSH1 0x40 DUP1 DUP4 KECCAK256 SWAP4 SWAP1 SWAP4 SSTORE SWAP1 SLOAD DUP2 AND SWAP2 SWAP1 DUP10 AND SWAP1 PUSH1 0x0 DUP1 MLOAD PUSH1 0x20 PUSH2 0x17A0 DUP4 CODECOPY DUP2 MLOAD SWAP2 MSTORE SWAP1 DUP7 SWAP1 MLOAD SWAP1 DUP2 MSTORE PUSH1 0x20 ADD PUSH1 0x40 MLOAD DUP1 SWAP2 SUB SWAP1 LOG3 JUMPDEST DUP6 PUSH1 0x1 PUSH1 0xA0 PUSH1 0x2 EXP SUB AND DUP8 PUSH1 0x1 PUSH1 0xA0 PUSH1 0x2 EXP SUB AND PUSH1 0x0 DUP1 MLOAD PUSH1 0x20 PUSH2 0x17A0 DUP4 CODECOPY DUP2 MLOAD SWAP2 MSTORE DUP5 PUSH1 0x40 MLOAD SWAP1 DUP2 MSTORE PUSH1 0x20 ADD PUSH1 0x40 MLOAD DUP1 SWAP2 SUB SWAP1 LOG3 POP POP POP POP POP POP POP JUMP JUMPDEST PUSH1 0x1 PUSH1 0xA0 PUSH1 0x2 EXP SUB AND PUSH1 0x0 SWAP1 DUP2 MSTORE PUSH1 0x2 PUSH1 0x20 MSTORE PUSH1 0x40 SWAP1 KECCAK256 SLOAD SWAP1 JUMP JUMPDEST PUSH1 0x0 DUP1 PUSH1 0x40 PUSH1 0x44 CALLDATASIZE LT ISZERO PUSH2 0x14FD JUMPI PUSH1 0x0 DUP1 REVERT JUMPDEST PUSH2 0x1518 PUSH2 0x2710 PUSH2 0x132A PUSH1 0x3 SLOAD DUP8 PUSH2 0x166E SWAP1 SWAP2 SWAP1 PUSH4 0xFFFFFFFF AND JUMP JUMPDEST SWAP3 POP PUSH1 0x4 SLOAD DUP4 GT ISZERO PUSH2 0x152A JUMPI PUSH1 0x4 SLOAD SWAP3 POP JUMPDEST PUSH2 0x153A DUP5 DUP5 PUSH4 0xFFFFFFFF PUSH2 0x16E6 AND JUMP JUMPDEST PUSH1 0x1 PUSH1 0xA0 PUSH1 0x2 EXP SUB CALLER AND PUSH1 0x0 SWAP1 DUP2 MSTORE PUSH1 0x2 PUSH1 0x20 MSTORE PUSH1 0x40 SWAP1 KECCAK256 SLOAD SWAP1 SWAP3 POP PUSH2 0x1566 SWAP1 DUP6 PUSH4 0xFFFFFFFF PUSH2 0x16E6 AND JUMP JUMPDEST PUSH1 0x1 PUSH1 0xA0 PUSH1 0x2 EXP SUB CALLER DUP2 AND PUSH1 0x0 SWAP1 DUP2 MSTORE PUSH1 0x2 PUSH1 0x20 MSTORE PUSH1 0x40 DUP1 DUP3 KECCAK256 SWAP4 SWAP1 SWAP4 SSTORE SWAP1 DUP8 AND DUP2 MSTORE KECCAK256 SLOAD PUSH2 0x159B SWAP1 DUP4 PUSH4 0xFFFFFFFF PUSH2 0x16F8 AND JUMP JUMPDEST PUSH1 0x1 PUSH1 0xA0 PUSH1 0x2 EXP SUB DUP7 AND PUSH1 0x0 SWAP1 DUP2 MSTORE PUSH1 0x2 PUSH1 0x20 MSTORE PUSH1 0x40 DUP2 KECCAK256 SWAP2 SWAP1 SWAP2 SSTORE DUP4 GT ISZERO PUSH2 0x1632 JUMPI PUSH1 0x0 DUP1 SLOAD PUSH1 0x1 PUSH1 0xA0 PUSH1 0x2 EXP SUB AND DUP2 MSTORE PUSH1 0x2 PUSH1 0x20 MSTORE PUSH1 0x40 SWAP1 KECCAK256 SLOAD PUSH2 0x15E7 SWAP1 DUP5 PUSH4 0xFFFFFFFF PUSH2 0x16F8 AND JUMP JUMPDEST PUSH1 0x0 DUP1 SLOAD PUSH1 0x1 PUSH1 0xA0 PUSH1 0x2 EXP SUB SWAP1 DUP2 AND DUP3 MSTORE PUSH1 0x2 PUSH1 0x20 MSTORE PUSH1 0x40 DUP1 DUP4 KECCAK256 SWAP4 SWAP1 SWAP4 SSTORE SWAP1 SLOAD DUP2 AND SWAP2 CALLER SWAP1 SWAP2 AND SWAP1 PUSH1 0x0 DUP1 MLOAD PUSH1 0x20 PUSH2 0x17A0 DUP4 CODECOPY DUP2 MLOAD SWAP2 MSTORE SWAP1 DUP7 SWAP1 MLOAD SWAP1 DUP2 MSTORE PUSH1 0x20 ADD PUSH1 0x40 MLOAD DUP1 SWAP2 SUB SWAP1 LOG3 JUMPDEST DUP5 PUSH1 0x1 PUSH1 0xA0 PUSH1 0x2 EXP SUB AND CALLER PUSH1 0x1 PUSH1 0xA0 PUSH1 0x2 EXP SUB AND PUSH1 0x0 DUP1 MLOAD PUSH1 0x20 PUSH2 0x17A0 DUP4 CODECOPY DUP2 MLOAD SWAP2 MSTORE DUP5 PUSH1 0x40 MLOAD SWAP1 DUP2 MSTORE PUSH1 0x20 ADD PUSH1 0x40 MLOAD DUP1 SWAP2 SUB SWAP1 LOG3 POP POP POP POP POP JUMP JUMPDEST PUSH1 0x0 DUP1 DUP4 ISZERO ISZERO PUSH2 0x1681 JUMPI PUSH1 0x0 SWAP2 POP PUSH2 0x169D JUMP JUMPDEST POP DUP3 DUP3 MUL DUP3 DUP5 DUP3 DUP2 ISZERO ISZERO PUSH2 0x1691 JUMPI INVALID JUMPDEST DIV EQ PUSH2 0x1699 JUMPI INVALID JUMPDEST DUP1 SWAP2 POP JUMPDEST POP SWAP3 SWAP2 POP POP JUMP JUMPDEST PUSH1 0x1 PUSH1 0xA0 PUSH1 0x2 EXP SUB SWAP2 DUP3 AND PUSH1 0x0 SWAP1 DUP2 MSTORE PUSH1 0x5 PUSH1 0x20 SWAP1 DUP2 MSTORE PUSH1 0x40 DUP1 DUP4 KECCAK256 SWAP4 SWAP1 SWAP5 AND DUP3 MSTORE SWAP2 SWAP1 SWAP2 MSTORE KECCAK256 SLOAD SWAP1 JUMP JUMPDEST PUSH1 0x0 DUP1 DUP3 DUP5 DUP2 ISZERO ISZERO PUSH2 0x16DD JUMPI INVALID JUMPDEST DIV SWAP5 SWAP4 POP POP POP POP JUMP JUMPDEST PUSH1 0x0 DUP3 DUP3 GT ISZERO PUSH2 0x16F2 JUMPI INVALID JUMPDEST POP SWAP1 SUB SWAP1 JUMP JUMPDEST PUSH1 0x0 DUP3 DUP3 ADD DUP4 DUP2 LT ISZERO PUSH2 0x1699 JUMPI INVALID JUMPDEST DUP3 DUP1 SLOAD PUSH1 0x1 DUP2 PUSH1 0x1 AND ISZERO PUSH2 0x100 MUL SUB AND PUSH1 0x2 SWAP1 DIV SWAP1 PUSH1 0x0 MSTORE PUSH1 0x20 PUSH1 0x0 KECCAK256 SWAP1 PUSH1 0x1F ADD PUSH1 0x20 SWAP1 DIV DUP2 ADD SWAP3 DUP3 PUSH1 0x1F LT PUSH2 0x1748 JUMPI DUP1 MLOAD PUSH1 0xFF NOT AND DUP4 DUP1 ADD OR DUP6 SSTORE PUSH2 0x1775 JUMP JUMPDEST DUP3 DUP1 ADD PUSH1 0x1 ADD DUP6 SSTORE DUP3 ISZERO PUSH2 0x1775 JUMPI SWAP2 DUP3 ADD JUMPDEST DUP3 DUP2 GT ISZERO PUSH2 0x1775 JUMPI DUP3 MLOAD DUP3 SSTORE SWAP2 PUSH1 0x20 ADD SWAP2 SWAP1 PUSH1 0x1 ADD SWAP1 PUSH2 0x175A JUMP JUMPDEST POP PUSH2 0x1781 SWAP3 SWAP2 POP PUSH2 0x1785 JUMP JUMPDEST POP SWAP1 JUMP JUMPDEST PUSH2 0x889 SWAP2 SWAP1 JUMPDEST DUP1 DUP3 GT ISZERO PUSH2 0x1781 JUMPI PUSH1 0x0 DUP2 SSTORE PUSH1 0x1 ADD PUSH2 0x178B JUMP STOP 0xdd CALLCODE MSTORE 0xad 0x1b 0xe2 0xc8 SWAP12 PUSH10 0xC2B068FC378DAA952BA7 CALL PUSH4 0xC4A11628 0xf5 GAS 0x4d 0xf5 0x23 0xb3 0xef LOG1 PUSH6 0x627A7A723058 KECCAK256 CALLDATACOPY OR PUSH4 0x45E03F34 MLOAD DUP10 0x2c 0xe8 0xcc DUP10 0xe0 DUP3 0x22 NOT LOG0 0xc3 CALLDATASIZE 0x4b LOG1 0xe7 0xdc PUSH31 0x748532AA04C8B2002900000000000000000000000000000000000000000000 "},"gasEstimates":{"creation":{"codeDepositCost":"1224600","executionCost":"31642","totalCost":"1256242"},"external":{"MAX_UINT()":"896","TetherToken()":"infinite","_totalSupply()":"675","addBlackList(address)":"22174","allowance(address,address)":"infinite","allowed(address,address)":"997","approve(address,uint256)":"infinite","balanceOf(address)":"infinite","balances(address)":"756","basisPointsRate()":"1027","decimals()":"631","deprecate(address)":"22114","deprecated()":"585","destroyBlackFunds(address)":"infinite","getBlackListStatus(address)":"962","getOwner()":"1004","isBlackListed(address)":"1208","issue(uint256)":"43663","maximumFee()":"653","name()":"infinite","owner()":"1026","pause()":"22254","paused()":"871","redeem(uint256)":"43691","removeBlackList(address)":"22718","setParams(uint256,uint256)":"infinite","symbol()":"infinite","totalSupply()":"infinite","transfer(address,uint256)":"infinite","transferFrom(address,address,uint256)":"infinite","transferOwnership(address)":"21653","unpause()":"22056","upgradedAddress()":"740"}},"methodIdentifiers":{"MAX_UINT()":"e5b5019a","TetherToken()":"5aeb45dc","_totalSupply()":"3eaaf86b","addBlackList(address)":"0ecb93c0","allowance(address,address)":"dd62ed3e","allowed(address,address)":"5c658165","approve(address,uint256)":"095ea7b3","balanceOf(address)":"70a08231","balances(address)":"27e235e3","basisPointsRate()":"dd644f72","decimals()":"313ce567","deprecate(address)":"0753c30c","deprecated()":"0e136b19","destroyBlackFunds(address)":"f3bdc228","getBlackListStatus(address)":"59bf1abe","getOwner()":"893d20e8","isBlackListed(address)":"e47d6060","issue(uint256)":"cc872b66","maximumFee()":"35390714","name()":"06fdde03","owner()":"8da5cb5b","pause()":"8456cb59","paused()":"5c975abb","redeem(uint256)":"db006a75","removeBlackList(address)":"e4997dc5","setParams(uint256,uint256)":"c0324c77","symbol()":"95d89b41","totalSupply()":"18160ddd","transfer(address,uint256)":"a9059cbb","transferFrom(address,address,uint256)":"23b872dd","transferOwnership(address)":"f2fde38b","unpause()":"3f4ba83a","upgradedAddress()":"26976e3f"}},"userdoc":{"methods":{"getBlackListStatus(address)":{"notice":"//// Getters to allow the same blacklist to be used also by other contracts (including upgraded Tether) ///////\r"}}}}}}