{
  "_format": "hh-sol-artifact-1",
  "contractName": "OBridgeRouter",
  "sourceName": "contracts/Router.sol",
  "abi": [
    {
      "anonymous": false,
      "inputs": [
        {
          "indexed": false,
          "internalType": "uint8",
          "name": "version",
          "type": "uint8"
        }
      ],
      "name": "Initialized",
      "type": "event"
    },
    {
      "anonymous": false,
      "inputs": [
        {
          "indexed": false,
          "internalType": "address",
          "name": "token",
          "type": "address"
        },
        {
          "indexed": false,
          "internalType": "address",
          "name": "from",
          "type": "address"
        },
        {
          "indexed": false,
          "internalType": "address",
          "name": "to",
          "type": "address"
        },
        {
          "indexed": false,
          "internalType": "uint256",
          "name": "amount",
          "type": "uint256"
        },
        {
          "indexed": false,
          "internalType": "uint256",
          "name": "fromChainID",
          "type": "uint256"
        },
        {
          "indexed": false,
          "internalType": "uint256",
          "name": "toChainID",
          "type": "uint256"
        },
        {
          "indexed": false,
          "internalType": "uint256",
          "name": "form",
          "type": "uint256"
        }
      ],
      "name": "LogRouterSwapInEVM",
      "type": "event"
    },
    {
      "anonymous": false,
      "inputs": [
        {
          "indexed": true,
          "internalType": "address",
          "name": "previousOwner",
          "type": "address"
        },
        {
          "indexed": true,
          "internalType": "address",
          "name": "newOwner",
          "type": "address"
        }
      ],
      "name": "OwnershipTransferred",
      "type": "event"
    },
    {
      "inputs": [
        {
          "internalType": "address",
          "name": "token",
          "type": "address"
        },
        {
          "internalType": "address",
          "name": "_minter",
          "type": "address"
        }
      ],
      "name": "addMinter",
      "outputs": [
        {
          "internalType": "bool",
          "name": "",
          "type": "bool"
        }
      ],
      "stateMutability": "nonpayable",
      "type": "function"
    },
    {
      "inputs": [
        {
          "internalType": "address",
          "name": "token",
          "type": "address"
        },
        {
          "internalType": "address",
          "name": "from",
          "type": "address"
        },
        {
          "internalType": "uint256",
          "name": "amount",
          "type": "uint256"
        }
      ],
      "name": "burnOToken",
      "outputs": [
        {
          "internalType": "bool",
          "name": "",
          "type": "bool"
        }
      ],
      "stateMutability": "nonpayable",
      "type": "function"
    },
    {
      "inputs": [],
      "name": "chainID",
      "outputs": [
        {
          "internalType": "uint256",
          "name": "",
          "type": "uint256"
        }
      ],
      "stateMutability": "view",
      "type": "function"
    },
    {
      "inputs": [
        {
          "internalType": "address",
          "name": "token",
          "type": "address"
        },
        {
          "internalType": "address",
          "name": "_orgtoken",
          "type": "address"
        }
      ],
      "name": "changeOrgToken",
      "outputs": [
        {
          "internalType": "bool",
          "name": "",
          "type": "bool"
        }
      ],
      "stateMutability": "nonpayable",
      "type": "function"
    },
    {
      "inputs": [
        {
          "internalType": "address[]",
          "name": "tokenList",
          "type": "address[]"
        },
        {
          "internalType": "address",
          "name": "newRouter",
          "type": "address"
        }
      ],
      "name": "changeRouter",
      "outputs": [
        {
          "internalType": "bool",
          "name": "",
          "type": "bool"
        }
      ],
      "stateMutability": "nonpayable",
      "type": "function"
    },
    {
      "inputs": [
        {
          "internalType": "address",
          "name": "_wNativeToken",
          "type": "address"
        }
      ],
      "name": "initialize",
      "outputs": [],
      "stateMutability": "nonpayable",
      "type": "function"
    },
    {
      "inputs": [
        {
          "internalType": "address",
          "name": "token",
          "type": "address"
        },
        {
          "internalType": "address",
          "name": "to",
          "type": "address"
        },
        {
          "internalType": "uint256",
          "name": "amount",
          "type": "uint256"
        }
      ],
      "name": "mintOToken",
      "outputs": [
        {
          "internalType": "bool",
          "name": "",
          "type": "bool"
        }
      ],
      "stateMutability": "nonpayable",
      "type": "function"
    },
    {
      "inputs": [],
      "name": "owner",
      "outputs": [
        {
          "internalType": "address",
          "name": "",
          "type": "address"
        }
      ],
      "stateMutability": "view",
      "type": "function"
    },
    {
      "inputs": [
        {
          "internalType": "address",
          "name": "token",
          "type": "address"
        },
        {
          "internalType": "address",
          "name": "_minter",
          "type": "address"
        }
      ],
      "name": "removeMinter",
      "outputs": [
        {
          "internalType": "bool",
          "name": "",
          "type": "bool"
        }
      ],
      "stateMutability": "nonpayable",
      "type": "function"
    },
    {
      "inputs": [],
      "name": "renounceOwnership",
      "outputs": [],
      "stateMutability": "nonpayable",
      "type": "function"
    },
    {
      "inputs": [
        {
          "internalType": "address",
          "name": "token",
          "type": "address"
        },
        {
          "internalType": "address",
          "name": "to",
          "type": "address"
        },
        {
          "internalType": "uint256",
          "name": "amount",
          "type": "uint256"
        },
        {
          "internalType": "uint256",
          "name": "toChainID",
          "type": "uint256"
        }
      ],
      "name": "swapInERC20Token",
      "outputs": [
        {
          "internalType": "bool",
          "name": "",
          "type": "bool"
        }
      ],
      "stateMutability": "nonpayable",
      "type": "function"
    },
    {
      "inputs": [
        {
          "internalType": "address",
          "name": "token",
          "type": "address"
        },
        {
          "internalType": "address",
          "name": "to",
          "type": "address"
        },
        {
          "internalType": "uint256",
          "name": "toChainID",
          "type": "uint256"
        }
      ],
      "name": "swapInNativeToken",
      "outputs": [
        {
          "internalType": "bool",
          "name": "",
          "type": "bool"
        }
      ],
      "stateMutability": "payable",
      "type": "function"
    },
    {
      "inputs": [
        {
          "internalType": "address",
          "name": "token",
          "type": "address"
        },
        {
          "internalType": "address",
          "name": "to",
          "type": "address"
        },
        {
          "internalType": "uint256",
          "name": "amount",
          "type": "uint256"
        },
        {
          "internalType": "uint256",
          "name": "toChainID",
          "type": "uint256"
        }
      ],
      "name": "swapInOBToken",
      "outputs": [
        {
          "internalType": "bool",
          "name": "",
          "type": "bool"
        }
      ],
      "stateMutability": "nonpayable",
      "type": "function"
    },
    {
      "inputs": [
        {
          "internalType": "uint256",
          "name": "uID",
          "type": "uint256"
        },
        {
          "internalType": "address",
          "name": "token",
          "type": "address"
        },
        {
          "internalType": "address",
          "name": "to",
          "type": "address"
        },
        {
          "internalType": "uint256",
          "name": "amount",
          "type": "uint256"
        }
      ],
      "name": "swapOut",
      "outputs": [
        {
          "internalType": "bool",
          "name": "",
          "type": "bool"
        }
      ],
      "stateMutability": "nonpayable",
      "type": "function"
    },
    {
      "inputs": [
        {
          "internalType": "address",
          "name": "newOwner",
          "type": "address"
        }
      ],
      "name": "transferOwnership",
      "outputs": [],
      "stateMutability": "nonpayable",
      "type": "function"
    },
    {
      "inputs": [],
      "name": "wNativeToken",
      "outputs": [
        {
          "internalType": "address",
          "name": "",
          "type": "address"
        }
      ],
      "stateMutability": "view",
      "type": "function"
    },
    {
      "stateMutability": "payable",
      "type": "receive"
    }
  ],
  "bytecode": "0x608060405234801561001057600080fd5b506114d6806100206000396000f3fe6080604052600436106100f75760003560e01c8063a46911531161008a578063d8d3c59811610059578063d8d3c598146102b9578063f087b790146102d9578063f2fde38b146102f9578063fa188df21461031957610126565b8063a46911531461024b578063adc879e91461026b578063b5dc2cf114610286578063c4d66de81461029957610126565b80637c019546116100c65780637c019546146101cd57806384abaa5d146101ed57806388ffe6fb1461020d5780638da5cb5b1461022d57610126565b80630bc24dc41461012b57806359c91f1914610160578063715018a6146101985780637b1d6318146101ad57610126565b36610126576065546001600160a01b0316331461012457634e487b7160e01b600052600160045260246000fd5b005b600080fd5b34801561013757600080fd5b5061014b610146366004611283565b610339565b60405190151581526020015b60405180910390f35b34801561016c57600080fd5b50606554610180906001600160a01b031681565b6040516001600160a01b039091168152602001610157565b3480156101a457600080fd5b506101246104ff565b3480156101b957600080fd5b5061014b6101c83660046111c6565b610513565b3480156101d957600080fd5b5061014b6101e83660046111fe565b610582565b3480156101f957600080fd5b5061014b61020836600461123e565b61061a565b34801561021957600080fd5b5061014b6102283660046111fe565b6106ed565b34801561023957600080fd5b506033546001600160a01b0316610180565b34801561025757600080fd5b5061014b61026636600461137b565b61072c565b34801561027757600080fd5b50604051468152602001610157565b61014b6102943660046111fe565b6108f6565b3480156102a557600080fd5b506101246102b4366004611187565b610b55565b3480156102c557600080fd5b5061014b6102d43660046111c6565b610d05565b3480156102e557600080fd5b5061014b6102f436600461123e565b610d8a565b34801561030557600080fd5b50610124610314366004611187565b610fb2565b34801561032557600080fd5b5061014b6103343660046111c6565b61102b565b6000610343611063565b60005b83518110156104f55783818151811061036f57634e487b7160e01b600052603260045260246000fd5b6020908102919091010151604051633092afd560e01b81523060048201526001600160a01b0390911690633092afd590602401600060405180830381600087803b1580156103bc57600080fd5b505af11580156103d0573d6000803e3d6000fd5b505050508381815181106103f457634e487b7160e01b600052603260045260246000fd5b6020908102919091010151604051634c1d96ab60e11b81526001600160a01b0385811660048301529091169063983b2d5690602401600060405180830381600087803b15801561044357600080fd5b505af1158015610457573d6000803e3d6000fd5b5050505083818151811061047b57634e487b7160e01b600052603260045260246000fd5b602090810291909101015160405163f2fde38b60e01b81526001600160a01b0385811660048301529091169063f2fde38b90602401600060405180830381600087803b1580156104ca57600080fd5b505af11580156104de573d6000803e3d6000fd5b5050505080806104ed9061144e565b915050610346565b5060019392505050565b610507611063565b61051160006110bd565b565b600061051d611063565b604051633092afd560e01b81526001600160a01b038381166004830152841690633092afd5906024015b600060405180830381600087803b15801561056157600080fd5b505af1158015610575573d6000803e3d6000fd5b5060019695505050505050565b600061058c611063565b604051632770a7eb60e21b81526001600160a01b03848116600483015260248201849052851690639dc29fac906044015b602060405180830381600087803b1580156105d757600080fd5b505af11580156105eb573d6000803e3d6000fd5b505050506040513d601f19601f8201168201806040525081019061060f919061135b565b506001949350505050565b604051632770a7eb60e21b8152336004820152602481018390526000906001600160a01b03861690639dc29fac90604401602060405180830381600087803b15801561066557600080fd5b505af1158015610679573d6000803e3d6000fd5b505050506040513d601f19601f8201168201806040525081019061069d919061135b565b507f0dea2bda79c01765fe12bab1f2f83a866770be22b2eeb42df299651abccab62785338686468760026040516106da97969594939291906113c2565b60405180910390a1506001949350505050565b60006106f7611063565b6040516340c10f1960e01b81526001600160a01b038481166004830152602482018490528516906340c10f19906044016105bd565b6000610736611063565b606554604080516301bc7e7960e41b815290516001600160a01b0392831692871691631bc7e790916004808301926020929190829003018186803b15801561077d57600080fd5b505afa158015610791573d6000803e3d6000fd5b505050506040513d601f19601f820116820180604052508101906107b591906111aa565b6001600160a01b0316141561085a576040516308c0ce3560e31b8152600481018690526001600160a01b038481166024830152604482018490526000606483015285169063460671a890608401602060405180830381600087803b15801561081c57600080fd5b505af1158015610830573d6000803e3d6000fd5b505050506040513d601f19601f82011682018060405250810190610854919061135b565b5061060f565b6040516308c0ce3560e31b8152600481018690526001600160a01b038481166024830152604482018490526001606483015285169063460671a890608401602060405180830381600087803b1580156108b257600080fd5b505af11580156108c6573d6000803e3d6000fd5b505050506040513d601f19601f820116820180604052508101906108ea919061135b565b50506001949350505050565b6000606560009054906101000a90046001600160a01b03166001600160a01b0316846001600160a01b0316631bc7e7906040518163ffffffff1660e01b815260040160206040518083038186803b15801561095057600080fd5b505afa158015610964573d6000803e3d6000fd5b505050506040513d601f19601f8201168201806040525081019061098891906111aa565b6001600160a01b0316146109fe5760405162461bcd60e51b815260206004820152603260248201527f4f427269646765526f757465723a204f726967696e616c20746f6b656e206973604482015271103737ba103730ba34bb32903a37b5b2b71760711b60648201526084015b60405180910390fd5b606560009054906101000a90046001600160a01b03166001600160a01b031663d0e30db0346040518263ffffffff1660e01b81526004016000604051808303818588803b158015610a4e57600080fd5b505af1158015610a62573d6000803e3d6000fd5b505060655460405163a9059cbb60e01b81526001600160a01b038981166004830152346024830152909116935063a9059cbb92506044019050602060405180830381600087803b158015610ab557600080fd5b505af1158015610ac9573d6000803e3d6000fd5b505050506040513d601f19601f82011682018060405250810190610aed919061135b565b610b0757634e487b7160e01b600052600160045260246000fd5b7f0dea2bda79c01765fe12bab1f2f83a866770be22b2eeb42df299651abccab6278433853446876000604051610b4397969594939291906113c2565b60405180910390a15060019392505050565b600054610100900460ff1615808015610b755750600054600160ff909116105b80610b965750610b843061110f565b158015610b96575060005460ff166001145b610bf95760405162461bcd60e51b815260206004820152602e60248201527f496e697469616c697a61626c653a20636f6e747261637420697320616c72656160448201526d191e481a5b9a5d1a585b1a5e995960921b60648201526084016109f5565b6000805460ff191660011790558015610c1c576000805461ff0019166101001790555b6001600160a01b038216610c985760405162461bcd60e51b815260206004820152603a60248201527f4f427269646765526f757465723a2057726170706564206e617469766520746f60448201527f6b656e20616464726573732063616e2774206265207a65726f2e00000000000060648201526084016109f5565b610ca0611122565b606580546001600160a01b0319166001600160a01b0384161790558015610d01576000805461ff0019169055604051600181527f7f26b83ff96e1f2b6a682f133852f6798a09c465da95921460cefb38474024989060200160405180910390a15b5050565b6000610d0f611063565b6040516344fc95a560e01b81526001600160a01b0383811660048301528416906344fc95a590602401602060405180830381600087803b158015610d5257600080fd5b505af1158015610d66573d6000803e3d6000fd5b505050506040513d601f19601f820116820180604052508101906104f5919061135b565b6000806001600160a01b0316856001600160a01b0316631bc7e7906040518163ffffffff1660e01b815260040160206040518083038186803b158015610dcf57600080fd5b505afa158015610de3573d6000803e3d6000fd5b505050506040513d601f19601f82011682018060405250810190610e0791906111aa565b6001600160a01b03161415610e7a5760405162461bcd60e51b815260206004820152603360248201527f4f427269646765526f757465723a204861766520746f2063616c6c207377617060448201527224b727a12a37b5b2b710333ab731ba34b7b71760691b60648201526084016109f5565b846001600160a01b0316631bc7e7906040518163ffffffff1660e01b815260040160206040518083038186803b158015610eb357600080fd5b505afa158015610ec7573d6000803e3d6000fd5b505050506040513d601f19601f82011682018060405250810190610eeb91906111aa565b6040516323b872dd60e01b81523360048201526001600160a01b0387811660248301526044820186905291909116906323b872dd90606401602060405180830381600087803b158015610f3d57600080fd5b505af1158015610f51573d6000803e3d6000fd5b505050506040513d601f19601f82011682018060405250810190610f75919061135b565b507f0dea2bda79c01765fe12bab1f2f83a866770be22b2eeb42df299651abccab62785338686468760016040516106da97969594939291906113c2565b610fba611063565b6001600160a01b03811661101f5760405162461bcd60e51b815260206004820152602660248201527f4f776e61626c653a206e6577206f776e657220697320746865207a65726f206160448201526564647265737360d01b60648201526084016109f5565b611028816110bd565b50565b6000611035611063565b604051634c1d96ab60e11b81526001600160a01b03838116600483015284169063983b2d5690602401610547565b6033546001600160a01b031633146105115760405162461bcd60e51b815260206004820181905260248201527f4f776e61626c653a2063616c6c6572206973206e6f7420746865206f776e657260448201526064016109f5565b603380546001600160a01b038381166001600160a01b0319831681179093556040519116919082907f8be0079c531659141344cd1fd0a4f28419497f9722a3daafe3b4186f6b6457e090600090a35050565b6001600160a01b0381163b15155b919050565b600054610100900460ff166111495760405162461bcd60e51b81526004016109f590611403565b610511600054610100900460ff166111735760405162461bcd60e51b81526004016109f590611403565b610511336110bd565b803561111d8161148b565b600060208284031215611198578081fd5b81356111a38161148b565b9392505050565b6000602082840312156111bb578081fd5b81516111a38161148b565b600080604083850312156111d8578081fd5b82356111e38161148b565b915060208301356111f38161148b565b809150509250929050565b600080600060608486031215611212578081fd5b833561121d8161148b565b9250602084013561122d8161148b565b929592945050506040919091013590565b60008060008060808587031215611253578081fd5b843561125e8161148b565b9350602085013561126e8161148b565b93969395505050506040820135916060013590565b60008060408385031215611295578182fd5b823567ffffffffffffffff808211156112ac578384fd5b818501915085601f8301126112bf578384fd5b81356020828211156112d3576112d3611475565b808202604051601f19603f830116810181811086821117156112f7576112f7611475565b604052838152828101945085830182870184018b1015611315578889fd5b8896505b8487101561133e5761132a8161117c565b865260019690960195948301948301611319565b50965061134e905087820161117c565b9450505050509250929050565b60006020828403121561136c578081fd5b815180151581146111a3578182fd5b60008060008060808587031215611390578384fd5b8435935060208501356113a28161148b565b925060408501356113b28161148b565b9396929550929360600135925050565b6001600160a01b03978816815295871660208701529390951660408501526060840191909152608083015260a082019290925260c081019190915260e00190565b6020808252602b908201527f496e697469616c697a61626c653a20636f6e7472616374206973206e6f74206960408201526a6e697469616c697a696e6760a81b606082015260800190565b600060001982141561146e57634e487b7160e01b81526011600452602481fd5b5060010190565b634e487b7160e01b600052604160045260246000fd5b6001600160a01b038116811461102857600080fdfea2646970667358221220cbadcd39d4207d42e87fb37763cdce66d64c1aba6bac3b2b7ad6a44f2afcbf2864736f6c63430008020033",
  "linkReferences": {},
  "deployedLinkReferences": {}
}